:100000000C945E020C9486020C9486020C94860278
:100010000C9486020C9486020C94C6110C948602F1
:100020000C9486020C9486020C9486020C94860230
:100030000C9486020C9486020C9486020C94860220
:100040000C94081C0C9486020C9432100C940C1026
:100050000C9486020C9486020C9486020C94860200
:100060000C94940C0C94860208000000BE92244963
:10007000123EABAAAA2ABECDCCCC4C3E00000080DA
:10008000BEABAAAAAA3E00000000BF000000803F4D
:100090000000000000084178D3BB4387D1133D190D
:1000A0000E3CC3BD4282AD2B3E68EC8276BED98F3A
:1000B000E1A93E4C80EFFFBE01C4FF7F3F0000007E
:1000C000000000407A10F35A00A0724E1809001088
:1000D000A5D4E80000E87648170000E40B540200BD
:1000E00000CA9A3B000000E1F505000080969800E8
:1000F000000040420F000000A08601000000102711
:1001000000000000E80300000000640000000000A0
:100110000A00000000000100000000002C76D888D2
:10012000DC674F0823DFC1DFAE59E1B1B796E5E3E5
:10013000E453C63AE651997696E8E6C28426EB89FE
:100140008C9B62ED407C6FFCEFBC9C9F40F2BAA59B
:100150006FA5F490055A2AF75C936B6CF9676DC133
:100160001BFCE0E40D47FEF520E6B500D0ED902E37
:100170000300943577050080841E080000204E0A95
:10018000000000C80C333333330F986E12831141D3
:10019000EF8D2114893BE65516CFFEE6DB18D1849E
:1001A0004B381BF77C1D901DA4BBE42420328472C5
:1001B0005E228100C9F124ECA1E53D274572724A17
:1001C000616E4665624D61724170724D61794A752A
:1001D0006E4A756C4175675365704F63744E6F76E8
:1001E0004465630052544320736574206661696CF2
:1001F00065642E006C617374207472792E00525401
:100200004320736574206661696C656400525443D1
:100210002073657420746F3A20004572726F723AD1
:100220002059656172206D75737420626520747742
:100230006F206F7220666F757220646967697473CE
:100240000077616974696E6720666F7220646174FB
:10025000652061742073657269616C20696E7075C8
:10026000742E2E2E004D6F64756C6520776F726B47
:10027000696E672070726F7065726C792E005772AC
:100280006F6E672074696D652E2052657365747496
:10029000696E67206D6F64756C652E006572726F94
:1002A00072206F70656E696E672066696C65203CB0
:1002B000636F6E6669672E6366673E0025004D6F4B
:1002C0006973747572653A200020202020204669E9
:1002D0006E69736865642E007761746572696E6714
:1002E0002074686520706C616E74732E2E2E00C2AF
:1002F000BA430054656D7065726174757265323A07
:100300002000C2BA430054656D70657261747572E5
:1003100065313A2000206F686D7300546865726D16
:100320006973746F723220726573697374616E637E
:10033000653A2000206F686D7300546865726D69BE
:1003400073746F723120726573697374616E636563
:100350003A2000764F7574323A2000764F7574312A
:100360003A200041766572616765205448322072F8
:10037000656164696E673A20004176657261676500
:10038000205448312072656164696E673A20003EEE
:10039000006572726F72206F70656E696E6720669D
:1003A000696C65203C00446174612066696C65205D
:1003B0006469646E27742065786973742E204372B3
:1003C0006561746564206E6577206F6E652E003EF2
:1003D000006572726F72206F70656E696E6720665D
:1003E000696C65203C0053446361726420777269D4
:1003F0007465204F6B2E00416E206572726F722003
:100400006F63637572726564207768696C652077C5
:10041000726974696E6720746F206D6963726F53BF
:100420004420636172642E0057726974696E67209C
:100430007265706F7274206C696E6520746F206DC8
:100440006963726F534420636172642E2E2E200004
:100450007C3C3E5E2B3D3F2F5B5D3B2C2A225C00AB
:1004600000000000230026002900000000002400F6
:1004700027002A0000000000250028002B000404AB
:10048000040404040404020202020202030303033C
:100490000303010204081020408001020408102018
:1004A00001020408102000000008000201000003FF
:1004B00004070000000000000000022311241FBEFA
:1004C000CFEFD8E0DEBFCDBF12E0A0E0B1E0E6EABA
:1004D000FAE502C005900D92A83DB107D9F726E0D4
:1004E000A8EDB2E001C01D92A638B207E1F712E014
:1004F000CEE5D2E004C02197FE010E944029CD350F
:10050000D107C9F70E94521C0C94512D0C94000085
:1005100008958FEF9FEF08958FEF9FEF08958091DB
:100520004C0390E09195819591090895089580E09C
:1005300090E0089585ED8093BC008091BC0084FD1F
:10054000FCCF10922603089540910203262F30E03D
:10055000240F311D21323105DCF420912603243093
:10056000C9F4FC0180E090E0861758F43091020352
:100570002191DC01AE51BD4FA30FB11D2C9301960B
:10058000F3CF80910203680F6093020380E0089527
:1005900081E0089582E00895CF93DF93CB01EA01D3
:1005A000642F0E94A402CE01DF91CF910895CF93D2
:1005B000DF931F92CDB7DEB7698361E0CE0101966C
:1005C0000E94A40281E090E00F90DF91CF91089506
:1005D0001F93CF93DF93EC01162F0A971CF480E34F
:1005E0000E945616BE01DD0F880B990B4AE050E0C1
:1005F0000E945B16111634F4812FDF91CF911F9169
:100600000C945616DF91CF911F910895CF93DF93ED
:10061000EC018D81882379F18C8187FF28C06E855C
:100620007F858889998941E00E946912882319F1A0
:10063000EA8980E2E89FF0011124E158FC4F3097ED
:10064000D1F08D81823040F48B899C89AD89BE893F
:10065000848F958FA68FB78F8F89988DA98DBA8D2E
:10066000938F828FB58BA48B8C818F778C83DF9156
:10067000CF910C942E1280E0DF91CF9108958F924C
:100680009F92AF92BF92CF92DF92EF92FF920F9321
:100690001F93CF93DF93EC018D81811102C080E025
:1006A00078C00B891C892D893E89041715072607F8
:1006B0003707A8F36A017B01823029F4CA86DB86FA
:1006C000EC86FD860DC0C114D104E104F10451F49F
:1006D0001E821F82188619861A861B861C861D8616
:1006E00081E057C08A849B84AC84BD84EB8DFC8DF3
:1006F000258530E0275F3F4FB501A40141505109E6
:1007000061097109022E04C0769567955795479542
:100710000A94D2F7D701C6010197A109B10904C013
:10072000B695A795979587952A95D2F7841795073B
:10073000A607B70720F089288A288B2871F44F89EB
:10074000588D698D7A8D4E835F83688779874C01D8
:100750005D018E010A5F1F4F16C0841B950BA60B0F
:10076000B70BF5CF4E815F816885798598018B8DB8
:100770009C8D0E94531391E0891A9108A108B10839
:10078000882309F48CCF81149104A104B10451F79A
:1007900095CFDF91CF911F910F91FF90EF90DF9058
:1007A000CF90BF90AF909F908F9008958F929F921F
:1007B000AF92BF92CF92DF92EF92FF920F931F936F
:1007C000CF93DF9300D000D0CDB7DEB77C0180E2BD
:1007D000689FF0011124E158FC4F9385917121F03D
:1007E000842F827409F08FC0142FD70152966C9316
:1007F0005297409100015091010160910201709166
:1008000003011E964D935D936D937C93519744899C
:10081000558960E070E0BA0155274427828D938D99
:10082000A0E0B0E0482B592B6A2B7B2BD7015796C1
:100830004D935D936D937C935A978385887159F49A
:10084000848D958DA68DB78DF701838B948BA58BA9
:10085000B68B81E012C0803109F055C097012D5E42
:100860003F4FD7015B968D919C915C970E94D81663
:10087000882309F448C084E0F7018583812F8F70B5
:10088000D70114968C931497F7011682178210865D
:1008900011861A961D921D921D921C921D9716FF8D
:1008A00034C015968C91813071F511FF2CC0F70181
:1008B0004389548965897689452B462B472B09F452
:1008C00061C040E050E0BA01C7010E943F038823A5
:1008D000D1F0F7018788908CA18CB28CC38CD48C1A
:1008E00082E090E0A0E0B0E0F60180839183A283F3
:1008F000B3839E012F5F3F4FB501A401C6010E9443
:100900005313811104C080E03DC081E03BC000E092
:1009100010E09801B501A401C6010E94B21288231B
:1009200091F389809A80AB80BC80D60157968C91D8
:10093000803129F088EF9FEFAFEFBFE004C088EF70
:100940009FEFA0E0B0E088169906AA06BB0688F2E1
:10095000D70157961D921D921D921C925A97F7012E
:10096000138A148A158A168A848180688483C70151
:100970000E940603882339F240E050E0BA01C70123
:100980000E943F030F900F900F900F90DF91CF9137
:100990001F910F91FF90EF90DF90CF90BF90AF909D
:1009A0009F908F900895CF93DF93EC010E940603F0
:1009B000882311F01D8281E0DF91CF9108953F924D
:1009C0004F925F926F927F928F929F92AF92BF925F
:1009D000CF92DF92EF92FF920F931F93CF93DF930B
:1009E000CDB7DEB72C970FB6F894DEBF0FBECDBFE4
:1009F0005C01DC015B968D909C905C971696CD9087
:100A0000DD90ED90FC901997C114D104E104F1043C
:100A100039F0BFEFCB1ADB0AEB0AFB0A312C07C017
:100A2000F401C080D180E280F38033243394F40158
:100A300081859285A385B4859C01AD012F5F3F4FD1
:100A40004F4F5F4F29873A874B875C8726013701D5
:100A50001D821E821F821886F40181859285A385DE
:100A6000B4852D813E814F815885281739074A0763
:100A70005B0708F063C089859A85AB85BC858C15BA
:100A80009D05AE05BF0550F482E0C82ED12CE12CA7
:100A9000F12C92E0492E512C612C712C9E012F5F7C
:100AA0003F4FB701A601C4010E945313882309F4E4
:100AB00045C089819A81AB81BC81892B8A2B8B2B84
:100AC00041F0260137019FEF491A590A690A790A4C
:100AD00005C0C414D504E604F70491F02D813E81CD
:100AE0004F8158852F5F3F4F4F4F5F4F2D833E8380
:100AF0004F8358873FEFC31AD30AE30AF30AACCFF8
:100B00000FEF1FEF2FEF3FE0B301A201C4010E94DE
:100B1000B212882399F0D50116964D915D916D9191
:100B20007C911997411551056105710549F09301B3
:100B30008201C4010E94B212811102C080E02AC069
:100B4000D50116964D925D926D927C921997332045
:100B500051F0D301C2010196A11DB11DF4018083A2
:100B60009183A283B383F5018789908DA18DB28D86
:100B7000892B8A2B8B2B69F4D50157964D925D9268
:100B80006D927C925A9714968C9114978068149663
:100B90008C9381E02C960FB6F894DEBF0FBECDBFCC
:100BA000DF91CF911F910F91FF90EF90DF90CF9049
:100BB000BF90AF909F908F907F906F905F904F907D
:100BC0003F9008958FB7F894809156038FBF089592
:100BD00061E0FC0184810E94151B80915503811105
:100BE0001092550308958EBD00000DB407FEFDCF91
:100BF0008EB508958FEF0C94F3050F931F93CF9349
:100C0000DF93EB010E94FC1B8B010E94FA058F3FD2
:100C100049F00E94FC1B601B710B6C177D07A8F349
:100C200080E001C081E0DF91CF911F910F91089585
:100C3000CF93DF93EC018E81882389F08F81988593
:100C40009C012F5F3F4F38872F838230924018F4EA
:100C50000E94FA05F3CFCE010E94E8051E82DF91C3
:100C6000CF9108958CBD9DBD0895CF93DF93EC0186
:100C700080915503811109C081E0809355038091D3
:100C80006706909168060E94320660E08C81DF91D1
:100C9000CF910C94151B8F929F92AF92BF92FF92AF
:100CA0000F931F93CF93DF93EC01F62E49015A0166
:100CB0000E941806CE010E9435066CE271E0CE015A
:100CC0000E94FD058F2D80640E94F30508E110E06D
:100CD000D501C401002E04C0B695A79597958795B8
:100CE0000A94D2F70E94F30508501109083F8FEFCC
:100CF000180771F7FF2029F088E0F81204C087E890
:100D000003C085E901C08FEF0E94F30510E00E9447
:100D1000FA058A8787FF04C01F3F11F01F5FF7CFD6
:100D2000DF91CF911F910F91FF90BF90AF909F9057
:100D30008F900895AF92BF92CF92DF92EF92FF9281
:100D40000F931F93CF93DF93EC016901C801820FCA
:100D5000931F8130924008F070C08E81882371F01B
:100D600088819981AA81BB8184179507A607B70757
:100D700029F48F819885C816D906B0F54883598320
:100D80006A837B838B85833039F089E0440F551F5C
:100D9000661F771F8A95D1F79A01AB0161E1CE01F9
:100DA0000E944B06882319F083E08D8346C00E9481
:100DB000FC1B5B010E94FA058A878F3F49F40E9461
:100DC000FC1B6A197B096D327140A0F38FE003C0F0
:100DD0008E3F31F08DE08D83CE010E94E8052DC05D
:100DE00018861F8281E08E838F8198858C159D05E2
:100DF00040F40E94FA058F819885019698878F8329
:100E0000F3CF6701E00EF11EEC14FD0431F00E94F7
:100E1000FA05F60181936F01F7CF8F819885080F4E
:100E2000191F18870F838985882319F0011512402F
:100E300048F0CE010E94180605C0CE010E94E805C8
:100E400080E001C081E0DF91CF911F910F91FF9071
:100E5000EF90DF90CF90BF90AF9008954F925F9248
:100E60006F927F92AF92BF92CF92DF92EF92FF92FA
:100E70000F931F93CF93DF931F92CDB7DEB7FC0183
:100E80002581222309F4C1C0848180FFBEC08389EB
:100E90009489A589B68942845384648475848415B1
:100EA0009505A605B70509F4B0C06F015201F1E040
:100EB000BF22D6015B968D919C915C97B301A201F4
:100EC00039E076956795579547953A95D1F7223051
:100ED00071F4FC01828D938DA48DB58D8A019B01E7
:100EE000080F191F2A1F3B1FC901B8014AC0DC01A6
:100EF00014961C9111501423A114B104F9F411118A
:100F00001DC045284628472851F4F6018789908D51
:100F1000A18DB28D86839783A087B1870FC0D6013C
:100F200016964D915D916D917C91199796012A5F6E
:100F30003F4F0E945313882309F467C0F601238DA5
:100F4000348D86819781A085B1850297A109B10969
:100F5000AC01BD01F901058404C0440F551F661F93
:100F6000771F0A94D2F786859785A089B189840F67
:100F7000951FA61FB71FBC01CD01610F711D811DFB
:100F8000911DD60114962C9126FF0DC040900001B2
:100F900050900101609002017090030146165706BF
:100FA0006806790699F440E00E946912882369F185
:100FB000F501E158FC4FDE0111969F012F5F3F4F75
:100FC0002E173F0799F081918D93FACFFE0131964C
:100FD0007F0101E010E09501AB01BC0180917F052C
:100FE000909180050E949A06882379F0F601828507
:100FF0009385A485B5850196A11DB11D8287938730
:10100000A487B587898190E002C08FEF9FEF0F9092
:10101000DF91CF911F910F91FF90EF90DF90CF90D4
:10102000BF90AF907F906F905F904F900895EF9238
:10103000FF920F931F93CF93DF93EC01790141153A
:1010400051056105710511F482E13CC08B85833047
:1010500039F089E0440F551F661F771F8A95D1F735
:101060009A01AB0168E1CE010E944B06882311F082
:1010700084E028C08EEF0E94F30587018EEFF81AF6
:10108000F80181918F010E94F305E016F106C1F786
:101090008FEF0E94F3058FEF0E94F3050E94FA057F
:1010A0008A878F71853031F081E18D83CE010E9476
:1010B000E80509C068E572E0CE010E94FD058111D6
:1010C00007C085E18D83CE010E94E80580E014C051
:1010D00020E030E0A9016DE0CE010E944B068111B5
:1010E00009C00E94FA05811105C0CE010E94E805E1
:1010F00081E002C084E1E6CFDF91CF911F910F9193
:10110000FF90EF9008952F923F924F925F926F92CF
:101110007F928F929F92AF92BF92CF92DF92EF9287
:10112000FF920F931F93CF93DF9300D000D0CDB7E2
:10113000DEB78C015B011A01DC0115968C911597C5
:101140008130C9F414968C9181FF15C082FF1DC0B7
:10115000F801438954896589768982859385A485B8
:10116000B58584179507A607B70779F0C8010E94CF
:101170003F0381110AC081E090E0D80113969C934F
:101180008E93129780E090E036C1610183C05B9638
:101190008D919C915C97FC0174802FEF270D2A01A3
:1011A0003B0139E076946794579447943A95D1F788
:1011B000722E74207A01F1E0FF22772009F476C0C4
:1011C00080E092E08E199F0946018C159D0508F478
:1011D0004C01D8015B962D913C915C9716968D91B0
:1011E0009D910D90BC91A02D0297A109B109F90123
:1011F000058404C0880F991FAA1FBB1F0A94D2F749
:101200004685578560897189840F951FA61FB71F72
:101210009C01AD01270D311D411D511D29013A01D0
:10122000811432E0930609F088C08091000190910A
:101230000101A0910201B0910301481659066A0606
:101240007B0659F48FEF9FEFDC01809300019093B0
:101250000101A0930201B09303019501B301A20122
:1012600080917F05909180050E941708882309F4DA
:1012700082CF9EEFB91AC818D908F80182859385E4
:10128000A485B585880D991DA11DB11D8287938701
:10129000A487B587D8011A964D915D916D917C9187
:1012A0001D97C114D10409F072CF87C0E114F10475
:1012B00009F086CF16964D915D916D917C911997AD
:1012C000411551056105710559F457968D919D9110
:1012D0000D90BC91A02D0097A105B10541F521C04D
:1012E0009E012F5F3F4F0E945313882309F44BCF79
:1012F00089819A81AB81BC81F801238D348DF901FC
:101300002789203129F048EF5FEF6FEF7FE004C0BD
:1013100048EF5FEF60E070E084179507A607B70716
:1013200030F0C8010E94DF0481114ACF24CFF801B8
:1013300086839783A087B18743CFE114F10429F511
:10134000D8011A964D915D916D917C911D975396A0
:101350008D919D910D90BC91A02D481759076A075A
:101360007B0798F00E942E12882309F404CF409244
:10137000000150920101609202017092030180917C
:101380007A03816080937A0308C041E0C301B2010F
:101390000E946912882309F4EECED501F701E158C5
:1013A000FC4F9F01280D391D2E173F0719F08D9115
:1013B0008193FACFA80CB91C5ECFF8018389948978
:1013C000A589B68984179507A607B70738F4438B14
:1013D000548B658B768B848180688483F80184814B
:1013E00083FD02C0C10107C0C8010E940603882313
:1013F00009F4C1CEF7CF0F900F900F900F90DF91AF
:10140000CF911F910F91FF90EF90DF90CF90BF9001
:10141000AF909F908F907F906F905F904F903F9094
:101420002F90089560935B0370935C0380935D033A
:1014300090935E03DC01CB01845D9E4FAF4FBF4FA5
:101440008093570390935803A0935903B0935A0382
:1014500082E090E090936203809361030E94FC1B02
:1014600060935103709352038093530390935403FA
:101470000895CF92DF92EF92FF920F931F930E94F5
:10148000FC1BC0905103D0905203E0905303F090A6
:1014900054038B019C010C191D092E093F098091F1
:1014A0005B0390915C03A0915D03B0915E03083EE5
:1014B000134021053105D0F00196A11DB11D809387
:1014C0005B0390935C03A0935D03B0935E03B7014D
:1014D000A60148515C4F6F4F7F4F4093510350938B
:1014E00052036093530370935403C9CF4091570341
:1014F000509158036091590370915A0384179507CE
:10150000A607B70788F1E0915F03F0916003309779
:1015100059F10995611571058105910519F00E9430
:10152000120A22C080915B0390915C03A0915D033D
:10153000B0915E03845D9E4FAF4FBF4F80935703C2
:1015400090935803A0935903B0935A0381E090E01D
:101550002091610330916203232B11F480E090E02D
:10156000909362038093610360915B0370915C03CD
:1015700080915D0390915E031F910F91FF90EF901A
:10158000DF90CF9008954F925F926F927F928F92EB
:101590009F92AF92BF92CF92DF92EF92FF920F9302
:1015A0001F93CF93DF93FC011681A12FB0E020E8B9
:1015B00033E341EE51E00E94F4264B015C01C2EBA3
:1015C000D7E09D0104E610E080E9E82EFF24F394C3
:1015D000CE01825B974082179307D4F4CE018370CB
:1015E0009927892B99F4CE01B8010E941829892BDB
:1015F00031F4CE01B7010E941829892B39F480E813
:10160000880E81E5981E81E0A81EB11C2196E0CFCE
:101610004580512C2E54384FC90164E670E00E9479
:1016200018297C01C90160E971E00E9418296C0148
:101630000BE011E0C1E0D0E03901A3E06A22772499
:10164000C415D50534F5C230D10589F4611471048F
:1016500071F4E114F10419F4C114D10441F4B0E8B7
:101660008B0EBBE39B1EB6E2AB1EB11C0EC0D801B5
:101670008C91A82FB0E020E831E541E050E00E94D5
:10168000F426860E971EA81EB91E21960F5F1F4FC7
:10169000D7CF4181228130E0A0E1BEE00E946027E7
:1016A0006B017C01242F30E0ACE3B0E00E946027A6
:1016B000DC01CB018C0D9D1DAE1DBF1D20816C0179
:1016C0007D01C20ED11CE11CF11CA481B0E0119778
:1016D00020E831E541E050E00E94FF26DC01CB012B
:1016E0008C0D9D1DAE1DBF1DBC01CD01680D791D6A
:1016F0008A1D9B1DDF91CF911F910F91FF90EF905D
:10170000DF90CF90BF90AF909F908F907F906F9021
:101710005F904F9008956F927F928F929F92AF92B9
:10172000BF92CF92DF92EF92FF920F931F93CF93CE
:10173000DF936B017C01EA018CE3882E912CA12CB4
:10174000B12CC701B601A50194010E943E27688310
:10175000CA01B901A50194010E943E276983C7010E
:10176000B60120E13EE040E050E00E943E27CA0181
:10177000B90128E130E040E050E00E943E276A8352
:10178000C701B60120E831E541E050E00E943E2764
:1017900069017A01CA01B9016C5F7F4F8F4F9F4F7A
:1017A00027E030E040E050E00E943E276F5F6B830F
:1017B000812C912C540140E094E6692E712C00E9B3
:1017C00011E0242F30E02E54384FF901E370FF2749
:1017D000309789F4C901B3010E941829892B31F48B
:1017E000C901B8010E941829892B29F48EE691E0DD
:1017F000A0E0B0E004C08DE691E0A0E0B0E0880E8B
:10180000991EAA1EBB1ED501C401AA27BB27C81654
:10181000D906EA06FB0610F04F5FD3CF4E83309710
:1018200099F4C90164E670E00E941829892B39F403
:10183000C90160E971E00E941829892B29F48EE61C
:1018400091E0A0E0B0E004C08DE691E0A0E0B0E05F
:10185000881A990AAA0ABB0AC818D908EA08FB0814
:10186000C90164E670E00E9418298C01C90160E991
:1018700071E00E941829ABE0B1E020E0213041F492
:10188000309751F40115110529F4009729F402C08D
:101890004C9103C04DE101C04CE150E060E070E0CC
:1018A000C416D506E606F70640F0C41AD50AE60ABD
:1018B000F70A2F5F11962C3009F72F5F2D83C39401
:1018C000CC82DF91CF911F910F91FF90EF90DF902D
:1018D000CF90BF90AF909F908F907F906F90089522
:1018E000CF92DF92EF92FF92C0904D03D0904E03C3
:1018F000E0904F03F0905003C616D706E806F906AD
:1019000071F06B017C0143E653E00E948B0BC092A7
:101910004D03D0924E03E0924F03F0925003FF909C
:10192000EF90DF90CF9008951F920F920FB60F9215
:1019300011242F933F934F935F936F937F938F93D4
:101940009F93AF93BF93EF93FF938091B900887FEC
:10195000803609F49CC068F5883209F45BC090F4C5
:10196000803109F454C038F4882309F4F2C0883077
:1019700009F44DC0F2C0883109F44CC0803209F43A
:101980005DC0EBC0803409F468C048F4803309F4CA
:1019900055C0883309F0E1C080932503D4C0803559
:1019A00009F44FC0883509F45DC0883409F0D5C00A
:1019B000D2C0883909F4C3C0A8F4883709F467C0D5
:1019C00038F4883609F463C0803709F460C0C5C0B4
:1019D000883809F4B4C0803909F45FC0803809F050
:1019E000BCC05BC0803B09F484C038F4803A09F481
:1019F00066C0883A09F47DC0B0C0803C09F4A3C039
:101A0000883C09F4A0C0883B09F486C0A6C0809138
:101A10004B0310C090914A0380914903981770F5C9
:101A2000E0914A0381E08E0F80934A03F0E0E75D86
:101A3000FC4F80818093BB0085EC82C0809325039E
:101A40008AC0E0914A0381E08E0F80934A0380911F
:101A5000BB00F0E0E75DFC4F808390914A038091EA
:101A600049036AC0E0914A0381E08E0F80934A03E4
:101A70008091BB00F0E0E75DFC4F808380912803FC
:101A8000811169C081E08093270384EA5DC083E00F
:101A90008093260310922403CFCF809124038032B9
:101AA00008F04DC0E091240381E08E0F8093240361
:101AB0008091BB00F0E0EC5FFC4F8083BDCF85ECF4
:101AC0008093BC001092260380912403803230F46E
:101AD000E0912403F0E0EC5FFC4F1082609124035E
:101AE00070E084E093E0E0E0F0E0099510922403D8
:101AF00034C084E080932603109203031092020303
:101B0000E0E0F0E0099580910203811105C081E0D9
:101B1000809302031092E202E091030381E08E0FB2
:101B200080930303F0E0EE51FD4F80818093BB0072
:101B30009091030380910203981708F47DCF85E804
:101B40008093BC000AC085EC8093BC0010922603F1
:101B500004C0109225030E949A02FF91EF91BF9159
:101B6000AF919F918F917F916F915F914F913F9135
:101B70002F910F900FBE0F901F9018958F929F92EC
:101B8000AF92BF92CF92DF92EF92FF924B015C0136
:101B90000E94700C8091670360E090E00E94E80270
:101BA000C501B4010E94700CC0906903D12C8EE471
:101BB000C81A88EFD80A0D2C000CEE08FF08C501E2
:101BC000B4010E94700C2091680383E0289F90016B
:101BD0001124A8EDB2E080E090E0F901E80FF91FD0
:101BE000E454FE4FE491ED93019683309105A9F7FB
:101BF0001092DB0268ED72E081E895E00E94E10F4F
:101C00004AE050E0C701B6010E945B1680E20E94E4
:101C10005616C501B4010E94700C809165036AE3F9
:101C200090E00E94E802C501B4010E94700C80910E
:101C300064036AE390E00E94E802C501B4010E94D7
:101C4000700C8091630360E290E00E94E80281E8FA
:101C500095E0FF90EF90DF90CF90BF90AF909F9076
:101C60008F900C94F60FCF92DF92EF92FF920F932A
:101C70001F93CF93DF936C017A018B01C0E0D0E01A
:101C8000CE15DF0581F0D8016D918D01D601ED9162
:101C9000FC910190F081E02DC6010995892B11F08E
:101CA0002196EECF7E01C701DF91CF911F910F9159
:101CB000FF90EF90DF90CF900895FC01538D448DFD
:101CC000252F30E0842F90E0821B930B541710F0E7
:101CD000CF96089501970895FC01918D828D9817F4
:101CE00061F0828DDF01A80FB11D5D968C91928D00
:101CF0009F5F9F73928F90E008958FEF9FEF0895FD
:101D0000FC01918D828D981731F0828DE80FF11DC5
:101D1000858D90E008958FEF9FEF0895FC01918DE0
:101D2000228D892F90E0805C9F4F821B91098F73D9
:101D30009927089581E895E00E948E0E21E0892B75
:101D400009F420E0822F0895FC01848DDF01A80FA3
:101D5000B11DA35ABF4F2C91848D90E001968F73D3
:101D60009927848FA689B7892C93A089B1898C91F2
:101D7000837080648C93938D848D981306C0028841
:101D8000F389E02D80818F7D80830895EF92FF920B
:101D90000F931F93CF93DF93EC0181E0888F9B8D8E
:101DA0008C8D981305C0E889F989808185FD26C04E
:101DB000F62E0B8D10E00F5F1F4F0F731127E02ED3
:101DC0008C8DE8120CC00FB607FCFACFE889F989B0
:101DD000808185FFF5CFCE010E94A40EF1CF8B8DBF
:101DE000FE01E80FF11DE35AFF4FF0829FB7F89410
:101DF0000B8FEA89FB89808180620AC09FB7F894C3
:101E0000EE89FF896083E889F98980818370806425
:101E100080839FBF81E090E0DF91CF911F910F9170
:101E2000FF90EF900895CF93DF93EC01888D882386
:101E3000C9F0EA89FB89808185FD05C0A889B98937
:101E40008C9186FD0FC00FB607FCF5CF808185FF12
:101E5000F2CFA889B9898C9185FFEDCFCE010E9480
:101E6000A40EE7CFDF91CF91089580E090E0892B19
:101E700029F00E949A0E81110C9400000895DC0153
:101E80005996ED91FC915A973097B9F083899489CE
:101E9000A589B6894285538564857585841B950B14
:101EA000A60BB70B811520E89207A105B10538F004
:101EB0008FEF9FE7A0E0B0E0089580E090E0089504
:101EC000CF93DF931F92CDB7DEB76983DC01ED912D
:101ED000FC910280F381E02D41E050E0BE016F5F94
:101EE0007F4F09950F90DF91CF9108950E94672A47
:101EF000FC01818D928D009711F00C9406030895DA
:101F0000FC01818D928D009711F00C942E078FEFBC
:101F10009FEF08950F931F93CF93DF93FC01818D63
:101F2000928D0097B9F0EF010E942E078C010F3FB0
:101F30008FEF180791F0898D9A8DFC0142855385AA
:101F40006485758541505109610971090E943F03FB
:101F5000C80105C080E090E002C08FEF9FEFDF91E5
:101F6000CF911F910F910895CF93DF93EC01898D4D
:101F70009A8D009739F481E090E09B838A8380E01A
:101F800090E00BC0FC01138212820E948308E98D4D
:101F9000FA8D22813381232B71F7DF91CF91089540
:101FA000CF93DF931F92CDB7DEB7698341E050E056
:101FB000BE016F5F7F4F0E9483080F90DF91CF912A
:101FC00008956115710579F0FB0101900020E9F792
:101FD0003197AF01461B570BDC01ED91FC9102805C
:101FE000F381E02D099480E090E0089566EC72E0C2
:101FF0000C94E10F0F931F93CF93DF93EC010E949A
:10200000E10F8C01CE010E94F60F800F911FDF912E
:10201000CF911F910F9108951F920F920FB60F92BB
:1020200011242F933F934F935F936F937F938F93DD
:102030009F93AF93BF93EF93FF9381E895E00E9446
:10204000A40EFF91EF91BF91AF919F918F917F91DE
:102050006F915F914F913F912F910F900FBE0F9015
:102060001F9018951F920F920FB60F9211242F9365
:102070008F939F93EF93FF93E0919105F0919205D9
:102080008081E0919705F091980582FD12C09081C2
:1020900080919A058F5F8F7320919B05821751F075
:1020A000E0919A05F0E0EF57FA4F958F80939A05EB
:1020B00001C08081FF91EF919F918F912F910F909F
:1020C0000FBE0F901F9018950F931F93CF93DF9320
:1020D000C0E0D0E0082F10E0B8010C2E02C07595CA
:1020E00067950A94E2F7617080916A060E94151B59
:1020F00061E0809169060E94151B60E0809169068D
:102100000E94151B2196C830D10531F7DF91CF9180
:102110001F910F910895BF92CF92DF92EF92FF929D
:102120000F931F93CF93DF9360E080916A060E9424
:10213000441BC0E0D0E010E0C12CD12C7601C39448
:1021400020916A0630E0F901EA55FB4F8491F901CC
:10215000EE56FB4F0491F901E258FB4FB490BB20BF
:1021600099F181110E94EC1AEB2DF0E0EE0FFF1FA8
:10217000E05AFB4FA591B491EC910E2329F1D701C0
:10218000C6010C2E04C0880F991FAA1FBB1F0A94FA
:10219000D2F7182B61E0809169060E94151B60E060
:1021A000809169060E94151B2196C830D10509F05F
:1021B000C7CF812FDF91CF911F910F91FF90EF90AB
:1021C000DF90CF90BF900895D701C6010C2E04C0B8
:1021D000880F991FAA1FBB1F0A94D2F78095182356
:1021E000D9CF60E080916B060E94151B8BE090E0D8
:1021F0000197F1F7089560E080916B060E94151B2E
:1022000061E080916B060E94441B60E0809169064A
:102210000E94151B61E0809169060E94441B61E0E9
:1022200080916A060E94441B61E080916B060E94C7
:10223000151B8BE090E00197F1F70895EF92FF9264
:102240000F931F93CF93DF93CDB7DEB72F970FB6C2
:10225000F894DEBF0FBECDBF0E94FB108FEB0E9433
:102260006410CE0101967C018E01075F1F4F0E9412
:102270008B10F70181937F010E171F07C1F70E9492
:10228000F1108981682F6695669566956E70962F18
:10229000990F990F690F8F70680F69878A81482F8E
:1022A0004695469546954E70942F990F990F490F74
:1022B0008F70480F4A878B81382F36953695369523
:1022C0003670932F990F990F390F8F70380F3B8706
:1022D0008C81282F2695269526952670922F990F6A
:1022E000990F290F8F70280F2D878D8184FB9927D7
:1022F00090F9990F592F550F550F950F8F70980F13
:102300009E875E8157705C878F81782F72957F7072
:102310008F70825EFAE07F9F800D11248F876C336F
:1023200098F44C3388F4383178F421502F3160F42C
:1023300091509C3048F45150573030F4843620F49A
:10234000C8010E94C30A03C060E070E0CB012F9671
:102350000FB6F894DEBF0FBECDBFDF91CF911F91B6
:102360000F91FF90EF900895CF930E94FB108FE89C
:102370000E9464100E948B10C82F0E94F1108C2FB5
:102380008095881F8827881FCF9108951F920F92EC
:102390000FB60F9211248F930FB6F894A8958091E1
:1023A0006000886180936000109260000FBE8F9182
:1023B0000F900FBE0F901F901895FC01DB01129635
:1023C0008D919C911397938382838FE391E0918306
:1023D000808314968C911497848315968C9115970D
:1023E000858316964D915D916D917C9119974683E9
:1023F0005783608771871A964D915D916D917C919D
:102400001D9742875387648775871E964D915D910E
:102410006D917C91519746875787608B718B52964F
:102420008C915297828B53964D915D916D917C91D9
:102430005697438B548B658B768B57964D915D9158
:102440006D917C915A97478B508F618F728F5B96FD
:102450008D919C915C97948F838F089580917A03DE
:102460008823A9F14091000150910101609102017E
:10247000709103012FE733E080917F0590918005F3
:102480000E941708811102C080E0089540917B03EB
:1024900050917C0360917D0370917E03411551053D
:1024A0006105710591F02FE733E080917F059091F0
:1024B00080050E941708882339F310927B0310923D
:1024C0007C0310927D0310927E0310927A0381E0C8
:1024D00008958F929F92AF92BF92EF92FF920F93C7
:1024E0001F93CF934B015C01C42F80910001909109
:1024F0000101A0910201B091030188159905AA0577
:10250000BB0501F10E942E12811102C080E020C0A3
:102510008FE7E82E83E0F82E00E012E020E030E0C4
:10252000B501A40180917F05909180050E949A06D3
:10253000882361F38092000190920101A092020130
:10254000B092030180917A03C82BC0937A0381E093
:10255000CF911F910F91FF90EF90BF90AF909F9000
:102560008F9008954F925F926F927F928F929F9279
:10257000AF92BF92CF92DF92EF92FF920F931F9391
:10258000CF93DF93EC01423051056105710510F4E2
:1025900080E078C089859A85AB85BC850196A11DB0
:1025A000B11D84179507A607B70790F3CB88DC8881
:1025B000ED88FE888F89803129F4BB27A72F962FBD
:1025C000852F09C0DB01CA01E7E0B695A79597956D
:1025D0008795EA95D1F7480159012A013B01C80EB8
:1025E000D91EEA1EFB1E8091000190910101A0916D
:1025F0000201B0910301C816D906EA06FB0681F470
:102600008F898031A9F4B301A20155276627772766
:10261000440F551FFA01E158FC4F9182808219C086
:1026200040E0C701B6010E9469128111E9CFB0CF25
:10263000B301A2014F77552766277727440F551F0F
:10264000440F551FFA01E158FC4F80829182A2820B
:10265000B38280917A03816080937A038A89823081
:1026600080F08D819E81AF81B885C80ED91EEA1E8B
:10267000FB1EC0927B03D0927C03E0927D03F0921C
:102680007E0381E0DF91CF911F910F91FF90EF903A
:10269000DF90CF90BF90AF909F908F907F906F9082
:1026A0005F904F9008958F929F92AF92BF92CF927A
:1026B000DF92EF92FF920F931F93CF93DF93FC0172
:1026C00081859285A385B4850196A11DB11D8417CE
:1026D0009507A607B70710F480E05BC0838894884D
:1026E000A588B6888789803129F4BB27A72F962F24
:1026F000852F09C0DB01CA01C7E0B695A79597955C
:102700008795CA95D1F7E9016A017B018F01BC0168
:10271000CD01680D791D8A1D9B1D80900001909050
:102720000101A0900201B0900301681579058A05A6
:102730009B0591F4F80187898031A1F4DD24EE2412
:10274000FF24C601880F991FFC01E158FC4F8081CE
:102750009181A0E0B0E018C040E00E9469128111B0
:10276000E9CFBACFE894C7F8DD24EE24FF24C601F0
:10277000880F991F880F991FFC01E158FC4F808139
:102780009181A281B381BF7088839983AA83BB831F
:1027900081E0DF91CF911F910F91FF90EF90DF903B
:1027A000CF90BF90AF909F908F9008952F923F92BF
:1027B0004F925F926F927F928F929F92AF92BF9251
:1027C000CF92DF92EF92FF920F931F93CF93DF93FD
:1027D000CDB7DEB72B970FB6F894DEBF0FBECDBFD7
:1027E0007C01FE013196CE010C966F0130E23193EF
:1027F000E817F907E1F7DA0130E087E09D919923C6
:1028000031F19E3231F48A3009F46BC138E08AE04C
:10281000F5CFE0E5F4E04491442321F031969413A0
:10282000FACF5FC1831708F45CC14FED490F4E35F5
:1028300008F057C141E0430FF601E30FF11D3FE9F6
:10284000390F3A3108F490529083342FD7CF8981D1
:10285000803209F446C1322E8B01DB015B968D91EB
:102860009C915C97F701948F838F16961D921D9211
:102870001D921C921997FB011286138614861586E9
:10288000B12CF80182859385A485B5854389548947
:102890006589768984179507A607B70708F05BC096
:1028A00025E0B695A795979587952A95D1F7F82FA6
:1028B000FF70AF2ED80115968C91823008F411C1AB
:1028C000C8010E942E0797FD0CC1F80182859385EF
:1028D000A485B5854F96A11DB11D82879387A487D6
:1028E000B587F0E2AF9EB001112461587C4F6115AD
:1028F000710509F4F6C0DB018C91882319F0853E3F
:10290000C1F4F1C0B1100EC0F701A28A809100019C
:1029100090910101A0910201B091030186879787F0
:10292000A08BB18BDB018C91882399F0BB24B394ED
:10293000A8CF4BE050E0C6010E946C2A892B09F019
:10294000A0CF832D8073803309F4CBC0432D6A2D33
:10295000C4C0BB24B394832D8271823109F0C1C0FD
:10296000BB20C1F0F701668577858089918941E0B8
:102970000E946912882309F4B4C0D70152968C9141
:10298000B0E28B9FC001112481589C4F009709F041
:1029900078C0A7C0F8018581823009F4A2C0C801BF
:1029A0000E94DF04882309F49CC0D8015B96ED9156
:1029B000FC915C9716968D909D90AD90BC90199768
:1029C000B2E08B1A9108A108B108058404C0880CF4
:1029D000991CAA1CBB1C0A94D2F786859785A089EE
:1029E000B189880E991EAA1EBB1E2480E1E08E1AB2
:1029F0009108A108B108222009F124013501420CF7
:102A0000511C611C711C0E942E12882309F469C09C
:102A1000EFE7F3E0119225E0EF37F207D9F74092A4
:102A200000015092010160920201709203018091B5
:102A30007A03816080937A032A94DDCFD8015B9674
:102A4000ED91FC915C9780E092E0A0E0B0E005841D
:102A500004C0880F991FAA1FBB1F0A94D2F7F80160
:102A60004389548965897689840F951FA61FB71FEE
:102A7000838B948BA58BB68BD70152961C928FE7D4
:102A800093E020E2FC0111922A95E9F72BE0F60190
:102A9000DC0101900D922A95E1F721E238E2DC0198
:102AA00051963C932E93509740E058E01F965C93CC
:102AB0004E931E9753963C932E93529759963C9360
:102AC0002E93589757965C934E9356970E942E12CA
:102AD000882339F0432DF7016289C7010E94D6038C
:102AE00005C080E003C0B11021CF0ECF2B960FB6EA
:102AF000F894DEBF0FBECDBFDF91CF911F910F9134
:102B0000FF90EF90DF90CF90BF90AF909F908F900D
:102B10007F906F905F904F903F902F9008958F928D
:102B20009F92AF92BF920F931F93CF93DF93CDB736
:102B3000DEB7A1970FB6F894DEBF0FBECDBF19A2C6
:102B4000423008F44AE08E010F5D1F4F842E912C15
:102B5000A12CB12CA50194010E943E27E62FB901BA
:102B6000CA0101501109EA3014F4E05D01C0E95CCA
:102B7000D801EC93232B242B252B61F7B80181E896
:102B800095E00E94E10FA1960FB6F894DEBF0FBE4C
:102B9000CDBFDF91CF911F910F91BF90AF909F90CC
:102BA0008F900895EF92FF920F931F93CF93DF932F
:102BB000EC017B018A011B821A8288EE93E0A0E07F
:102BC000B0E08C839D83AE83BF838BE191E09983DA
:102BD00088838DE190E00E9446299A8F898F009723
:102BE00079F02DE1F701DC0101900D922A95E1F7D2
:102BF0004CE050E0B801CE010C960E948F2A188E4E
:102C0000DF91CF911F910F91FF90EF9008950F9357
:102C10001F930E94FC1B6093890570938A05809323
:102C20008B0590938C0581E895E00E94800E97FFBC
:102C30001FC00E94FC1B0091890510918A052091FC
:102C40008B0530918C05DC01CB01801B910BA20B15
:102C5000B30B009185051091860520918705309171
:102C6000880580179107A207B307E8F28FEF9FEF5F
:102C70001F910F9108950F931F93CF93DF938C01B2
:102C8000C0E0D0E0F801EC0FFD1F6491662341F035
:102C900081E895E00E94C60E892B11F02196F2CFB3
:102CA000CE01DF91CF911F910F910895682F81E898
:102CB00095E00C94C60ECF92DF92EF92FF92CF93E5
:102CC000DF934115510551F481E895E0DF91CF91F3
:102CD000FF90EF90DF90CF900C94C60E4A305105D4
:102CE000E1F497FF19C06B017C018DE20E9456163A
:102CF000EC0166277727CB016C197D098E099F09A6
:102D00004AE00E948F158C0F9D1FDF91CF91FF909D
:102D1000EF90DF90CF9008954AE0DF91CF91FF9040
:102D2000EF90DF90CF900C948F15CF93DF93FB0142
:102D300022813381DC0113963C932E9312974481B8
:102D400055816681778114964D935D936D937C9345
:102D50001797408551856285738518964D935D93CD
:102D60006D937C931B971C96EF012C969C01275E1C
:102D70003F4F49914D93A217B307D9F7218D328D5B
:102D8000FC01328F218FDF91CF910895CF93DF9394
:102D9000EC01898D9A8D009741F00E94D304898DB2
:102DA0009A8D0E94DE291A8E198EDF91CF91089597
:102DB0004F925F926F927F92AF92BF92CF92DF92CB
:102DC000EF92FF920F931F93CF93DF9300D000D029
:102DD000CDB7DEB78C0149835A836B837C8359015D
:102DE000C12CD12C7601412C82E0582E612C712C03
:102DF00049815A816B817C819E012F5F3F4FC801C1
:102E00000E945313882351F1D301C201F8010584B4
:102E100004C0880F991FAA1FBB1F0A94D2F7C80EBF
:102E2000D91EEA1EFB1E49815A816B817C818789EC
:102E3000803129F088EF9FEFAFEFBFE004C088EF4B
:102E40009FEFA0E0B0E0481759076A077B0780F2C0
:102E5000F501C082D182E282F38281E00F900F906F
:102E60000F900F90DF91CF911F910F91FF90EF90F6
:102E7000DF90CF90BF90AF907F906F905F904F901A
:102E80000895CF93DF93FC012581222311F080E088
:102E900049C0EC01809141068031C1F482E0858314
:102EA000178A108E118E128E8091420690914306E1
:102EB000A0E0B0E025E0880F991FAA1FBB1F2A954C
:102EC000D1F7838B948BA58BB68B19C08032F9F622
:102ED00083E0858340914406509145066091460603
:102EE00070914706478B508F618F728F9F012D5EC7
:102EF0003F4F8AE296E00E94D816882341F28AE288
:102F000096E09C8F8B8F81E08C831E821F821886B7
:102F100019861A861B861C861D861E861F86188AA1
:102F2000198A1A8ADF91CF9108952F923F924F927A
:102F30005F926F927F928F929F92AF92BF92CF9249
:102F4000DF92EF92FF920F931F93CF93DF93CDB752
:102F5000DEB7C556D1090FB6F894DEBF0FBECDBFA0
:102F60007C015B01A6964FAFA69719A218A28FE32A
:102F700091E09F8F8E8F1BA21C821B829A83898374
:102F80001E826E018EE1C80ED11CC6010E9441173F
:102F90008501FE0131964F0136012F016FE270E08D
:102FA000C8010E94842A009709F443C0F8012081D7
:102FB0002F3219F40F5F1F4FF1CF801B8D3008F0B7
:102FC0008CE0282E312CA101B801CE01885A9F4FE8
:102FD0000E948F2AE8E5F0E0EC0FFD1FE20DF31DE3
:102FE0001082C4010E94D304F4018581882361F01A
:102FF0001EAE1DAE8FE391E09CAF8BAF21961FAE4E
:10300000219700E010E01CC021E0AE01485A5F4F5C
:10301000B301C4010E94D613882351F3020D131D7E
:10302000C3010E94D304962D872D3401892E982E3A
:10303000B5CF0A191B09B301CE01CB960E94DD1151
:103040000A0D1B1DF8018081811109C0BE01655C5C
:103050007F4FC2010E94DD1149EC52E041C019A22C
:1030600018A28FE391E09F8F8E8F1BA221968FADC8
:103070002197811113C0F7011382128288EE93E029
:10308000A0E0B0E084839583A683B7838BE191E0D1
:1030900091838083128E118E148626C0A6962FAD42
:1030A000A697A801BE01655C7F4FC6010E94D6139A
:1030B000882309F3CE01CB960E94D304A6968FAD48
:1030C000A6978670863039F449A95AA96BA97CA9BC
:1030D000C6010E943F03B601C2010E94DD11A80192
:1030E000B201C7010E94D215C701CB59DF4F0FB6FD
:1030F000F894DEBF0FBECDBFDF91CF911F910F912E
:10310000FF90EF90DF90CF90BF90AF909F908F9007
:103110007F906F905F904F903F902F9008958F9287
:103120009F92AF92BF92CF92DF92EF92FF920F9356
:103130001F93CF93DF936B017C01142F9B01AC0194
:103140000E94D228882319F06BEC72E027C0460158
:103150005701E894B7F82FEF3FEF4FE75FE7C5015E
:10316000B4010E94D22881110DC02FEF3FEF4FE72D
:103170005FE7C501B4010E94B12518161CF46FEC7D
:1031800072E00CC02FEF3FEF4FE75FE4C701B601DD
:103190000E947D28181694F463ED72E081E895E0B2
:1031A000DF91CF911F910F91FF90EF90DF90CF9023
:1031B000BF90AF909F908F900C94E10F2FEF3FEF57
:1031C0004FE75FECC701B6010E94B12587FDE4CF50
:1031D00020E030E0A901C701B6010E94B12587FFB8
:1031E00009C08DE20E945616EC01F7FAF094F7F848
:1031F000F09402C0C0E0D0E000E060E070E080E069
:103200009FE3101741F020E030E040E251E40E94DB
:10321000DC270F5FF6CFA70196010E9470276B0194
:103220007C010E944E284B015C014AE00E948F15F0
:10323000C80FD91F1123A9F1C501B4010E94B625F9
:103240009B01AC01C701B6010E946F276B017C0195
:103250008EE20E945616C80FD91F20E030E040E2EF
:1032600051E4C701B6010E9417264B015C010E9480
:103270004E286B01E12CF12C4AE0C701B6010E94F7
:103280008F15C80FD91FC701B6010E94B6259B0133
:10329000AC01C501B4010E946F276B017C01115084
:1032A000E1F6CE01DF91CF911F910F91FF90EF904A
:1032B000DF90CF90BF90AF909F908F900895CF9266
:1032C000DF92EF92FF92CF930E940716FC0197FDC9
:1032D0000BC08D32910561F0C0970A9748F081E8E4
:1032E00095E00E946C0EF0CF60E070E0CB0140C032
:1032F000C12CD12C7601C0E0E130F10501F1ED32B5
:10330000F105E1F0CF01C0970A97C8F4AAE0B0E058
:10331000A70196010E94F4266F01FF0FEE08FF0837
:10332000DC01CB018C0D9D1DAE1DBF1D6C017D010F
:1033300020E3C21AD108E108F10801C0C1E081E828
:1033400095E00E946C0E0E940716FC01C0970A9738
:1033500098F2E130F10581F2CC2341F0662777271E
:10336000CB016C197D098E099F0902C0C701B60106
:10337000CF91FF90EF90DF90CF9008958F929F9222
:10338000AF92BF92CF92DF92EF92FF92CF93DF93F3
:10339000C82F8EE196E09093800580937F05CC2323
:1033A00069F1C53010F080E00CC140E060E070E0F1
:1033B000CB010E9469128823B1F320E1C29FC001B2
:1033C000112481599C4FFC01E254FE4F20812F773C
:1033D00051F73C9640815181628173814436510599
:1033E0006105710500F33497C080D180E280F380DD
:1033F000C114D104E104F10421F4D5CFC12CD12CA6
:10340000760140E0C701B6010E946912882359F293
:1034100080918A0390918B038115924021F6A091AF
:103420008F03AA2309F4BFCF60918D0370918E039F
:103430006115710509F4B7CF20918C03222309F49B
:10344000B2CFA0933C0620932E0680E030E041E00E
:1034500050E0C82FFA01082E02C0EE0FFF1F0A9499
:10346000E2F72E173F0739F08F5FC83091F789E0F8
:103470008093370698CF809337062091950330913B
:1034800096032115310519F040E050E008C0209165
:10349000A3033091A4034091A5035091A603209368
:1034A0002F06309330064093310650933206460182
:1034B0005701860E971EA11CB11C80923D0690926A
:1034C0003E06A0923F06B0924006E0919003F09134
:1034D0009103F0934306E0934206B0E00E94F42685
:1034E000860E971EA81EB91E80924406909245062D
:1034F000A0924606B092470685E0EE0FFF1F8A9520
:10350000E1F7E150FE4FEF2FFF27E6958E0E9F1E4D
:10351000A11CB11C8092380690923906A0923A06FE
:10352000B0923B062091920330919303211531050F
:1035300021F0A90160E070E008C040919F03509124
:10354000A0036091A1037091A203D701C60188195D
:103550009909AA09BB09840F951FA61FB71F04C0AC
:10356000B695A79597958795CA95D2F78093330618
:1035700090933406A0933506B0933606853F2FE02E
:103580009207A105B10510F48CE018C0853F9F4F4C
:10359000A105B10510F480E111C08091AB039091B9
:1035A000AC03A091AD03B091AE0380934406909319
:1035B0004506A0934606B093470680E280934106F5
:1035C00081E0DF91CF91FF90EF90DF90CF90BF909F
:1035D000AF909F908F900895833081F028F48130D0
:1035E00099F08230A1F008958730A9F08830B9F0C1
:1035F0008430D1F4809180008F7D03C08091800061
:103600008F7780938000089584B58F7702C084B54A
:103610008F7D84BD08958091B0008F7703C0809125
:10362000B0008F7D8093B00008951F93CF93DF93F8
:10363000282F30E0F901EA55FB4F8491F901EE564D
:10364000FB4FD491F901E258FB4FC491CC23C1F058
:10365000162F81110E94EC1AEC2FF0E0EE0FFF1FE5
:10366000EC58FB4FA591B4919FB7F894111104C089
:103670008C91D095D82302C0EC91DE2BDC939FBFB8
:10368000DF91CF911F910895CF93DF9390E0FC01DC
:10369000EE56FB4F2491FC01E258FB4F84918823A6
:1036A00061F190E0880F991FFC01E659FB4FC5912D
:1036B000D491FC01EC58FB4FA591B491611109C064
:1036C0009FB7F8948881209582238883EC912E23DC
:1036D0000BC0623061F49FB7F8948881322F309527
:1036E00083238883EC912E2B2C939FBF06C08FB72A
:1036F000F894E8812E2B28838FBFDF91CF91089516
:103700008E3008F08E502091040190E4299F9001A2
:1037100011248770822B80937C0080917A008064D2
:1037200080937A0080917A0086FDFCCF80917800AA
:103730002091790090E0922B08958F929F92AF9202
:10374000BF92CF92DF92EF92FF926B017C010E94B9
:10375000D71B4B015C01C114D104E104F104F1F069
:103760000E94D71BDC01CB0188199909AA09BB0962
:10377000883E9340A105B10570F321E0C21AD1083B
:10378000E108F10888EE880E83E0981EA11CB11CA8
:10379000C114D104E104F10419F7DDCFFF90EF90DB
:1037A000DF90CF90BF90AF909F908F9008953FB7DC
:1037B000F89480917E0690917F06A0918006B0914A
:1037C000810626B5A89B05C02F3F19F00196A11DC3
:1037D000B11D3FBFBA2FA92F982F8827820F911DA7
:1037E000A11DB11DBC01CD0142E0660F771F881FEE
:1037F000991F4A95D1F708952FB7F89460917A06EA
:1038000070917B0680917C0690917D062FBF089574
:103810001F920F920FB60F9211242F933F938F9305
:103820009F93AF93BF9380917A0690917B06A0916E
:103830007C06B0917D063091790623E0230F2D3769
:1038400020F40196A11DB11D05C026E8230F0296A4
:10385000A11DB11D2093790680937A0690937B0673
:10386000A0937C06B0937D0680917E0690917F06A2
:10387000A0918006B09181060196A11DB11D809393
:103880007E0690937F06A0938006B0938106BF9139
:10389000AF919F918F913F912F910F900FBE0F90FD
:1038A0001F901895CF93DF93CDB7DEB7C159D109DB
:1038B0000FB6F894DEBF0FBECDBF789484B582609A
:1038C00084BD84B5816084BD85B5826085BD85B5C4
:1038D000816085BD80916E00816080936E00109242
:1038E00081008091810082608093810080918100BD
:1038F000816080938100809180008160809380004E
:103900008091B10084608093B1008091B0008160AB
:103910008093B00080917A00846080937A008091D7
:103920007A00826080937A0080917A00816080932F
:103930007A0080917A00806880937A001092C100AA
:1039400010920401E0919105F091920582E080834C
:10395000E0918D05F0918E051082E0918F05F09138
:1039600090058FEC808310929905E0919505F09178
:10397000960586E08083E0919305F091940580811F
:1039800080618083E0919305F09194058081886047
:103990008083E0919305F091940580818068808315
:1039A000E0919305F091940580818F7D808360E0A4
:1039B0008DE00E94151B60E088E00E94151B60E00E
:1039C00081E10E94151B61E081E10E94441B8EE1B0
:1039D00091E19093600380935F0380915B039091EA
:1039E0005C03A0915D03B0915E03809357039093B5
:1039F0005803A0935903B0935A030E94390A65E60D
:103A000071E081E895E00E94FA0F69E771E081E8D2
:103A100095E00E94FA0F60E086E00E94151B61E0CD
:103A200086E00E94441B61E087E00E94151B61E074
:103A300087E00E94441B6DE871E081E895E00E94F8
:103A4000FA0F81E895E00E94F60F64EF71E080E0E4
:103A500090E00E949D1B0E94FB1081E80E94641070
:103A60000E948B10182F0E94F11017FF0AC062EA03
:103A700071E081E895E00E94FA0F81E895E00E94EC
:103A8000F60F0E94B41181110AC069EB71E081E860
:103A900095E00E94FA0F81E895E00E94F60F68E831
:103AA00073E180E090E00E949D1B0E941E116B015B
:103AB0007C010E94700C8091690390E0C097ECF447
:103AC0008EE792E00E943B1681E895E00E94F60F97
:103AD000E12C7AE0F72EE0E8DE2E8E01075F1F4F23
:103AE0000E94390A8091610390916203029789F0E4
:103AF0002AE02E1508F071C40CC085E692E00E9401
:103B00003B1681E895E00E94F60FC701B6010E94BE
:103B1000BE0D68EE71E081E895E00E94FA0F69E75A
:103B200071E081E895E00E94FA0F61E089E00E946F
:103B3000441B60E089E00E94151B80914D0688239C
:103B400021F088E496E00E94D30410922906109296
:103B5000270610922406109223068AE080932206FC
:103B60000E94FC1B8B0161E0809122060E94441B95
:103B700061E0809122060E94151BFFB6F8948091A7
:103B80006E03811127C0E8E8F4E08491ECE9F4E0E9
:103B90009491E82FF0E0EE0FFF1FE659FB4FA5913F
:103BA000B491EC91E92321F461E08AE00E94151BB5
:103BB00061E08AE00E94441B8CB580618CBD8CB5AD
:103BC00080648CBD61E08DE00E94441B61E08BE06D
:103BD0000E94441B80916E038F5F80936E03FFBE33
:103BE00082E580936706109268068091670690913F
:103BF00068060E9432065AE0F52E8FEF0E94F30508
:103C0000FA94F110FACF8EE196E00E94350620E09A
:103C100030E0A90160E08EE196E00E944B06F82EAC
:103C20008093280641E0841749F00E94FC1B601B2A
:103C3000710B613D774058F381E056C02AEA31E0CC
:103C400040E050E068E08EE196E00E944B0682FF83
:103C500003C0F092290610C044E0F42E0E94FA0539
:103C600080932806FA94F110F9CF8A3A11F082E095
:103C70003BC082E08093290680912906823021F0A2
:103C8000C12CD12C760105C0C12CD12CE12C30E403
:103C9000F32E20E030E0A90167E38EE196E00E9478
:103CA0004B06A701960169E28EE196E00E944B0661
:103CB00080932806882349F00E94FC1B601B710B2F
:103CC000613D774030F388E00FC080912906823053
:103CD00001F520E030E0A9016AE38EE196E00E9460
:103CE0004B06882341F086E0809323068EE196E020
:103CF0000E94E80528C00E94FA05807C803C19F4E7
:103D000083E0809329060E94FA050E94FA050E942A
:103D1000FA058EE196E00E94E80580E5809367064B
:103D20001092680681E00E94BE19882339F088E469
:103D300096E00E944117882331F008C080E00E947D
:103D4000BE198111F4CF6BEF71E028C041E064E34C
:103D500072E0CE0101960E949517EA8DFB8D309797
:103D600019F08581811109C08CE992E00E943B160F
:103D700081E895E00E94F60F0BC0CE0101960E94EB
:103D80003F0F892B29F0CE0101960E94800FF5CFBD
:103D9000CE0101960E94C6166FE372E081E895E0BD
:103DA0000E94FA0F8EE6282E99E7392E28E5C22EBA
:103DB00022E0D22EFE0131967F010E941E110E9448
:103DC000700C0091650310E061E088E00E94151B13
:103DD00060E177E280E090E00E949D1B8EE00E940F
:103DE000801B092E000CAA0BBB0B9C01AD012652B7
:103DF000324041095109A4E6B0E00E94F4262AEDC0
:103E00003DEF4FEF5FEF0E94D52649015A013093F5
:103E10007803209377038EEB92E00E943B164AE0F2
:103E200050E0C501B4010E945B168CEB92E00E9449
:103E30003B1681E895E00E94F60F60E088E00E9462
:103E4000151B209279030530110519F00331110576
:103E500051F58091770390917803CD9724F588ED03
:103E600092E00E943B1661E089E00E94151B61E030
:103E70008DE00E94151B60E97FE581E090E00E94E3
:103E80009D1B60E089E00E94151B60E08DE00E94B0
:103E9000151B89EC92E00E943B1681E895E00E9498
:103EA000F60F3092790361E081E10E94151B60E218
:103EB0007EE480E090E00E949D1B05E010E0812CF4
:103EC000912C5401240135018FE00E94801BBC011C
:103ED000990F880B990B0E94B8259B01AC01C30177
:103EE000B2010E9470272B013C0180E10E94801BDF
:103EF000BC01990F880B990B0E94B8259B01AC015E
:103F0000C501B4010E9470274B015C0164E670E0BA
:103F100080E090E00E949D1B01501109A9F620E06D
:103F200030E040EA50E4C301B2010E94DC272B01DB
:103F30003C0120E030E040EA50E4C501B4010E94B9
:103F4000DC274B015C0189E793E00E943B1642E0CD
:103F5000C301B2010E948F1881E895E00E94F60F1C
:103F600083E693E00E943B1642E0C501B4010E9443
:103F70008F1881E895E00E94F60F23E333E34BE8C6
:103F800050E4C301B2010E94172620E030E040E86F
:103F90005AE30E9417262B013C0123E333E34BE84D
:103FA00050E4C501B4010E94172620E030E040E84B
:103FB0005AE30E9417264B015C018BE593E00E94B7
:103FC0003B1642E0C301B2010E948F1881E895E0E0
:103FD0000E94F60F83E593E00E943B1642E0C50184
:103FE000B4010E948F1881E895E00E94F60FA301AA
:103FF000920163E373E38BE890E40E94DC2720E006
:1040000030E040E85FE30E946F2720E030EC4AEDAB
:1040100055E40E9417262B013C01A501940163E39E
:1040200073E38BE890E40E94DC2720E030E040E876
:104030005FE30E946F2720E030E745ED55E40E94E2
:1040400017264B015C018AE393E00E943B1642E095
:10405000C301B2010E948F1884E393E00E943B16D3
:1040600081E895E00E94F60F8BE193E00E943B16F9
:1040700042E0C501B4010E948F1885E193E00E94DF
:104080003B1681E895E00E94F60F20E030E44CE119
:1040900056E4C301B2010E94DC270E948A2820E076
:1040A00034EF40E555E40E94DC272FE03FEC4BE580
:1040B0005BE30E9470279B01AC0160E070E080E848
:1040C0009FE30E94DC2723E333E948E853E40E949E
:1040D0006F272B013C0160937303709374038093EB
:1040E00075039093760320E030E44CE156E4C5017B
:1040F000B4010E94DC270E948A2820E034EF40E5CA
:1041000055E40E94DC272FE03FEC4BE55BE30E9487
:1041100070279B01AC0160E070E080E89FE30E94A3
:10412000DC2723E333E948E853E40E946F276093D8
:104130006F0370937003809371039093720386E012
:1041400093E00E943B1642E0C301B2010E948F1827
:1041500082E093E00E943B1681E895E00E94F60F12
:1041600080906F0390907003A0907103B0907203E1
:1041700083EF92E00E943B1642E0C501B4010E9429
:104180008F188FEE92E00E943B1681E895E00E9426
:10419000F60F60E081E10E94151B89E0EDEBF2E093
:1041A000DE01A757BF4F01900D928A95E1F7B090BD
:1041B00079030B2D0B2C000C110B70907703609082
:1041C00078030E941E110E94700C809064030E946C
:1041D0001E110E94700C909065030E941E110E9497
:1041E000700CA09067030E941E110E94700C009139
:1041F00068030E941E110E94700C1F93BF926F9261
:104200007F921F928F921F929F921F92AF921F9246
:104210000F938091690390E08E54984F9F938F93F2
:10422000DF92CF92FF92EF920E949E2A60917303D9
:104230007091740380917503909176038E010358F9
:104240001F4F22E045E00E945F23B801C7010E9492
:10425000792A60916F03709170038091710390913E
:10426000720322E045E00E945F2367E872E0C70125
:104270000E94792AB801C7010E94792A88E294E055
:104280000E943B1641E0BE0167577F4FCE018E5919
:104290009F4F0E949517ED96EEADFFADED970FB6CF
:1042A000F894DEBF0FBECDBF309719F08581811124
:1042B0003CC047E1BE0167577F4FCE01895B9F4FEE
:1042C0000E949517BE01695B7F4FCE018E599F4FAB
:1042D0000E949516ED96EEADFFADED97309719F073
:1042E000858181110EC081ED93E00E943B16BE01D5
:1042F00067577F4F81E895E00E94E10F8FEC93E0D4
:1043000040C086EA93E00E943B1681E895E00E9457
:10431000F60F69E872E0CE018E599F4F0E94FA0FA6
:10432000CE018E599F4F0E94C616CE018E599F4FC7
:104330000E94C61647E1BE0167577F4FCE01895BD9
:104340009F4F0E949517BE01695B7F4FCE018E592A
:104350009F4F0E949516ED96EEADFFADED9730970D
:1043600019F08581811116C081E993E00E943B1606
:10437000BE0167577F4F81E895E00E94E10F8FE80B
:1043800093E00E943B1681E895E00E94F60F81E0E1
:1043900090E00DC0B701CE018E599F4F0E94FA0FD9
:1043A000CE018E599F4F0E94C61680E090E0892B67
:1043B00019F087EF93E002C086EE93E00E943B166F
:1043C00081E895E00E94F60F60E67FE284E390E0EA
:1043D0000E949D1B0E94350FF0CC81E492E00E9468
:1043E0003B1681E895E00E94F60FE39468E873E1DC
:1043F00080E090E00E949D1B81E895E00E948E0E77
:104400000C970CF4D4C00E945F19AB0144565109BB
:104410004438534048F48AE192E00E943B1681E818
:1044200095E00E94F60FC3C0683EF3E07F0714F0EA
:10443000625B01C0625EA9966FAFA9970E945F1987
:10444000A8966FAFA8970E945F19A7966FAFA7971E
:104450000E945F19A5966FAFA5970E945F19A49659
:104460006FAFA4970E945F19A3966FAFA397CE0179
:104470008E599F4F0E94C30A2B013C01AE01495B3C
:104480005F4F0E948B0B0E94FB108FE80E9464100C
:104490000E948B10C82E0E94F1100E94FB108EE823
:1044A0000E9464108C2D8F770E9464100E94F1107E
:1044B0000E94B411882309F466C028968FAD28970E
:1044C0006F2D0E940C2920E1829F900D1124998369
:1044D00029968FAD29970E940C2940E1849F900D69
:1044E00011249A832A968FAD2A970E940C29E0E125
:1044F0008E9F900D11249B832C968FAD2C970E943C
:104500000C29F0E18F9F900D11249C832D968FAD87
:104510002D970E940C2920E1829F900D11249D83EC
:104520002B968FAD2B978E832E968FAD2E978E5117
:104530000E940C2940E1849F900D11249F83D8860E
:104540000E94FB108EEB0E946410CE0101965C016C
:10455000F50181915F010E946410A016B106C1F7B8
:104560000E94F1100E94B41181110DC0C301B2016B
:104570000E94120A8DE092E00E943B16C301B20134
:104580000E94BE0D08C08EEF91E00E943B1681E8AC
:1045900095E00E94F60F81E895E00E948E0E1816B5
:1045A00019062CF481E895E00E946C0EF4CF0E946D
:1045B0001E1180906A0390906B03A0906C03B090E2
:1045C0006D03681579058A059B0551F060936A03B0
:1045D00070936B0380936C0390936D030E94BE0DE8
:1045E000FAE0EF1203C084EF91E005C02BE0E21285
:1045F00077CA84EE91E00E943B1681E895E00E9424
:10460000F60F6ECAE1E8F5E01382128288EE93E0BD
:10461000A0E0B0E084839583A683B7832DE231E0E8
:104620003183208325EC30E03587248724EC30E08B
:104630003787268720EC30E0318B208B21EC30E06F
:10464000338B228B22EC30E0358B248B26EC30E050
:10465000378B268B118E128E138E148EEEE1F6E0C0
:10466000158216821186138642E050E060E070E009
:10467000448755876687778713A215A614A62FE36C
:1046800031E033A722A717A6E7E6F6E020E520836E
:104690001182EDE6F6E01382128284839583A6836D
:1046A000B78387E591E09183808383E080936B06F5
:1046B00084E080936A0685E0809369060895EF920E
:1046C0000F931F93CF93DF93E80147FD02C034E0BF
:1046D00001C034E1042E000C550B57FF03C0519567
:1046E00041955109E32E022F242FAE010E947F2312
:1046F000CE01DF91CF911F910F91EF900895A9E026
:10470000B0E0E5E8F3E20C940D276A01122FB02E19
:104710002BE3201720F0FF24F394F00E02C02CE3CB
:10472000F22E0F2D27E0AE014F5F5F4F0E94D9247C
:10473000BC014981842F8970813031F0E1FC06C0D1
:10474000E0FE06C090E205C09DE203C09BE201C00E
:1047500090E05E2D507143FF3CC0911102C083E098
:1047600001C084E0811718F4212F281B01C020E02C
:1047700051110BC0F601822F30E2882319F03193DA
:104780008150FBCFC20ED11C20E0992329F0D60125
:104790009C93F60131966F01C6010396E2FE0AC0B2
:1047A0003EE4D6013C9341E411964C931197129646
:1047B0003C9306C03EE6F601308341E641833283F6
:1047C000FC01322F40E2332309F442C041933150BF
:1047D000FACF42FF44C0911102C083E001C084E0DF
:1047E000811718F4212F281B01C020E051110BC0A4
:1047F000F601822F30E2882319F031938150FBCFEC
:10480000C20ED11C20E0992329F0D6019C93F60119
:1048100031966F01C6010396E2FE0BC039E4D60162
:104820003C933EE411963C93119736E412963C93E8
:1048300007C039E6F60130833EE6318336E632833F
:10484000FC01322F40E2332319F041933150FBCF6A
:10485000FC01E20FF11D10828EEF9FEFA6C021E058
:1048600030E0911102C020E030E0161617061CF46B
:10487000FB01319602C0E1E0F0E02E0F3F1FBB20AC
:1048800021F0EB2DF0E0319602C0E0E0F0E02E0FD9
:104890003F1FE12FF0E02E173F071CF4121B212FC2
:1048A00001C020E08E2D887159F4F601822F30E28C
:1048B000882319F031938150FBCFC20ED11C20E028
:1048C000992329F0D6019C93F60131966F0151117D
:1048D0000BC0F601822F90E3882319F09193815049
:1048E000FBCFC20ED11C20E00F2D060F9A81342F72
:1048F000307144FF03C0913309F40150101624F4C1
:10490000093018F008E001C001E0AB0177FF02C0F8
:1049100040E050E0FB01E41BF50BA1E0B0E0AC0F80
:10492000BD1FEA0FFB1F8EE2A82E4B01801A9108D3
:104930000B2D10E01195019511094F3FBFEF5B075B
:1049400021F4D601AC9211966D01641775072CF015
:104950008416950614F4818101C080E34150510909
:104960003196D60111967D014017510724F0D601EA
:104970008C936701E2CF6417750739F4963320F4FE
:10498000953319F4311101C081E3F6018083F701F9
:10499000822F90E2882319F091938150FBCFF70189
:1049A000E20FF11D108280E090E02996ECE00C947B
:1049B0002927283008F027E03327DA01990F311D25
:1049C00087FD916000966105710539F432602E5FB4
:1049D0003D9330E32A95E1F708959F3F30F080380A
:1049E0007105610509F03C5F3C5F3D93913008F033
:1049F0008068911DDF93CF931F930F93FF92EF92E7
:104A0000192F987F9695E92F96959695E90FFF2790
:104A1000E45EFE4F99273327EE24FF24A701E70128
:104A200005900894079428F4360FE71EF81E491FD6
:104A3000511D660F771F881F991F0694A1F70590D7
:104A4000079428F4E70EF81E491F561FC11D770F63
:104A5000881F991F661F0694A1F70590079428F4F4
:104A6000F80E491F561FC71FD11D880F991F661FBB
:104A7000771F0694A1F70590079420F4490F561F5D
:104A8000C71FD81F990F661F771F881F0694A9F7A5
:104A900084911095177041F0D695C7955795479515
:104AA000F794E7941A95C1F7E2ECF0E0689415905A
:104AB000159135916591959105907FE27395E11877
:104AC000F10A430B560BC90BD009C0F7E10CF11EDC
:104AD000431F561FC91FD01D7EF4703311F48A95F1
:104AE000E6CFE894015030F0080F0AF400270217CF
:104AF00008F4202F2395022F7A3328F079E37D9351
:104B00002A95E9F710C07D932A9589F60694979522
:104B10006795379517951794E118F10A430B560BD3
:104B2000C90BD00998F023957E9173957A3308F0DC
:104B300070E37C932013B8F77E9170617D9330F021
:104B4000839571E37D9370E32A95E1F71124EF904B
:104B5000FF900F911F91CF91DF91992787FD90953D
:104B600008950E94F32508F481E00895E89409C0AF
:104B700097FB3EF490958095709561957F4F8F4F90
:104B80009F4F9923A9F0F92F96E9BB279395F695A6
:104B9000879577956795B795F111F8CFFAF4BB0F24
:104BA00011F460FF1BC06F5F7F4F8F4F9F4F16C088
:104BB000882311F096E911C0772321F09EE8872F12
:104BC000762F05C0662371F096E8862F70E060E0CE
:104BD0002AF09A95660F771F881FDAF7880F969547
:104BE000879597F90895990F0008550FAA0BE0E8EB
:104BF000FEEF16161706E807F907C0F0121613069F
:104C0000E407F50798F0621B730B840B950B39F4DE
:104C10000A2661F0232B242B252B21F408950A2644
:104C200009F4A140A6958FEF811D811D08950E9472
:104C30002A260C949B260E948D2638F00E949426EA
:104C400020F0952311F00C9484260C948A261124CC
:104C50000C94CF260E94AC2670F3959FC1F3950F5C
:104C600050E0551F629FF001729FBB27F00DB11DF0
:104C7000639FAA27F00DB11DAA1F649F6627B00D80
:104C8000A11D661F829F2227B00DA11D621F739F69
:104C9000B00DA11D621F839FA00D611D221F749F77
:104CA0003327A00D611D231F849F600D211D822FBE
:104CB000762F6A2F11249F5750409AF0F1F08823E5
:104CC0004AF0EE0FFF1FBB1F661F771F881F915012
:104CD0005040A9F79E3F510580F00C9484260C9417
:104CE000CF265F3FE4F3983ED4F38695779567959A
:104CF000B795F795E7959F5FC1F7FE2B880F911D3C
:104D00009695879597F9089597F99F6780E870E0E1
:104D100060E008959FEF80EC089500240A94161631
:104D2000170618060906089500240A941216130699
:104D3000140605060895092E0394000C11F4882327
:104D400052F0BB0F40F4BF2B11F460FF04C06F5F43
:104D50007F4F8F4F9F4F089557FD9058440F551F19
:104D600059F05F3F71F04795880F97FB991F61F0ED
:104D70009F3F79F087950895121613061406551F64
:104D8000F2CF4695F1DF08C0161617061806991FD0
:104D9000F1CF86957105610508940895E894BB27C5
:104DA00066277727CB0197F90895052E97FB1EF408
:104DB00000940E94EC2657FD07D00E943E2707FC76
:104DC00003D04EF40C94EC265095409530952195E7
:104DD0003F4F4F4F5F4F0895909580957095619527
:104DE0007F4F8F4F9F4F08950E946027A59F900D82
:104DF000B49F900DA49F800D911D11240895B7FFBD
:104E00000C94F4260E94F426821B930B08952F9293
:104E10003F924F925F926F927F928F929F92AF924A
:104E2000BF92CF92DF92EF92FF920F931F93CF9397
:104E3000DF93CDB7DEB7CA1BDB0B0FB6F894DEBF2E
:104E40000FBECDBF09942A88398848885F846E8454
:104E50007D848C849B84AA84B984C884DF80EE809E
:104E6000FD800C811B81AA81B981CE0FD11D0FB6A7
:104E7000F894DEBF0FBECDBFED010895A1E21A2E5A
:104E8000AA1BBB1BFD010DC0AA1FBB1FEE1FFF1FEE
:104E9000A217B307E407F50720F0A21BB30BE40B3E
:104EA000F50B661F771F881F991F1A9469F7609585
:104EB0007095809590959B01AC01BD01CF0108953F
:104EC000A29FB001B39FC001A39F700D811D11244B
:104ED000911DB29F700D811D1124911D0895505890
:104EE000BB27AA270E9487270C949B260E948D2609
:104EF00038F00E94942620F039F49F3F19F426F4EC
:104F00000C948A260EF4E095E7FB0C948426E92F96
:104F10000E94AC2658F3BA176207730784079507F7
:104F200020F079F4A6F50C94CE260EF4E0950B2E25
:104F3000BA2FA02D0B01B90190010C01CA01A001EB
:104F40001124FF27591B99F0593F50F4503E68F146
:104F50001A16F040A22F232F342F4427585FF3CF87
:104F6000469537952795A795F0405395C9F77EF458
:104F70001F16BA0B620B730B840BBAF09150A1F0A1
:104F8000FF0FBB1F661F771F881FC2F70EC0BA0F27
:104F9000621F731F841F48F4879577956795B795AF
:104FA000F7959E3F08F0B0CF9395880F08F09927AA
:104FB000EE0F9795879508950E94F0270C949B26F5
:104FC0000E94942658F00E948D2640F029F45F3FFD
:104FD00029F00C94842651110C94CF260C948A2627
:104FE0000E94AC2668F39923B1F3552391F3951BE6
:104FF000550BBB27AA2762177307840738F09F5FFA
:105000005F4F220F331F441FAA1FA9F335D00E2E66
:105010003AF0E0E832D091505040E695001CCAF7D3
:105020002BD0FE2F29D0660F771F881FBB1F261796
:1050300037074807AB07B0E809F0BB0B802DBF016D
:10504000FF2793585F4F3AF09E3F510578F00C943C
:1050500084260C94CF265F3FE4F3983ED4F38695E4
:1050600077956795B795F7959F5FC9F7880F911D5D
:105070009695879597F90895E1E0660F771F881F49
:10508000BB1F621773078407BA0720F0621B730BFC
:10509000840BBA0BEE1F88F7E09508950E94B426A2
:1050A00088F09F5798F0B92F9927B751B0F0E1F0E9
:1050B000660F771F881F991F1AF0BA95C9F714C099
:1050C000B13091F00E94CE26B1E008950C94CE2626
:1050D000672F782F8827B85F39F0B93FCCF38695D2
:1050E00077956795B395D9F73EF49095809570952F
:1050F00061957F4F8F4F9F4F08950E94F32508F4CD
:105100008FEF089516F00C94D7280C948A26689493
:105110000C9484260E94B426A8F39923C1F3AEF31D
:10512000DF93CF931F930F93FF92C92FDD2788231F
:105130002AF02197660F771F881FDAF720E030E00A
:1051400040E85FEB9FE3883920F0803E38F02196FD
:105150008F770E947027E8E6F0E004C00E94702775
:10516000E5E9F0E00E94E5288B01BE01EC01FB2E91
:105170006F5771097595771F880B990B0E94B82599
:1051800028E132E741E35FE30E942A26AF2D980130
:10519000AE01FF900F911F91CF91DF910E94872761
:1051A0000C949B260E94F325880B990B08959F3F32
:1051B00031F0915020F4879577956795B795880FD2
:1051C000911D9695879597F90895DF93CF931F9337
:1051D0000F93FF92EF92DF927B018C01689406C0DF
:1051E000DA2EEF010E942A26FE01E894A59125916E
:1051F000359145915591A6F3EF010E948727FE0155
:105200009701A801DA9469F7DF90EF90FF900F9172
:105210001F91CF91DF910895991B79E004C0991FE8
:10522000961708F0961B881F7A95C9F78095089500
:1052300097FB072E16F4009407D077FD09D00E9443
:105240002C2907FC05D03EF4909581959F4F089539
:10525000709561957F4F0895AA1BBB1B51E107C054
:10526000AA1FBB1FA617B70710F0A61BB70B881FF6
:10527000991F5A95A9F780959095BC01CD01089585
:10528000EE0FFF1F0590F491E02D09940F931F93EB
:10529000CF93DF938230910510F482E090E0E091AB
:1052A0008406F091850620E030E0A0E0B0E0309781
:1052B00019F1408151810281138148175907C8F0C3
:1052C0008417950769F4109731F012960C93129792
:1052D00013961C9327C0009384061093850622C062
:1052E0002115310519F04217530718F49A01BD0131
:1052F000EF01DF01F801DBCF21153105F9F0281BA3
:10530000390B2430310580F48A819B816115710548
:1053100021F0FB019383828304C0909385068093E0
:105320008406FE01329644C0FE01E20FF31F819312
:10533000919322503109398328833AC02091820603
:1053400030918306232B41F420910701309108010D
:105350003093830620938206209105013091060147
:105360002115310541F42DB73EB740910901509107
:105370000A01241B350BE0918206F0918306E217A7
:10538000F307A0F42E1B3F0B2817390778F0AC0168
:105390004E5F5F4F2417350748F04E0F5F1F509345
:1053A0008306409382068193919302C0E0E0F0E08F
:1053B000CF01DF91CF911F910F910895CF93DF938C
:1053C000009709F481C0FC01329713821282A091E8
:1053D0008406B0918506109781F420813181820F77
:1053E000931F20918206309183062817390751F5C3
:1053F000F0938306E093820667C0ED0120E030E081
:10540000CE17DF0740F44A815B819E0141155105AB
:10541000F1F0EA01F5CFD383C28340815181840F3B
:10542000951FC817D90759F488819981840F951F52
:105430000296918380838A819B8193838283211545
:10544000310529F4F0938506E09384063DC0E90117
:10545000FB83EA8349915991C40FD51FEC17FD07CF
:1054600061F480819181840F951F0296E9019983EF
:105470008883828193819B838A83E0E0F0E01296A7
:105480008D919C911397009719F0FD01DC01F7CFE6
:105490008D919C9111979D012E5F3F4F820F931F1D
:1054A00020918206309183062817390769F43097D6
:1054B00029F4109285061092840602C0138212828B
:1054C000B0938306A0938206DF91CF91089581E087
:1054D00090E0F8940C94512DFB01DC0104C08D91F7
:1054E0000190801921F441505040C8F7881B990B56
:1054F0000895FB01DC010D900020E9F71197019060
:105500000D920020E1F70895FC018191861721F0AA
:105510008823D9F7992708953197CF010895FB0182
:10552000DC014150504048F001900D920020C9F735
:1055300001C01D9241505040E0F70895AEE0B0E048
:10554000E4EAFAE20C9415270D891E8986E08C8323
:105550001A8309838FEF9FE79E838D83AE01475E99
:105560005F4F6F89788DCE0101960E94C02AEF812E
:10557000F885E00FF11F10822E96E4E00C9431279D
:10558000ABE0B0E0E6ECFAE20C9407276C017B019B
:105590008A01FC0117821682838181FFCCC1CE0172
:1055A00001963C01F6019381F70193FD859193FFEC
:1055B00081917F01882309F4BAC1853239F493FDC2
:1055C000859193FF81917F01853229F4B60190E0A6
:1055D0000E94B72CE7CF912C212C312CFFE1F31541
:1055E000D8F08B3279F038F4803279F08332A1F43C
:1055F000232D20611DC08D3261F0803369F4232D8D
:10560000216016C0832D8260382EE32DE4603E2E8B
:105610002AC0F32DF8601DC037FC2DC020ED280FE7
:105620002A3040F08E32B9F436FC81C1232D20643B
:10563000322E19C036FE06C08AE0989E200D112435
:10564000922E11C0EAE02E9E200D1124222EF32D61
:10565000F0623F2E08C08C3621F4832D8068382EEE
:1056600002C0883641F4F70193FD859193FF819143
:105670007F018111B3CF982F9F7D9554933028F4EB
:105680000C5F1F4F9FE399830DC0833631F0833742
:1056900071F0833509F059C021C0F80180818983F8
:1056A0000E5F1F4F88248394912C530113C028014F
:1056B000F2E04F0E511CF801A080B18036FE03C00D
:1056C000692D70E002C06FEF7FEFC5010E94AC2C26
:1056D0004C018201F32DFF773F2E16C0280122E0F6
:1056E000420E511CF801A080B18036FE03C0692D26
:1056F00070E002C06FEF7FEFC5010E94A12C4C014A
:10570000F32DF0683F2E820133FC1BC0822D90E008
:1057100088169906B0F4B60180E290E00E94B72C9A
:105720002A94F4CFF50137FC859137FE81915F0112
:10573000B60190E00E94B72C21102A9421E0821A31
:1057400091088114910471F7E8C0843611F089360C
:1057500041F5F80137FE07C0608171818281938134
:105760000C5F1F4F08C060817181072E000C880BF1
:10577000990B0E5F1F4FF32DFF763F2E97FF09C049
:1057800090958095709561957F4F8F4F9F4FF068F2
:105790003F2E2AE030E0A3010E94F32C882E8618C9
:1057A00045C0853731F4232D2F7EB22E2AE030E01C
:1057B00025C0932D997FB92E8F36C1F018F4883506
:1057C00079F0B5C0803719F0883721F0B0C0E92FE3
:1057D000E061BE2EB4FE0DC0FB2DF460BF2E09C0EB
:1057E00034FE0AC0292F2660B22E06C028E030E021
:1057F00005C020E130E002C020E132E0F801B7FE50
:1058000007C060817181828193810C5F1F4F06C048
:105810006081718180E090E00E5F1F4FA3010E94C4
:10582000F32C882E8618FB2DFF773F2E36FE0DC0F9
:10583000232D2E7FA22E891458F434FE0BC032FC87
:1058400009C0832D8E7EA82E05C0B82CA32C03C0C2
:10585000B82C01C0B92CA4FE0FC0FE01E80DF11D4B
:105860008081803321F49A2D997EA92E09C0A2FE51
:1058700006C0B394B39404C08A2D867809F0B3941B
:10588000A3FC11C0A0FE06C0B21488F4280C922C10
:105890009B180EC0B21460F4B60180E290E00E9442
:1058A000B72CB394F7CFB21418F42B1802C0982C6D
:1058B000212CA4FE10C0B60180E390E00E94B72C1A
:1058C000A2FE17C0A1FC03C088E790E002C088E5F3
:1058D00090E0B6010CC08A2D867859F0A1FE02C076
:1058E0008BE201C080E2A7FC8DE2B60190E00E944D
:1058F000B72C891438F4B60180E390E00E94B72CED
:105900009A94F7CF8A94F301E80DF11D8081B601D6
:1059100090E00E94B72C8110F5CF222009F442CEEE
:10592000B60180E290E00E94B72C2A94F6CFF601EF
:105930008681978102C08FEF9FEF2B96E2E10C9456
:105940002327FC010590615070400110D8F7809525
:1059500090958E0F9F1F0895FC016150704001903B
:105960000110D8F7809590958E0F9F1F08950F9383
:105970001F93CF93DF93FB01238121FD03C08FEFA2
:105980009FEF2CC022FF16C04681578124813581AC
:105990004217530744F4A081B1819D012F5F3F4F0F
:1059A000318320838C93268137812F5F3F4F37834C
:1059B000268314C08B01EC01FB010084F185E02DEE
:1059C0000995892BE1F6D80116968D919C91179730
:1059D000019617969C938E931697CE01DF91CF91E7
:1059E0001F910F910895FA01AA27283051F1203113
:1059F00081F1E8946F936E7F6E5F7F4F8F4F9F4F63
:105A0000AF4FB1E03ED0B4E03CD0670F781F891FA4
:105A10009A1FA11D680F791F8A1F911DA11D6A0F72
:105A2000711D811D911DA11D20D009F468943F9125
:105A30002AE0269F11243019305D3193DEF6CF0124
:105A40000895462F4770405D4193B3E00FD0C9F7EA
:105A5000F6CF462F4F70405D4A3318F0495D31FD57
:105A60004052419302D0A9F7EACFB4E0A6959795AA
:105A7000879577956795BA95C9F700976105710580
:105A800008959B01AC010A2E0694579547953795CA
:105A90002795BA95C9F7620F731F841F951FA01D24
:065AA0000895F894FFCF09
:105AA600FFFFFFFF010000860680001F1C1F1E1F50
:105AB6001E1F1F1E1F1E1F00000000600FB40F9741
:105AC60002780F3F0F800F8A0F00000000C60E33CA
:105AD6000E5D0E130F8E0E6C0E800E00000000D0B1
