:100000000C941D010C9445010C9445010C94450180
:100010000C9445010C9445010C94C9020C944501C3
:100020000C9445010C9445010C9445010C94450138
:100030000C9445010C9445010C9445010C94450128
:100040000C94790B0C9445010C94F8080C94D2088C
:100050000C9445010C9445010C9445010C94450108
:100060000C94FE050C9445014572724A616E46651A
:10007000624D61724170724D61794A756E4A756C5C
:100080004175675365704F63744E6F7644656300C6
:10009000206F662031302E006379636C6520004646
:1000A000696E69736865642E20506C616E7473208C
:1000B000617265206861707079206E6F77203A44B4
:1000C000007761746572696E672074686520706C72
:1000D000616E74732E2E2E00000000002300260097
:1000E000290052544320736574206661696C65640D
:1000F0002E006C617374207472792E005254432068
:10010000736574206661696C6564005254432073A2
:10011000657420746F3A20004572726F723A2059EC
:10012000656172206D7573742062652074776F202D
:100130006F7220666F7572206469676974730077E7
:10014000616974696E6720666F72206461746520EE
:1001500061742073657269616C20696E7075742EAC
:100160002E2E004D6F64756C6520776F726B696E13
:10017000672070726F7065726C792E0057726F6EA7
:10018000672074696D652E20526573657474696E9D
:1001900067206D6F64756C652E0025004D6F697367
:1001A000747572653A2000646565706C79207761BA
:1001B000746572696E672061732073636865647526
:1001C0006C65642E2E2E00646565706C79207761F5
:1001D000746572696E672061732073636865647506
:1001E0006C65642E2E2E0000000000240027002ADB
:1001F0000000000000250028002B00040404040473
:1002000004040402020202020203030303030301C3
:10021000020408102040800102040810200102049A
:10022000081020000000080002010000030407007D
:100230000000000000000000900E11241FBECFEF50
:10024000D8E0DEBFCDBF11E0A0E0B1E0ECEEFEE112
:1002500002C005900D92AC3CB107D9F723E0ACEC9D
:10026000B1E001C01D92A831B207E1F711E0CDE184
:10027000D1E004C02197FE010E94690FCC31D10763
:10028000C9F70E94C30B0C94740F0C940000FC017E
:10029000918D228D892F90E0805C9F4F821B910968
:1002A0008F739927089580E090E0892B29F00E94B0
:1002B000570881110C940000089508958FEF9FEF67
:1002C00008958FEF9FEF08958091400290E09195FF
:1002D000819591090895089580E090E0089585ED55
:1002E0008093BC008091BC0084FDFCCF10921A0268
:1002F00008954091F601262F30E0240F311D213260
:100300003105DCF420911A022430C9F4FC0180E0AC
:1003100090E0861758F43091F6012191DC01AA5241
:10032000BE4FA30FB11D2C930196F3CF8091F60120
:10033000680F6093F60180E0089581E0089582E0FF
:100340000895CF93DF93CB01EA01642F0E947901D6
:10035000CE01DF91CF910895CF93DF931F92CDB758
:10036000DEB7698361E0CE0101960E94790181E0E8
:1003700090E00F90DF91CF9108951F93CF93DF937B
:10038000EC01162F0A971CF480E30E94010ABE01BB
:10039000DD0F880B990B4AE050E00E94060A111607
:1003A00034F4812FDF91CF911F910C94010ADF91DA
:1003B000CF911F910895FC01848DDF01A80FB11D1D
:1003C000A35ABF4F2C91848D90E001968F7399278B
:1003D000848FA689B7892C93A089B1898C91837069
:1003E00080648C93938D848D981306C00288F38962
:1003F000E02D80818F7D808308950F931F93CF938D
:10040000DF93C0E0D0E0082F10E0B8010C2E02C04E
:10041000759567950A94E2F76170809104030E94D4
:10042000D40A61E0809103030E94D40A60E08091C5
:1004300003030E94D40A2196C830D10531F7DF9119
:10044000CF911F910F910895BF92CF92DF92EF92BB
:10045000FF920F931F93CF93DF9360E0809104038B
:100460000E94030BC0E0D0E010E0C12CD12C76013B
:10047000C3942091040330E0F901ED5DFD4F8491B8
:10048000F901E15FFD4F0491F901E550FE4FB49091
:10049000BB2099F181110E94AB0AEB2DF0E0EE0F29
:1004A000FF1FE852FF4FA591B491EC910E2329F163
:1004B000D701C6010C2E04C0880F991FAA1FBB1FAD
:1004C0000A94D2F7182B61E0809103030E94D40AAA
:1004D00060E0809103030E94D40A2196C830D105C0
:1004E00009F0C7CF812FDF91CF911F910F91FF901E
:1004F000EF90DF90CF90BF900895D701C6010C2EEA
:1005000004C0880F991FAA1FBB1F0A94D2F78095B9
:100510001823D9CF60E0809105030E94D40A8BE0B4
:1005200090E00197F1F7089560E0809105030E9443
:10053000D40A61E0809105030E94030B60E0809182
:1005400003030E94D40A61E0809103030E94030B1D
:1005500061E0809104030E94030B61E08091050338
:100560000E94D40A8BE090E00197F1F70895CF93B1
:100570000E9494028FE80E94FD010E942402C82F6D
:100580000E948A028C2F8095881F8827881FCF9110
:1005900008951F920F920FB60F9211248F930FB6EA
:1005A000F894A89580916000886180936000109213
:1005B00060000FBE8F910F900FBE0F901F90189587
:1005C00060934D0270934E0280934F0290935002BD
:1005D000DC01CB01845D9E4FAF4FBF4F809349023A
:1005E00090934A02A0934B02B0934C0282E090E0B9
:1005F00090935402809353022FB7F8948091620233
:1006000090916302A0916402B09165022FBF809324
:10061000450290934602A0934702B0934802089582
:100620000F931F938FB7F8940091620210916302A9
:1006300020916402309165028FBF40914502509134
:1006400046026091470270914802041B150B260B6D
:10065000370B80914D0290914E02A0914F02B091C4
:100660005002083E134021053105C0F00196A11D3E
:10067000B11D80934D0290934E02A0934F02B09310
:10068000500248515C4F6F4F7F4F4093450250934B
:1006900046026093470270934802C4CF40914902DA
:1006A00050914A0260914B0270914C028417950759
:1006B000A607B70788F1E0915102F09152023097F6
:1006C00059F10995611571058105910519F00E948F
:1006D000E00222C080914D0290914E02A0914F0203
:1006E000B0915002845D9E4FAF4FBF4F809349023F
:1006F00090934A02A0934B02B0934C0281E090E0A9
:100700002091530230915402232B11F480E090E0A9
:10071000909354028093530260914D0270914E0267
:1007200080914F02909150021F910F9108954F9226
:100730005F926F927F928F929F92AF92BF92CF9271
:10074000DF92EF92FF920F931F93CF93DF93FC0101
:100750001681A12FB0E020E833E341EE51E00E9482
:10076000F10E4B015C01C2EBD7E09D0104E610E005
:1007700080E9E82EFF24F394CE01825B9740821734
:100780009307D4F4CE0183709927892B99F4CE0175
:10079000B8010E94410F892B31F4CE01B7010E94AC
:1007A000410F892B39F480E8880E81E5981E81E09D
:1007B000A81EB11C2196E0CF4580512C2E54384FF5
:1007C000C90164E670E00E94410F7C01C90160E943
:1007D00071E00E94410F6C0102E011E0C1E0D0E045
:1007E0003901A3E06A227724C415D50534F5C23057
:1007F000D10589F46114710471F4E114F10419F460
:10080000C114D10441F4B0E88B0EBBE39B1EB6E2E9
:10081000AB1EB11C0EC0D8018C91A82FB0E020E80F
:1008200031E541E050E00E94F10E860E971EA81EB1
:10083000B91E21960F5F1F4FD7CF4181228130E033
:10084000A0E1BEE00E94260F6B017C01242F30E066
:10085000ACE3B0E00E94260FDC01CB018C0D9D1DA6
:10086000AE1DBF1D20816C017D01C20ED11CE11C9B
:10087000F11CA481B0E0119720E831E541E050E09F
:100880000E94FC0EDC01CB018C0D9D1DAE1DBF1D19
:10089000BC01CD01680D791D8A1D9B1DDF91CF9193
:1008A0001F910F91FF90EF90DF90CF90BF90AF908E
:1008B0009F908F907F906F905F904F900895EF92F0
:1008C000FF920F931F93CF93DF93CDB7DEB72F9790
:1008D0000FB6F894DEBF0FBECDBF0E9494028FEB1F
:1008E0000E94FD01CE0101967C018E01075F1F4F22
:1008F0000E942402F70181937F010E171F07C1F7A1
:100900000E948A028981682F6695669566956E7049
:10091000962F990F990F690F8F70680F69878A81D9
:10092000482F4695469546954E70942F990F990FEE
:10093000490F8F70480F4A878B81382F369536952F
:1009400036953670932F990F990F390F8F70380F96
:100950003B878C81282F2695269526952670922FE9
:10096000990F990F290F8F70280F2D878D8184FB88
:10097000992790F9990F592F550F550F950F8F7093
:10098000980F9E875E8157705C878F81782F729554
:100990007F708F70825EFAE07F9F800D11248F87B9
:1009A0006C3398F44C3388F4383178F421502F317B
:1009B00060F491509C3048F45150573030F48436F4
:1009C00020F4C8010E94970303C060E070E0CB01EF
:1009D0002F960FB6F894DEBF0FBECDBFDF91CF913B
:1009E0001F910F91FF90EF9008956F927F928F92D9
:1009F0009F92AF92BF92CF92DF92EF92FF920F93AE
:100A00001F93CF93DF936B017C01EA018CE3882E67
:100A1000912CA12CB12CC701B601A50194010E9413
:100A2000040F6883CA01B901A50194010E94040F53
:100A30006983C701B60120E13EE040E050E00E943A
:100A4000040FCA01B90128E130E040E050E00E9403
:100A5000040F6A83C701B60120E831E541E050E0A8
:100A60000E94040F69017A01CA01B9016C5F7F4FCE
:100A70008F4F9F4F27E030E040E050E00E94040F8E
:100A80006F5F6B83812C912C540140E094E6692EBA
:100A9000712C00E911E0242F30E02E54384FF90179
:100AA000E370FF27309789F4C901B3010E94410F19
:100AB000892B31F4C901B8010E94410F892B29F417
:100AC0008EE691E0A0E0B0E004C08DE691E0A0E009
:100AD000B0E0880E991EAA1EBB1ED501C401AA272C
:100AE000BB27C816D906EA06FB0610F04F5FD3CF26
:100AF0004E83309799F4C90164E670E00E94410F7B
:100B0000892B39F4C90160E971E00E94410F892BFA
:100B100029F48EE691E0A0E0B0E004C08DE691E01B
:100B2000A0E0B0E0881A990AAA0ABB0AC818D90836
:100B3000EA08FB08C90164E670E00E94410F8C01DD
:100B4000C90160E971E00E94410FA2E0B1E020E03C
:100B5000213041F4309751F40115110529F4009723
:100B600029F402C04C9103C04DE101C04CE150E0BA
:100B700060E070E0C416D506E606F70640F0C41A39
:100B8000D50AE60AF70A2F5F11962C3009F72F5F76
:100B90002D83C394CC82DF91CF911F910F91FF9051
:100BA000EF90DF90CF90BF90AF909F908F907F900D
:100BB0006F900895CF92DF92EF92FF92C090410222
:100BC000D0904202E0904302F0904402C616D7064D
:100BD000E806F90671F06B017C0147E552E00E94DE
:100BE000F504C0924102D0924202E0924302F09298
:100BF0004402FF90EF90DF90CF9008951F920F92E4
:100C00000FB60F9211242F933F934F935F936F93DF
:100C10007F938F939F93AF93BF93EF93FF938091B5
:100C2000B900887F803609F49CC068F5883209F4E1
:100C30005BC090F4803109F454C038F4882309F47F
:100C4000F2C0883009F44DC0F2C0883109F44CC0BC
:100C5000803209F45DC0EBC0803409F468C048F408
:100C6000803309F455C0883309F0E1C0809319023C
:100C7000D4C0803509F44FC0883509F45DC088348C
:100C800009F0D5C0D2C0883909F4C3C0A8F48837A8
:100C900009F467C038F4883609F463C0803709F472
:100CA00060C0C5C0883809F4B4C0803909F45FC099
:100CB000803809F0BCC05BC0803B09F484C038F4C4
:100CC000803A09F466C0883A09F47DC0B0C0803C1F
:100CD00009F4A3C0883C09F4A0C0883B09F486C08D
:100CE000A6C080913F0210C090913E0280913D02CB
:100CF000981770F5E0913E0281E08E0F80933E02DE
:100D0000F0E0E35EFD4F80818093BB0085EC82C004
:100D1000809319028AC0E0913E0281E08E0F809399
:100D20003E028091BB00F0E0E35EFD4F8083909136
:100D30003E0280913D026AC0E0913E0281E08E0F4A
:100D400080933E028091BB00F0E0E35EFD4F808324
:100D500080911C02811169C081E080931B0284EAAA
:100D60005DC083E080931A0210921802CFCF809169
:100D70001802803208F04DC0E091180281E08E0F19
:100D8000809318028091BB00F0E0E850FE4F808312
:100D9000BDCF85EC8093BC0010921A02809118029E
:100DA000803230F4E0911802F0E0E850FE4F1082FB
:100DB0006091180270E088EF91E0E0E0F0E00995C2
:100DC0001092180234C084E080931A021092F70146
:100DD0001092F601E0E0F0E009958091F6018111B2
:100DE00005C081E08093F6011092D601E091F701F1
:100DF00081E08E0F8093F701F0E0EA52FE4F808190
:100E00008093BB009091F7018091F601981708F448
:100E10007DCF85E88093BC000AC085EC8093BC0040
:100E200010921A0204C0109219020E946F01FF91E1
:100E3000EF91BF91AF919F918F917F916F915F9152
:100E40004F913F912F910F900FBE0F901F901895CB
:100E500081EC90E00E948F090E94FD0961E089E029
:100E60000E94D40A6091000170910101072E000CCC
:100E7000880B990B0E943F0B60E089E00E94D40A26
:100E80008FE990E00E948F090C94FD09CF92DF92C8
:100E9000EF92FF92CF93DF93C0910001D0910101B7
:100EA00080E89EE39093010180930001C12CD12C36
:100EB000760188E990E00E948F094AE050E0C7017E
:100EC000B6010E94060A80E990E00E948F09809195
:100ED000550290915602899714F40E94280760EAFF
:100EE0007BEB8DE090E00E943F0B8FEFC81AD80A91
:100EF000E80AF80A8AE0C816D104E104F104C9F648
:100F0000D0930101C0930001DF91CF91FF90EF904A
:100F1000DF90CF9008958F929F92AF92BF92CF9221
:100F2000DF92EF92FF924B015C010E94DA05809103
:100F30005B0260E090E00E94BD01C501B4010E9427
:100F4000DA05C0905D02D12C8EE4C81A88EFD80A69
:100F50000D2C000CEE08FF08C501B4010E94DA0553
:100F600020915C0283E0289F90011124ACECB1E059
:100F700080E090E0F901E80FF91FE859FF4FE49194
:100F8000ED93019683309105A9F71092CF018CEC77
:100F900091E00E94AA094AE050E0C701B6010E9410
:100FA000060A80E20E94010AC501B4010E94DA0526
:100FB000809159026AE390E00E94BD01C501B4012D
:100FC0000E94DA05809158026AE390E00E94BD0118
:100FD000C501B4010E94DA058091570260E290E0F9
:100FE0000E94BD01FF90EF90DF90CF90BF90AF9037
:100FF0009F908F900C94FD09CF92DF92EF92FF9219
:101000000F931F93CF93DF936C017A018B01C0E0A4
:10101000D0E0CE15DF0581F0D8016D918D01D601AC
:10102000ED91FC910190F081E02DC6010995892B8D
:1010300011F02196EECF7E01C701DF91CF911F9174
:101040000F91FF90EF90DF90CF900895FC01538DAA
:10105000448D252F30E0842F90E0821B930B541792
:1010600010F0CF96089501970895FC01918D828D1F
:10107000981761F0828DDF01A80FB11D5D968C91EC
:10108000928D9F5F9F73928F90E008958FEF9FEFF7
:101090000895FC01918D828D981731F0828DE80FB3
:1010A000F11D858D90E008958FEF9FEF089586E6FE
:1010B00092E00E94470121E0892B09F420E0822F71
:1010C00008950E946F0FEF92FF920F931F93CF939B
:1010D000DF93EC0181E0888F9B8D8C8D981305C088
:1010E000E889F989808185FD26C0F62E0B8D10E0F8
:1010F0000F5F1F4F0F731127E02E8C8DE8120CC06D
:101100000FB607FCFACFE889F989808185FFF5CF12
:10111000CE010E94DB01F1CF8B8DFE01E80FF11DA6
:10112000E35AFF4FF0829FB7F8940B8FEA89FB894F
:10113000808180620AC09FB7F894EE89FF8960833E
:10114000E889F98980818370806480839FBF81E012
:1011500090E0DF91CF911F910F91FF90EF90089554
:10116000CF93DF93EC01888D8823C9F0EA89FB894E
:10117000808185FD05C0A889B9898C9186FD0FC045
:101180000FB607FCF5CF808185FFF2CFA889B9891A
:101190008C9185FFEDCFCE010E94DB01E7CFDF917F
:1011A000CF9108951F920F920FB60F9211242F9393
:1011B0003F934F935F936F937F938F939F93AF93DF
:1011C000BF93EF93FF9386E692E00E94DB01FF91CD
:1011D000EF91BF91AF919F918F917F916F915F91AF
:1011E0004F913F912F910F900FBE0F901F90189528
:1011F0001F920F920FB60F9211242F938F939F93EC
:10120000EF93FF93E0917602F09177028081E09175
:101210007C02F0917D0282FD12C0908180917F025C
:101220008F5F8F7320918002821751F0E0917F02CF
:10123000F0E0EA59FD4F958F80937F0201C08081D5
:10124000FF91EF919F918F912F910F900FBE0F9073
:101250001F9018953FB7F894809108039091090367
:10126000A0910A03B0910B0326B5A89B05C02F3FA0
:1012700019F00196A11DB11D3FBFBA2FA92F982FBC
:101280008827820F911DA11DB11DBC01CD0142E037
:10129000660F771F881F991F4A95D1F708952FB7BA
:1012A000F8948091620290916302A0916402B091DF
:1012B00065022FBF80936E0290936F02A09370021D
:1012C000B093710286E692E00E94490897FF26C01B
:1012D0002FB7F8948091620290916302A09164020A
:1012E000B09165022FBF40916E0250916F026091E4
:1012F000700270917102841B950BA60BB70B409185
:101300006A0250916B0260916C0270916D028417B9
:101310009507A607B707B0F28FEF9FEF08950F93D9
:101320001F93CF93DF938C01C0E0D0E0F801EC0F66
:10133000FD1F6491662341F086E692E00E946308F7
:10134000892B11F02196F2CFCE01DF91CF911F9121
:101350000F910895009769F0FC0101900020E9F7D2
:101360003197AF01481B590BBC0186E692E00C9403
:10137000FC0780E090E008958F929F92AF92BF9219
:101380000F931F93CF93DF93CDB7DEB7A1970FB61F
:10139000F894DEBF0FBECDBF19A2423008F44AE078
:1013A0008E010F5D1F4F842E912CA12CB12CA50115
:1013B00094010E94040FE62FB901CA0101501109DE
:1013C000EA3014F4E05D01C0E95CD801EC93232B12
:1013D000242B252B61F7C8010E94AA09A1960FB6FC
:1013E000F894DEBF0FBECDBFDF91CF911F910F915B
:1013F000BF90AF909F908F90089588EC91E00C94EF
:10140000AA09682F86E692E00C946308CF92DF92D7
:10141000EF92FF92CF93DF934115510551F486E689
:1014200092E0DF91CF91FF90EF90DF90CF900C94FE
:1014300063084A305105E1F497FF19C06B017C0144
:101440008DE20E94010AEC0166277727CB016C1917
:101450007D098E099F094AE00E94BC098C0F9D1FDF
:10146000DF91CF91FF90EF90DF90CF9008954AE009
:10147000DF91CF91FF90EF90DF90CF900C94BC095B
:10148000CF92DF92EF92FF92CF930E944F09FC011F
:1014900097FD0BC08D32910561F0C0970A9748F017
:1014A00086E692E00E943508F0CF60E070E0CB0164
:1014B00040C0C12CD12C7601C0E0E130F10501F132
:1014C000ED32F105E1F0CF01C0970A97C8F4AAE028
:1014D000B0E0A70196010E94F10E6F01FF0FEE0828
:1014E000FF08DC01CB018C0D9D1DAE1DBF1D6C01E5
:1014F0007D0120E3C21AD108E108F10801C0C1E072
:1015000086E692E00E9435080E944F09FC01C097D0
:101510000A9798F2E130F10581F2CC2341F0662779
:101520007727CB016C197D098E099F0902C0C7017D
:10153000B601CF91FF90EF90DF90CF900895CF93B9
:10154000DF930E94AA09EC010E94FD098C0F9D1FE8
:10155000DF91CF910895833081F028F4813099F0A4
:101560008230A1F008958730A9F08830B9F0843036
:10157000D1F4809180008F7D03C0809180008F77AF
:1015800080938000089584B58F7702C084B58F7DE5
:1015900084BD08958091B0008F7703C08091B00022
:1015A0008F7D8093B00008951F93CF93DF93282FF2
:1015B00030E0F901ED5DFD4F8491F901E15FFD4FF0
:1015C000D491F901E550FE4FC491CC23C1F0162F00
:1015D00081110E94AB0AEC2FF0E0EE0FFF1FEF50DD
:1015E000FE4FA591B4919FB7F894111104C08C914E
:1015F000D095D82302C0EC91DE2BDC939FBFDF9106
:10160000CF911F910895CF93DF9390E0FC01E15FAC
:10161000FD4F2491FC01E550FE4F8491882361F138
:1016200090E0880F991FFC01E951FE4FC591D491BC
:10163000FC01EF50FE4FA591B491611109C09FB715
:10164000F8948881209582238883EC912E230BC007
:10165000623061F49FB7F8948881322F30958323EC
:101660008883EC912E2B2C939FBF06C08FB7F894E4
:10167000E8812E2B28838FBFDF91CF9108958F9221
:101680009F92AF92BF92CF92DF92EF92FF926B0147
:101690007C010E942A094B015C01C114D104E104C0
:1016A000F104F1F00E942A09DC01CB0188199909A3
:1016B000AA09BB09883E9340A105B10570F321E05A
:1016C000C21AD108E108F10888EE880E83E0981E5E
:1016D000A11CB11CC114D104E104F10419F7DDCF40
:1016E000FF90EF90DF90CF90BF90AF909F908F9042
:1016F00008951F920F920FB60F9211242F933F93CC
:101700008F939F93AF93BF938091620290916302F6
:10171000A0916402B09165023091070323E0230F8A
:101720002D3720F40196A11DB11D05C026E8230F19
:101730000296A11DB11D209307038093620290932E
:101740006302A0936402B0936502809108039091B4
:101750000903A0910A03B0910B030196A11DB11DCD
:101760008093080390930903A0930A03B0930B039B
:10177000BF91AF919F918F913F912F910F900FBE8D
:101780000F901F901895CF93DF93CDB7DEB7669774
:101790000FB6F894DEBF0FBECDBF789484B58260DB
:1017A00084BD84B5816084BD85B5826085BD85B505
:1017B000816085BD80916E00816080936E00109283
:1017C00081008091810082608093810080918100FE
:1017D000816080938100809180008160809380008F
:1017E0008091B10084608093B1008091B0008160ED
:1017F0008093B00080917A00846080937A00809119
:101800007A00826080937A0080917A008160809370
:101810007A0080917A00806880937A001092C100EB
:10182000E0917602F091770282E08083E09172028B
:10183000F09173021082E0917402F09175028FECC6
:10184000808310927E02E0917A02F0917B0286E022
:101850008083E0917802F0917902808180618083B9
:10186000E0917802F0917902808188608083E09134
:101870007802F0917902808180688083E09178021B
:10188000F091790280818F7D808360E08DE00E94FD
:10189000D40A60E088E00E94D40A8FE594E0909337
:1018A00052028093510280914D0290914E02A0917C
:1018B0004F02B09150028093490290934A02A09344
:1018C0004B02B0934C020E94100382E391E00E940D
:1018D0009F0A86E491E00E949F0A60E086E00E94F1
:1018E000D40A61E086E00E94030B61E087E00E9479
:1018F000D40A61E087E00E94030B8AE591E00E9430
:101900009F0A0E94FD0964EF71E080E090E00E9470
:101910003F0B0E94940281E80E94FD010E94240274
:10192000182F0E948A0217FF06C08FE691E00E94DE
:101930009F0A0E94FD090E94B702811106C086E835
:1019400091E00E949F0A0E94FD0968E873E180E02F
:1019500090E00E943F0B0E945F046B017C010E949B
:10196000DA0580915D0290E0C097CCF48CE791E0BD
:101970000E948F090E94FD0900E07E0129E0E20E2D
:10198000F11C1AE050E8D52E0E94100380915302FA
:1019900090915402029769F00B30E8F10AC083E697
:1019A00091E00E948F090E94FD09C701B6010E94C3
:1019B0008B0785EB91E00E949F0A86E491E00E94EC
:1019C0009F0A61E089E00E94030B60E089E00E94C9
:1019D000D40A10E43AEDC32E3DEFD32EEE24EA9460
:1019E000FE2C40E8842E4EEE942E46E3A42EB12C1D
:1019F0000E945F040E94DA0580915902863009F442
:101A0000FAC00E945F040E94DA0580915902853174
:101A100009F045C1F0C08FE391E00E948F090E9458
:101A2000FD090F5F68E873E180E090E00E943F0BE2
:101A300086E692E00E9447010C970CF4B4C00E9425
:101A4000400AAB01445651094438534038F488E108
:101A500091E00E948F090E94FD09A5C0683EF3E055
:101A60007F0714F0625B01C0625E6E8B0E94400AC9
:101A70006D8B0E94400A6C8B0E94400A6A8B0E9408
:101A8000400A698B0E94400A688BCE0140960E94F2
:101A900097032B013C01A7010E94F5040E949402C8
:101AA0008FE80E94FD010E942402C82E0E948A0233
:101AB0000E9494028EE80E94FD018C2D8F770E9477
:101AC000FD010E948A020E94B702882309F459C0CE
:101AD0008985612F0E94350F20E1829F900D11248E
:101AE00099838A850E94350F30E1839F900D1124E0
:101AF0009A838B850E94350F40E1849F900D1124BD
:101B00009B838D850E94350F50E1859F900D112498
:101B10009C838E850E94350FE0E18E9F900D1124ED
:101B20009D838C858E838F858E510E94350FF0E1C9
:101B30008F9F900D11249F83D8860E9494028EEB74
:101B40000E94FD019E012F5F3F4F5901F5018191D8
:101B50005F010E94FD01EA14FB04C1F70E948A02A2
:101B60000E94B70281110DC0C301B2010E94E002C0
:101B70008BE091E00E948F09C301B2010E948B07A4
:101B800006C08CEF90E00E948F090E94FD0986E656
:101B900092E00E944701181619062CF486E692E09E
:101BA0000E943508F4CF0E945F0480905E029090FE
:101BB0005F02A0906002B0906102681579058A0505
:101BC0009B0551F060935E0270935F028093600208
:101BD000909361020E948B070A3019F482EF90E023
:101BE00005C00B3009F0D0CE82EE90E00E948F0944
:101BF0000E94FD09C9CE109256021092550261E072
:101C000088E00E94D40A60E27EE480E090E00E94D6
:101C10003F0B10937C0080917A00806480937A005F
:101C200080917A0086FDFCCF209178008091790028
:101C300030E0382BC901330FAA0BBB0B9C01AD015F
:101C40002652324041095109A4E6B0E00E94F10E4B
:101C5000A70196010E94D20E29013A013093560243
:101C6000209355028CE991E00E948F094AE050E0F0
:101C7000C301B2010E94060A8AE991E00E948F091D
:101C80000E94FD0960E088E00E94D40A809155021C
:101C90009091560289979CF40E94280710C00E94D8
:101CA0005F040E94DA0580915B028230F9F00E94A5
:101CB0005F040E94DA0580915B02803111F180910E
:101CC000000190910101880F991F092E000CAA0BA9
:101CD000BB0BA5019401281B390B4A0B5B0BCA01F6
:101CE000B9010E943F0B0E94530182CE0E945F0403
:101CF0000E94DA05809159028631C9F687EC91E09D
:101D00000AC00E945F040E94DA0580915902863160
:101D1000B1F687EA91E00E948F090E944607CFCF73
:101D2000E6E6F2E01382128288EE93E0A0E0B0E0F3
:101D300084839583A683B78322E131E031832083B6
:101D400025EC30E03587248724EC30E03787268780
:101D500020EC30E0318B208B21EC30E0338B228B78
:101D600022EC30E0358B248B26EC30E0378B268B51
:101D7000118E128E138E148EECE0F3E01382128219
:101D800084839583A683B78384E291E091838083E3
:101D900083E08093050384E08093040385E08093CF
:101DA00003030895052E97FB1EF400940E94E90E8C
:101DB00057FD07D00E94040F07FC03D04EF40C948B
:101DC000E90E50954095309521953F4F4F4F5F4F0D
:101DD000089590958095709561957F4F8F4F9F4F97
:101DE00008950E94260FA59F900DB49F900DA49F6B
:101DF000800D911D11240895B7FF0C94F10E0E94DF
:101E0000F10E821B930B0895A1E21A2EAA1BBB1B95
:101E1000FD010DC0AA1FBB1FEE1FFF1FA217B307B6
:101E2000E407F50720F0A21BB30BE40BF50B661FCC
:101E3000771F881F991F1A9469F760957095809590
:101E400090959B01AC01BD01CF010895A29FB00107
:101E5000B39FC001A39F700D811D1124911DB29FDE
:101E6000700D811D1124911D0895991B79E004C006
:101E7000991F961708F0961B881F7A95C9F78095C9
:101E8000089597FB072E16F4009407D077FD09D02C
:101E90000E94550F07FC05D03EF4909581959F4F09
:101EA0000895709561957F4F0895AA1BBB1B51E162
:101EB00007C0AA1FBB1FA617B70710F0A61BB70BBA
:101EC000881F991F5A95A9F780959095BC01CD015F
:101ED0000895EE0FFF1F0590F491E02D099481E025
:0C1EE00090E0F8940C94740FF894FFCF7D
:101EEC00C8AF1F1C1F1E1F1E1F1F1E1F1E1F000002
:101EFC0000006308FC072608B008470135084908AC
:101F0C0000000000AC01A1016C015D0164016101E4
:101F1C005E01445331333032525443205265616474
:101F2C002054657374002D2D2D2D2D2D2D2D2D2D23
:101F3C002D2D2D2D2D2D2D2D2D00525443206D6F1B
:101F4C0064756C65206163746976617465640054B2
:101F5C006865204453313330322069732073746FB9
:101F6C00707065642E0054686520445331333032F0
:101F7C002069732077726974652070726F74656361
:101F8C007465642E2054686973206973206E6F72B7
:101F9C006D616C2E00445331333032525443205413
:0C1FAC0065737420456E64000D0A00008F
:00000001FF
