:100000000C9440020C9468020C9468020C946802F0
:100010000C9468020C9468020C94A8110C94680269
:100020000C9468020C9468020C9468020C946802A8
:100030000C9468020C9468020C9468020C94680298
:100040000C94E21B0C9468020C9414100C94EE0FA8
:100050000C9468020C9468020C9468020C94680278
:100060000C94760C0C94680208000000BE9224499F
:10007000123EABAAAA2ABECDCCCC4C3E00000080DA
:10008000BEABAAAAAA3E00000000BF000000803F4D
:100090000000000000084178D3BB4387D1133D190D
:1000A0000E3CC3BD4282AD2B3E68EC8276BED98F3A
:1000B000E1A93E4C80EFFFBE01C4FF7F3F0000007E
:1000C000000000407A10F35A00A0724E1809001088
:1000D000A5D4E80000E87648170000E40B540200BD
:1000E00000CA9A3B000000E1F505000080969800E8
:1000F000000040420F000000A08601000000102711
:1001000000000000E80300000000640000000000A0
:100110000A00000000000100000000002C76D888D2
:10012000DC674F0823DFC1DFAE59E1B1B796E5E3E5
:10013000E453C63AE651997696E8E6C28426EB89FE
:100140008C9B62ED407C6FFCEFBC9C9F40F2BAA59B
:100150006FA5F490055A2AF75C936B6CF9676DC133
:100160001BFCE0E40D47FEF520E6B500D0ED902E37
:100170000300943577050080841E080000204E0A95
:10018000000000C80C333333330F986E12831141D3
:10019000EF8D2114893BE65516CFFEE6DB18D1849E
:1001A0004B381BF77C1D901DA4BBE42420328472C5
:1001B0005E228100C9F124ECA1E53D274572724A17
:1001C000616E4665624D61724170724D61794A752A
:1001D0006E4A756C4175675365704F63744E6F76E8
:1001E0004465630052544320736574206661696CF2
:1001F00065642E006C617374207472792E00525401
:100200004320736574206661696C656400525443D1
:100210002073657420746F3A20004572726F723AD1
:100220002059656172206D75737420626520747742
:100230006F206F7220666F757220646967697473CE
:100240000077616974696E6720666F7220646174FB
:10025000652061742073657269616C20696E7075C8
:10026000742E2E2E004D6F64756C6520776F726B47
:10027000696E672070726F7065726C792E005772AC
:100280006F6E672074696D652E2052657365747496
:10029000696E67206D6F64756C652E00C2BA43008D
:1002A00054656D7065726174757265323A2000C272
:1002B000BA430054656D7065726174757265313A48
:1002C0002000206F686D7300546865726D697374E7
:1002D0006F723220726573697374616E63653A2060
:1002E00000206F686D7300546865726D6973746F78
:1002F000723120726573697374616E63653A2000B0
:10030000764F7574323A2000764F7574313A20007A
:100310004176657261676520544832207265616478
:10032000696E673A200041766572616765205448BE
:10033000312072656164696E673A20003E00657223
:10034000726F72206F70656E696E672066696C658A
:10035000203C00446174612066696C6520646964B6
:100360006E27742065786973742E204372656174FA
:100370006564206E6577206F6E652E003E006572A5
:10038000726F72206F70656E696E672066696C654A
:10039000203C005344636172642077726974652065
:1003A0004F6B2E00416E206572726F72206F636317
:1003B0007572726564207768696C652077726974FC
:1003C000696E6720746F206D6963726F5344206398
:1003D0006172642E0057726974696E67207265706D
:1003E0006F7274206C696E6520746F206D69637222
:1003F0006F534420636172642E2E2E20003E0065F0
:1004000072726F72206F70656E696E672066696CBC
:1004100065203C007C3C3E5E2B3D3F2F5B5D3B2CD2
:100420002A225C00000000002300260029000000B2
:100430000000240027002A000000000025002800FA
:100440002B00040404040404040402020202020255
:100450000303030303030102040810204080010288
:100460000408102001020408102000000008000207
:1004700001000003040700000000000000006E22DD
:1004800011241FBECFEFD8E0DEBFCDBF12E0A0E049
:10049000B1E0E0E4F9E502C005900D92AE3CB10791
:1004A000D9F726E0AEECB2E001C01D92AA37B20740
:1004B000E1F712E0C0E4D2E004C02197FE010E94FF
:1004C0008D28CF33D107C9F70E942C1C0C949E2C89
:1004D0000C94000008958FEF9FEF08958FEF9FEF2A
:1004E00008958091420390E0919581959109089536
:1004F000089580E090E0089585ED8093BC008091A0
:10050000BC0084FDFCCF10921C0308954091F802BA
:10051000262F30E0240F311D21323105DCF42091EB
:100520001C032430C9F4FC0180E090E0861758F4E5
:100530003091F8022191DC01A852BD4FA30FB11DEB
:100540002C930196F3CF8091F802680F6093F80224
:1005500080E0089581E0089582E00895CF93DF93CD
:10056000CB01EA01642F0E948602CE01DF91CF9178
:100570000895CF93DF931F92CDB7DEB7698361E013
:10058000CE0101960E94860281E090E00F90DF91FB
:10059000CF9108951F93CF93DF93EC01162F0A9705
:1005A0001CF480E30E941D16BE01DD0F880B990B21
:1005B0004AE050E00E942216111634F4812FDF9198
:1005C000CF911F910C941D16DF91CF911F9108952B
:1005D000CF93DF93EC018D81882379F18C8187FFA4
:1005E00028C06E857F858889998941E00E944B12D9
:1005F000882319F1EA8980E2E89FF0011124ED587F
:10060000FC4F3097D1F08D81823040F48B899C89EA
:10061000AD89BE89848F958FA68FB78F8F89988D6E
:10062000A98DBA8D938F828FB58BA48B8C818F7798
:100630008C83DF91CF910C94101280E0DF91CF91E9
:1006400008958F929F92AF92BF92CF92DF92EF92D6
:10065000FF920F931F93CF93DF93EC018D81811154
:1006600002C080E078C00B891C892D893E8904175F
:10067000150726073707A8F36A017B01823029F4A2
:10068000CA86DB86EC86FD860DC0C114D104E10468
:10069000F10451F41E821F82188619861A861B8661
:1006A0001C861D8681E057C08A849B84AC84BD84EF
:1006B000EB8DFC8D258530E0275F3F4FB501A40110
:1006C0004150510961097109022E04C07695679560
:1006D000579547950A94D2F7D701C6010197A1090A
:1006E000B10904C0B695A795979587952A95D2F735
:1006F00084179507A607B70720F089288A288B2832
:1007000071F44F89588D698D7A8D4E835F83688728
:1007100079874C015D018E010A5F1F4F16C0841B53
:10072000950BA60BB70BF5CF4E815F816885798558
:1007300098018B8D9C8D0E94351391E0891A910848
:10074000A108B108882309F48CCF81149104A10475
:10075000B10451F795CFDF91CF911F910F91FF9089
:10076000EF90DF90CF90BF90AF909F908F900895C3
:100770008F929F92AF92BF92CF92DF92EF92FF92B1
:100780000F931F93CF93DF9300D000D0CDB7DEB788
:100790007C0180E2689FF0011124ED58FC4F9385A5
:1007A000917121F0842F827409F08FC0142FD7012A
:1007B00052966C93529740910201509103016091BF
:1007C0000401709105011E964D935D936D937C938A
:1007D00051974489558960E070E0BA015527442754
:1007E000828D938DA0E0B0E0482B592B6A2B7B2B98
:1007F000D70157964D935D936D937C935A9783855C
:10080000887159F4848D958DA68DB78DF701838BF2
:10081000948BA58BB68B81E012C0803109F055C056
:1008200097012D5E3F4FD7015B968D919C915C9710
:100830000E94BA16882309F448C084E0F701858332
:10084000812F8F70D70114968C931497F70116821D
:100850001782108611861A961D921D921D921C9267
:100860001D9716FF34C015968C91813071F511FFDC
:100870002CC0F7014389548965897689452B462B1D
:10088000472B09F461C040E050E0BA01C7010E9463
:1008900021038823D1F0F7018788908CA18CB28C3A
:1008A000C38CD48C82E090E0A0E0B0E0F6018083BD
:1008B0009183A283B3839E012F5F3F4FB501A401B3
:1008C000C6010E943513811104C080E03DC081E063
:1008D0003BC000E010E09801B501A401C6010E94F0
:1008E0009412882391F389809A80AB80BC80D601D2
:1008F00057968C91803129F088EF9FEFAFEFBFE0E2
:1009000004C088EF9FEFA0E0B0E088169906AA0621
:10091000BB0688F2D70157961D921D921D921C921C
:100920005A97F701138A148A158A168A8481806877
:100930008483C7010E94E802882339F240E050E036
:10094000BA01C7010E9421030F900F900F900F90E2
:10095000DF91CF911F910F91FF90EF90DF90CF909B
:10096000BF90AF909F908F900895CF93DF93EC014D
:100970000E94E802882311F01D8281E0DF91CF916F
:1009800008953F924F925F926F927F928F929F92C3
:10099000AF92BF92CF92DF92EF92FF920F931F938D
:1009A000CF93DF93CDB7DEB72C970FB6F894DEBFA9
:1009B0000FBECDBF5C01DC015B968D909C905C9777
:1009C0001696CD90DD90ED90FC901997C114D1044E
:1009D000E104F10439F0BFEFCB1ADB0AEB0AFB0AA2
:1009E000312C07C0F401C080D180E280F380332431
:1009F0003394F40181859285A385B4859C01AD0172
:100A00002F5F3F4F4F4F5F4F29873A874B875C8758
:100A1000260137011D821E821F821886F4018185FE
:100A20009285A385B4852D813E814F8158852817F5
:100A300039074A075B0708F063C089859A85AB854B
:100A4000BC858C159D05AE05BF0550F482E0C82E0F
:100A5000D12CE12CF12C92E0492E512C612C712CDF
:100A60009E012F5F3F4FB701A601C4010E943513BD
:100A7000882309F445C089819A81AB81BC81892B87
:100A80008A2B8B2B41F0260137019FEF491A590A17
:100A9000690A790A05C0C414D504E604F70491F084
:100AA0002D813E814F8158852F5F3F4F4F4F5F4FC4
:100AB0002D833E834F8358873FEFC31AD30AE30A3F
:100AC000F30AACCF0FEF1FEF2FEF3FE0B301A2010E
:100AD000C4010E949412882399F0D50116964D9175
:100AE0005D916D917C9119974115510561057105D5
:100AF00049F093018201C4010E949412811102C045
:100B000080E02AC0D50116964D925D926D927C923E
:100B10001997332051F0D301C2010196A11DB11DD7
:100B2000F40180839183A283B383F5018789908D3B
:100B3000A18DB28D892B8A2B8B2B69F4D501579609
:100B40004D925D926D927C925A9714968C91149767
:100B5000806814968C9381E02C960FB6F894DEBFD3
:100B60000FBECDBFDF91CF911F910F91FF90EF90FE
:100B7000DF90CF90BF90AF909F908F907F906F90BD
:100B80005F904F903F9008958FB7F89480914C03F9
:100B90008FBF089561E0FC0184810E94EF1A80916B
:100BA0004B03811110924B0308958EBD00000DB4CC
:100BB00007FEFDCF8EB508958FEF0C94D5050F93EA
:100BC0001F93CF93DF93EB010E94D61B8B010E94F2
:100BD000DC058F3F49F00E94D61B601B710B6C1720
:100BE0007D07A8F380E001C081E0DF91CF911F91E4
:100BF0000F910895CF93DF93EC018E81882389F0C4
:100C00008F8198859C012F5F3F4F38872F838230DB
:100C1000924018F40E94DC05F3CFCE010E94CA0571
:100C20001E82DF91CF9108958CBD9DBD0895CF9315
:100C3000DF93EC0180914B03811109C081E0809327
:100C40004B0380915B0690915C060E94140660E065
:100C50008C81DF91CF910C94EF1A8F929F92AF927B
:100C6000BF92FF920F931F93CF93DF93EC01F62E69
:100C700049015A010E94FA05CE010E9417066CE252
:100C800071E0CE010E94DF058F2D80640E94D505A2
:100C900008E110E0D501C401002E04C0B695A79567
:100CA000979587950A94D2F70E94D50508501109A7
:100CB000083F8FEF180771F7FF2029F088E0F8123E
:100CC00004C087E803C085E901C08FEF0E94D50505
:100CD00010E00E94DC058A8787FF04C01F3F11F0E7
:100CE0001F5FF7CFDF91CF911F910F91FF90BF90C2
:100CF000AF909F908F900895AF92BF92CF92DF9266
:100D0000EF92FF920F931F93CF93DF93EC01690152
:100D1000C801820F931F8130924008F070C08E810D
:100D2000882371F088819981AA81BB8184179507F6
:100D3000A607B70729F48F819885C816D906B0F59C
:100D4000488359836A837B838B85833039F089E0BC
:100D5000440F551F661F771F8A95D1F79A01AB0183
:100D600061E1CE010E942D06882319F083E08D8376
:100D700046C00E94D61B5B010E94DC058A878F3F1C
:100D800049F40E94D61B6A197B096D327140A0F3A9
:100D90008FE003C08E3F31F08DE08D83CE010E9445
:100DA000CA052DC018861F8281E08E838F819885A9
:100DB0008C159D0540F40E94DC058F819885019675
:100DC00098878F83F3CF6701E00EF11EEC14FD04CA
:100DD00031F00E94DC05F60181936F01F7CF8F811E
:100DE0009885080F191F18870F838985882319F0A4
:100DF0000115124048F0CE010E94FA0505C0CE014F
:100E00000E94CA0580E001C081E0DF91CF911F916F
:100E10000F91FF90EF90DF90CF90BF90AF9008952B
:100E20004F925F926F927F92AF92BF92CF92DF927A
:100E3000EF92FF920F931F93CF93DF931F92CDB743
:100E4000DEB7FC012581222309F4C1C0848180FF23
:100E5000BEC083899489A589B689428453846484F9
:100E6000758484159505A605B70509F4B0C06F0112
:100E70005201F1E0BF22D6015B968D919C915C9767
:100E8000B301A20139E076956795579547953A9554
:100E9000D1F7223071F4FC01828D938DA48DB58D34
:100EA0008A019B01080F191F2A1F3B1FC901B801A6
:100EB0004AC0DC0114961C9111501423A114B104F2
:100EC000F9F411111DC045284628472851F4F601B0
:100ED0008789908DA18DB28D86839783A087B187F6
:100EE0000FC0D60116964D915D916D917C91199729
:100EF00096012A5F3F4F0E943513882309F467C08B
:100F0000F601238D348D86819781A085B185029766
:100F1000A109B109AC01BD01F901058404C0440F68
:100F2000551F661F771F0A94D2F786859785A0897B
:100F3000B189840F951FA61FB71FBC01CD01610F9A
:100F4000711D811D911DD60114962C9126FF0DC097
:100F500040900201509003016090040170900501DF
:100F6000461657066806790699F440E00E944B122F
:100F7000882369F1F501ED58FC4FDE0111969F01C0
:100F80002F5F3F4F2E173F0799F081918D93FACF36
:100F9000FE0131967F0101E010E09501AB01BC013B
:100FA00080917305909174050E947C06882379F0E6
:100FB000F60182859385A485B5850196A11DB11D95
:100FC00082879387A487B587898190E002C08FEFDD
:100FD0009FEF0F90DF91CF911F910F91FF90EF90B6
:100FE000DF90CF90BF90AF907F906F905F904F90C9
:100FF0000895EF92FF920F931F93CF93DF93EC012D
:101000007901411551056105710511F482E13CC07A
:101010008B85833039F089E0440F551F661F771F99
:101020008A95D1F79A01AB0168E1CE010E942D06A5
:10103000882311F084E028C08EEF0E94D505870137
:101040008EEFF81AF80181918F010E94D505E01604
:10105000F106C1F78FEF0E94D5058FEF0E94D505ED
:101060000E94DC058A878F71853031F081E18D83A4
:10107000CE010E94CA0509C068E572E0CE010E9457
:10108000DF05811107C085E18D83CE010E94CA056D
:1010900080E014C020E030E0A9016DE0CE010E94A4
:1010A0002D06811109C00E94DC05811105C0CE0109
:1010B0000E94CA0581E002C084E1E6CFDF91CF91B2
:1010C0001F910F91FF90EF9008952F923F924F92B2
:1010D0005F926F927F928F929F92AF92BF92CF92C8
:1010E000DF92EF92FF920F931F93CF93DF9300D085
:1010F00000D0CDB7DEB78C015B011A01DC0115967B
:101100008C9115978130C9F414968C9181FF15C08C
:1011100082FF1DC0F80143895489658976898285DB
:101120009385A485B58584179507A607B70779F039
:10113000C8010E94210381110AC081E090E0D8011A
:1011400013969C938E93129780E090E036C16101D4
:1011500083C05B968D919C915C97FC0174802FEF0E
:10116000270D2A013B0139E0769467945794479400
:101170003A95D1F7722E74207A01F1E0FF227720A0
:1011800009F476C080E092E08E199F0946018C1523
:101190009D0508F44C01D8015B962D913C915C971C
:1011A00016968D919D910D90BC91A02D0297A1094D
:1011B000B109F901058404C0880F991FAA1FBB1F3C
:1011C0000A94D2F74685578560897189840F951FE7
:1011D000A61FB71F9C01AD01270D311D411D511DDB
:1011E00029013A01811432E0930609F088C0809108
:1011F000020190910301A0910401B09105014816EC
:1012000059066A067B0659F48FEF9FEFDC01809345
:10121000020190930301A0930401B093050195018D
:10122000B301A20180917305909174050E94F907A2
:10123000882309F482CF9EEFB91AC818D908F8019B
:1012400082859385A485B585880D991DA11DB11D45
:1012500082879387A487B587D8011A964D915D91AF
:101260006D917C911D97C114D10409F072CF87C094
:10127000E114F10409F086CF16964D915D916D91C0
:101280007C911997411551056105710559F45796DF
:101290008D919D910D90BC91A02D0097A105B10558
:1012A00041F521C09E012F5F3F4F0E9435138823D7
:1012B00009F44BCF89819A81AB81BC81F801238DE0
:1012C000348DF9012789203129F048EF5FEF6FEF66
:1012D0007FE004C048EF5FEF60E070E0841795079F
:1012E000A607B70730F0C8010E94C10481114ACF98
:1012F00024CFF80186839783A087B18743CFE11479
:10130000F10429F5D8011A964D915D916D917C916A
:101310001D9753968D919D910D90BC91A02D4817CE
:1013200059076A077B0798F00E941012882309F476
:1013300004CF409202015092030160920401709226
:10134000050180916E03816080936E0308C041E0C7
:10135000C301B2010E944B12882309F4EECED501DD
:10136000F701ED58FC4F9F01280D391D2E173F073F
:1013700019F08D918193FACFA80CB91C5ECFF801BA
:1013800083899489A589B68984179507A607B70725
:1013900038F4438B548B658B768B8481806884838F
:1013A000F801848183FD02C0C10107C0C8010E9409
:1013B000E802882309F4C1CEF7CF0F900F900F9069
:1013C0000F90DF91CF911F910F91FF90EF90DF90E1
:1013D000CF90BF90AF909F908F907F906F905F90D5
:1013E0004F903F902F900895609351037093520354
:1013F0008093530390935403DC01CB01845D9E4F93
:10140000AF4FBF4F80934D0390934E03A0934F0374
:10141000B093500382E090E0909358038093570379
:101420000E94D61B6093470370934803809349033F
:1014300090934A030895CF92DF92EF92FF920F9319
:101440001F930E94D61BC0904703D0904803E090A2
:101450004903F0904A038B019C010C191D092E09C8
:101460003F098091510390915203A0915303B09191
:101470005403083E134021053105D0F00196A11D0B
:10148000B11D8093510390935203A0935303B093E3
:101490005403B701A60148515C4F6F4F7F4F4093F3
:1014A0004703509348036093490370934A03C9CF9D
:1014B00040914D0350914E0360914F037091500342
:1014C00084179507A607B70788F1E0915503F091B7
:1014D0005603309759F109956115710581059105FC
:1014E00019F00E94F40922C0809151039091520397
:1014F000A0915303B0915403845D9E4FAF4FBF4FF3
:1015000080934D0390934E03A0934F03B0935003E9
:1015100081E090E02091570330915803232B11F480
:1015200080E090E0909358038093570360915103BB
:101530007091520380915303909154031F910F9126
:10154000FF90EF90DF90CF9008954F925F926F924F
:101550007F928F929F92AF92BF92CF92DF92EF9243
:10156000FF920F931F93CF93DF93FC011681A12F5E
:10157000B0E020E833E341EE51E00E9441264B0108
:101580005C01C2EBD7E09D0104E610E080E9E82EA3
:10159000FF24F394CE01825B974082179307D4F423
:1015A000CE0183709927892B99F4CE01B8010E944E
:1015B0006528892B31F4CE01B7010E946528892B5B
:1015C00039F480E8880E81E5981E81E0A81EB11CE0
:1015D0002196E0CF4580512C2E54384FC90164E646
:1015E00070E00E9465287C01C90160E971E00E94F9
:1015F00065286C0106E111E0C1E0D0E03901A3E00B
:101600006A227724C415D50534F5C230D10589F492
:101610006114710471F4E114F10419F4C114D104DA
:1016200041F4B0E88B0EBBE39B1EB6E2AB1EB11CCF
:101630000EC0D8018C91A82FB0E020E831E541E040
:1016400050E00E944126860E971EA81EB91E2196C4
:101650000F5F1F4FD7CF4181228130E0A0E1BEE074
:101660000E94AD266B017C01242F30E0ACE3B0E09A
:101670000E94AD26DC01CB018C0D9D1DAE1DBF1D52
:1016800020816C017D01C20ED11CE11CF11CA481E2
:10169000B0E0119720E831E541E050E00E944C268F
:1016A000DC01CB018C0D9D1DAE1DBF1DBC01CD010C
:1016B000680D791D8A1D9B1DDF91CF911F910F91A0
:1016C000FF90EF90DF90CF90BF90AF909F908F9062
:1016D0007F906F905F904F9008956F927F928F925E
:1016E0009F92AF92BF92CF92DF92EF92FF920F93B1
:1016F0001F93CF93DF936B017C01EA018CE3882E6B
:10170000912CA12CB12CC701B601A50194010E9416
:101710008B266883CA01B901A50194010E948B261A
:101720006983C701B60120E13EE040E050E00E943D
:101730008B26CA01B90128E130E040E050E00E9468
:101740008B266A83C701B60120E831E541E050E00D
:101750000E948B2669017A01CA01B9016C5F7F4F33
:101760008F4F9F4F27E030E040E050E00E948B26F3
:101770006F5F6B83812C912C540140E094E6692EBD
:10178000712C00E911E0242F30E02E54384FF9017C
:10179000E370FF27309789F4C901B3010E946528DF
:1017A000892B31F4C901B8010E946528892B29F4DD
:1017B0008EE691E0A0E0B0E004C08DE691E0A0E00C
:1017C000B0E0880E991EAA1EBB1ED501C401AA272F
:1017D000BB27C816D906EA06FB0610F04F5FD3CF29
:1017E0004E83309799F4C90164E670E00E94652841
:1017F000892B39F4C90160E971E00E946528892BC1
:1018000029F48EE691E0A0E0B0E004C08DE691E01E
:10181000A0E0B0E0881A990AAA0ABB0AC818D90839
:10182000EA08FB08C90164E670E00E9465288C01A3
:10183000C90160E971E00E946528A6E1B1E020E0FD
:10184000213041F4309751F40115110529F4009726
:1018500029F402C04C9103C04DE101C04CE150E0BD
:1018600060E070E0C416D506E606F70640F0C41A3C
:10187000D50AE60AF70A2F5F11962C3009F72F5F79
:101880002D83C394CC82DF91CF911F910F91FF9054
:10189000EF90DF90CF90BF90AF909F908F907F9010
:1018A0006F900895CF92DF92EF92FF92C090430322
:1018B000D0904403E0904503F0904603C616D70647
:1018C000E806F90671F06B017C0149E553E00E94DE
:1018D0006D0BC0924303D0924403E0924503F09213
:1018E0004603FF90EF90DF90CF9008951F920F92E4
:1018F0000FB60F9211242F933F934F935F936F93E3
:101900007F938F939F93AF93BF93EF93FF938091B8
:10191000B900887F803609F49CC068F5883209F4E4
:101920005BC090F4803109F454C038F4882309F482
:10193000F2C0883009F44DC0F2C0883109F44CC0BF
:10194000803209F45DC0EBC0803409F468C048F40B
:10195000803309F455C0883309F0E1C080931B033C
:10196000D4C0803509F44FC0883509F45DC088348F
:1019700009F0D5C0D2C0883909F4C3C0A8F48837AB
:1019800009F467C038F4883609F463C0803709F475
:1019900060C0C5C0883809F4B4C0803909F45FC09C
:1019A000803809F0BCC05BC0803B09F484C038F4C7
:1019B000803A09F466C0883A09F47DC0B0C0803C22
:1019C00009F4A3C0883C09F4A0C0883B09F486C090
:1019D000A6C08091410310C09091400380913F03C5
:1019E000981770F5E091400381E08E0F80934003DB
:1019F000F0E0E15EFC4F80818093BB0085EC82C00B
:101A000080931B038AC0E091400381E08E0F809396
:101A100040038091BB00F0E0E15EFC4F8083909139
:101A2000400380913F036AC0E091400381E08E0F44
:101A3000809340038091BB00F0E0E15EFC4F808327
:101A400080911E03811169C081E080931D0384EAA7
:101A50005DC083E080931C0310921A03CFCF809166
:101A60001A03803208F04DC0E0911A0381E08E0F16
:101A700080931A038091BB00F0E0E650FD4F808315
:101A8000BDCF85EC8093BC0010921C0380911A039B
:101A9000803230F4E0911A03F0E0E650FD4F1082FE
:101AA00060911A0370E08AEF92E0E0E0F0E00995BF
:101AB00010921A0334C084E080931C031092F90240
:101AC0001092F802E0E0F0E009958091F8028111AF
:101AD00005C081E08093F8021092D802E091F902EB
:101AE00081E08E0F8093F902F0E0E852FD4F808193
:101AF0008093BB009091F9028091F802981708F446
:101B00007DCF85E88093BC000AC085EC8093BC0043
:101B100010921C0304C010921B030E947C02FF91D0
:101B2000EF91BF91AF919F918F917F916F915F9155
:101B30004F913F912F910F900FBE0F901F901895CE
:101B40008F929F92AF92BF92CF92DF92EF92FF92CD
:101B50004B015C010E94520C80915D0360E090E0BB
:101B60000E94CA02C501B4010E94520CC0905F03DA
:101B7000D12C8EE4C81A88EFD80A0D2C000CEE0880
:101B8000FF08C501B4010E94520C20915E0383E05E
:101B9000289F90011124AEECB2E080E090E0F901C2
:101BA000E80FF91FE454FE4FE491ED930196833062
:101BB0009105A9F71092D1026EEC72E085E795E0ED
:101BC0000E94C30F4AE050E0C701B6010E942216EE
:101BD00080E20E941D16C501B4010E94520C809142
:101BE0005B036AE390E00E94CA02C501B4010E944F
:101BF000520C80915A036AE390E00E94CA02C50128
:101C0000B4010E94520C8091590360E290E00E945E
:101C1000CA0285E795E0FF90EF90DF90CF90BF90EC
:101C2000AF909F908F900C94D80FCF92DF92EF924D
:101C3000FF920F931F93CF93DF936C017A018B0177
:101C4000C0E0D0E0CE15DF0581F0D8016D918D01A7
:101C5000D601ED91FC910190F081E02DC60109952E
:101C6000892B11F02196EECF7E01C701DF91CF9134
:101C70001F910F91FF90EF90DF90CF900895FC019E
:101C8000538D448D252F30E0842F90E0821B930BE1
:101C9000541710F0CF96089501970895FC01918D87
:101CA000828D981761F0828DDF01A80FB11D5D96BE
:101CB0008C91928D9F5F9F73928F90E008958FEF2C
:101CC0009FEF0895FC01918D828D981731F0828DE0
:101CD000E80FF11D858D90E008958FEF9FEF089537
:101CE000FC01918D228D892F90E0805C9F4F821B9B
:101CF00091098F739927089585E795E00E94700EEA
:101D000021E0892B09F420E0822F0895FC01848DC5
:101D1000DF01A80FB11DA35ABF4F2C91848D90E015
:101D200001968F739927848FA689B7892C93A089F0
:101D3000B1898C91837080648C93938D848D98137A
:101D400006C00288F389E02D80818F7D808308950D
:101D5000EF92FF920F931F93CF93DF93EC0181E0FB
:101D6000888F9B8D8C8D981305C0E889F9898081B7
:101D700085FD26C0F62E0B8D10E00F5F1F4F0F73F1
:101D80001127E02E8C8DE8120CC00FB607FCFACF9D
:101D9000E889F989808185FFF5CFCE010E94860E02
:101DA000F1CF8B8DFE01E80FF11DE35AFF4FF0825A
:101DB0009FB7F8940B8FEA89FB89808180620AC003
:101DC0009FB7F894EE89FF896083E889F98980815B
:101DD0008370806480839FBF81E090E0DF91CF912A
:101DE0001F910F91FF90EF900895CF93DF93EC0137
:101DF000888D8823C9F0EA89FB89808185FD05C02B
:101E0000A889B9898C9186FD0FC00FB607FCF5CF64
:101E1000808185FFF2CFA889B9898C9185FFEDCFAC
:101E2000CE010E94860EE7CFDF91CF91089580E02A
:101E300090E0892B29F00E947C0E81110C94000007
:101E40000895DC015996ED91FC915A973097B9F0BD
:101E500083899489A589B68942855385648575856A
:101E6000841B950BA60BB70B811520E89207A105E3
:101E7000B10538F08FEF9FE7A0E0B0E0089580E073
:101E800090E00895CF93DF931F92CDB7DEB76983BB
:101E9000DC01ED91FC910280F381E02D41E050E006
:101EA000BE016F5F7F4F09950F90DF91CF9108952D
:101EB0000E94B429FC01818D928D009711F00C9441
:101EC000E8020895FC01818D928D009711F00C9429
:101ED00010078FEF9FEF08950F931F93CF93DF931A
:101EE000FC01818D928D0097B9F0EF010E941007DF
:101EF0008C010F3F8FEF180791F0898D9A8DFC01AF
:101F00004285538564857585415051096109710980
:101F10000E942103C80105C080E090E002C08FEF5D
:101F20009FEFDF91CF911F910F910895CF93DF9392
:101F3000EC01898D9A8D009739F481E090E09B83C4
:101F40008A8380E090E00BC0FC01138212820E9421
:101F50006508E98DFA8D22813381232B71F7DF919A
:101F6000CF910895CF93DF931F92CDB7DEB76983EA
:101F700041E050E0BE016F5F7F4F0E9465080F9007
:101F8000DF91CF9108956115710579F0FB01019002
:101F90000020E9F73197AF01461B570BDC01ED91AB
:101FA000FC910280F381E02D099480E090E0089597
:101FB0006DEB72E00C94C30F0F931F93CF93DF93DD
:101FC000EC010E94C30F8C01CE010E94D80F800F3C
:101FD000911FDF91CF911F910F9108951F920F9242
:101FE0000FB60F9211242F933F934F935F936F93EC
:101FF0007F938F939F93AF93BF93EF93FF9385E767
:1020000095E00E94860EFF91EF91BF91AF919F9155
:102010008F917F916F915F914F913F912F910F9091
:102020000FBE0F901F9018951F920F920FB60F9230
:1020300011242F938F939F93EF93FF93E091850546
:10204000F09186058081E0918B05F0918C0582FDF1
:1020500012C0908180918E058F5F8F7320918F05C4
:10206000821751F0E0918E05F0E0EB58FA4F958F12
:1020700080938E0501C08081FF91EF919F918F9198
:102080002F910F900FBE0F901F9018950F931F93D5
:10209000CF93DF93C0E0D0E0082F10E0B8010C2E02
:1020A00002C0759567950A94E2F7617080915E06AB
:1020B0000E94EF1A61E080915D060E94EF1A60E0D5
:1020C00080915D060E94EF1A2196C830D10531F744
:1020D000DF91CF911F910F910895BF92CF92DF9220
:1020E000EF92FF920F931F93CF93DF9360E0809165
:1020F0005E060E941E1BC0E0D0E010E0C12CD12C77
:102100007601C39420915E0630E0F901E659FB4F59
:102110008491F901EA5AFB4F0491F901EE5BFB4F00
:10212000B490BB2099F181110E94C61AEB2DF0E00A
:10213000EE0FFF1FEC5DFB4FA591B491EC910E23C8
:1021400029F1D701C6010C2E04C0880F991FAA1FC0
:10215000BB1F0A94D2F7182B61E080915D060E94A4
:10216000EF1A60E080915D060E94EF1A2196C83058
:10217000D10509F0C7CF812FDF91CF911F910F912A
:10218000FF90EF90DF90CF90BF900895D701C601E8
:102190000C2E04C0880F991FAA1FBB1F0A94D2F7E8
:1021A00080951823D9CF60E080915F060E94EF1AD6
:1021B0008BE090E00197F1F7089560E080915F0671
:1021C0000E94EF1A61E080915F060E941E1B60E092
:1021D00080915D060E94EF1A61E080915D060E9489
:1021E0001E1B61E080915E060E941E1B61E08091D3
:1021F0005F060E94EF1A8BE090E00197F1F70895D7
:10220000EF92FF920F931F93CF93DF93CDB7DEB77B
:102210002F970FB6F894DEBF0FBECDBF0E94DD1022
:102220008FEB0E944610CE0101967C018E01075F64
:102230001F4F0E946D10F70181937F010E171F073A
:10224000C1F70E94D3108981682F669566956695BF
:102250006E70962F990F990F690F8F70680F6987AD
:102260008A81482F4695469546954E70942F990F32
:10227000990F490F8F70480F4A878B81382F3695F9
:10228000369536953670932F990F990F390F8F70B9
:10229000380F3B878C81282F26952695269526700A
:1022A000922F990F990F290F8F70280F2D878D81ED
:1022B00084FB992790F9990F592F550F550F950FBA
:1022C0008F70980F9E875E8157705C878F81782F03
:1022D00072957F708F70825EFAE07F9F800D11246F
:1022E0008F876C3398F44C3388F4383178F421506C
:1022F0002F3160F491509C3048F45150573030F4F5
:10230000843620F4C8010E94A50A03C060E070E092
:10231000CB012F960FB6F894DEBF0FBECDBFDF9175
:10232000CF911F910F91FF90EF900895CF930E944E
:10233000DD108FE80E9446100E946D10C82F0E9489
:10234000D3108C2F8095881F8827881FCF910895E0
:102350001F920F920FB60F9211248F930FB6F8941D
:10236000A895809160008861809360001092600061
:102370000FBE8F910F900FBE0F901F901895FC010C
:10238000DB0112968D919C911397938382838AE44B
:1023900091E09183808314968C9114978483159691
:1023A0008C911597858316964D915D916D917C91D9
:1023B000199746835783608771871A964D915D916F
:1023C0006D917C911D9742875387648775871E9610
:1023D0004D915D916D917C91519746875787608BA8
:1023E000718B52968C915297828B53964D915D9141
:1023F0006D917C915697438B548B658B768B57965A
:102400004D915D916D917C915A97478B508F618F63
:10241000728F5B968D919C915C97948F838F0895BA
:1024200080916E038823A9F140910201509103012C
:10243000609104017091050123E733E080917305F9
:10244000909174050E94F907811102C080E00895FF
:1024500040916F035091700360917103709172030A
:10246000411551056105710591F023E733E0809135
:102470007305909174050E94F907882339F310922F
:102480006F031092700310927103109272031092F6
:102490006E0381E008958F929F92AF92BF92EF9268
:1024A000FF920F931F93CF934B015C01C42F809138
:1024B000020190910301A0910401B09105018815DA
:1024C0009905AA05BB0501F10E941012811102C0F5
:1024D00080E020C083E7E82E83E0F82E00E012E0E1
:1024E00020E030E0B501A40180917305909174055E
:1024F0000E947C06882361F380920201909203017E
:10250000A0920401B092050180916E03C82BC09384
:102510006E0381E0CF911F910F91FF90EF90BF90DC
:10252000AF909F908F9008954F925F926F927F929D
:102530008F929F92AF92BF92CF92DF92EF92FF92D3
:102540000F931F93CF93DF93EC0142305105610548
:10255000710510F480E078C089859A85AB85BC85CB
:102560000196A11DB11D84179507A607B70790F323
:10257000CB88DC88ED88FE888F89803129F4BB27E1
:10258000A72F962F852F09C0DB01CA01E7E0B6957A
:10259000A79597958795EA95D1F7480159012A01A2
:1025A0003B01C80ED91EEA1EFB1E809102019091CC
:1025B0000301A0910401B0910501C816D906EA06ED
:1025C000FB0681F48F898031A9F4B301A20155275C
:1025D00066277727440F551FFA01ED58FC4F91826B
:1025E000808219C040E0C701B6010E944B128111E0
:1025F000E9CFB0CFB301A2014F77552766277727E0
:10260000440F551F440F551FFA01ED58FC4F8082AF
:102610009182A282B38280916E03816080936E0367
:102620008A89823080F08D819E81AF81B885C80E05
:10263000D91EEA1EFB1EC0926F03D0927003E09277
:102640007103F092720381E0DF91CF911F910F919E
:10265000FF90EF90DF90CF90BF90AF909F908F90C2
:102660007F906F905F904F9008958F929F92AF925E
:10267000BF92CF92DF92EF92FF920F931F93CF936F
:10268000DF93FC0181859285A385B4850196A11D08
:10269000B11D84179507A607B70710F480E05BC04B
:1026A00083889488A588B6888789803129F4BB27D8
:1026B000A72F962F852F09C0DB01CA01C7E0B69569
:1026C000A79597958795CA95D1F7E9016A017B018E
:1026D0008F01BC01CD01680D791D8A1D9B1D809065
:1026E000020190900301A0900401B09005016815CB
:1026F00079058A059B0591F4F80187898031A1F459
:10270000DD24EE24FF24C601880F991FFC01ED583B
:10271000FC4F80819181A0E0B0E018C040E00E94B1
:102720004B128111E9CFBACFE894C7F8DD24EE242B
:10273000FF24C601880F991F880F991FFC01ED58CF
:10274000FC4F80819181A281B381BF70888399837E
:10275000AA83BB8381E0DF91CF911F910F91FF90FE
:10276000EF90DF90CF90BF90AF909F908F900895A3
:102770002F923F924F925F926F927F928F929F9291
:10278000AF92BF92CF92DF92EF92FF920F931F937F
:10279000CF93DF93CDB7DEB72B970FB6F894DEBF9C
:1027A0000FBECDBF7C01FE013196CE010C966F01AC
:1027B00030E23193E817F907E1F7DA0130E087E01A
:1027C0009D91992331F19E3231F48A3009F46BC125
:1027D00038E08AE0F5CFE4E1F4E04491442321F0CD
:1027E00031969413FACF5FC1831708F45CC14FEDA3
:1027F000490F4E3508F057C141E0430FF601E30F92
:10280000F11D3FE9390F3A3108F490529083342F8B
:10281000D7CF8981803209F446C1322E8B01DB018A
:102820005B968D919C915C97F701948F838F1696A0
:102830001D921D921D921C921997FB011286138600
:1028400014861586B12CF80182859385A485B585FB
:10285000438954896589768984179507A607B70740
:1028600008F05BC025E0B695A795979587952A95C2
:10287000D1F7F82FFF70AF2ED80115968C918230CA
:1028800008F411C1C8010E94100797FD0CC1F8019E
:1028900082859385A485B5854F96A11DB11D82873C
:1028A0009387A487B587F0E2AF9EB00111246D58DD
:1028B0007C4F6115710509F4F6C0DB018C9188230A
:1028C00019F0853EC1F4F1C0B1100EC0F701A28A23
:1028D0008091020190910301A0910401B091050142
:1028E00086879787A08BB18BDB018C91882399F029
:1028F000BB24B394A8CF4BE050E0C6010E94B92995
:10290000892B09F0A0CF832D8073803309F4CBC0CD
:10291000432D6A2DC4C0BB24B394832D82718231B0
:1029200009F0C1C0BB20C1F0F701668577858089B9
:10293000918941E00E944B12882309F4B4C0D70169
:1029400052968C91B0E28B9FC00111248D589C4F00
:10295000009709F078C0A7C0F8018581823009F49A
:10296000A2C0C8010E94C104882309F49CC0D801F8
:102970005B96ED91FC915C9716968D909D90AD9035
:10298000BC901997B2E08B1A9108A108B108058490
:1029900004C0880C991CAA1CBB1C0A94D2F786851B
:1029A0009785A089B189880E991EAA1EBB1E248016
:1029B000E1E08E1A9108A108B108222009F1240152
:1029C0003501420C511C611C711C0E94101288239D
:1029D00009F469C0E3E7F3E0119225E0E337F20779
:1029E000D9F7409202015092030160920401709263
:1029F000050180916E03816080936E032A94DDCF80
:102A0000D8015B96ED91FC915C9780E092E0A0E0AC
:102A1000B0E0058404C0880F991FAA1FBB1F0A9449
:102A2000D2F7F8014389548965897689840F951F07
:102A3000A61FB71F838B948BA58BB68BD70152969D
:102A40001C9283E793E020E2FC0111922A95E9F7BA
:102A50002BE0F601DC0101900D922A95E1F721E2CD
:102A600038E2DC0151963C932E93509740E058E0B9
:102A70001F965C934E931E9753963C932E935297BA
:102A800059963C932E93589757965C934E9356972E
:102A90000E941012882339F0432DF7016289C70183
:102AA0000E94B80305C080E003C0B11021CF0ECF53
:102AB0002B960FB6F894DEBF0FBECDBFDF91CF913E
:102AC0001F910F91FF90EF90DF90CF90BF90AF904C
:102AD0009F908F907F906F905F904F903F902F903E
:102AE00008958F929F92AF92BF920F931F93CF93AF
:102AF000DF93CDB7DEB7A1970FB6F894DEBF0FBE58
:102B0000CDBF19A2423008F44AE08E010F5D1F4F7D
:102B1000842E912CA12CB12CA50194010E948B260E
:102B2000E62FB901CA0101501109EA3014F4E05D41
:102B300001C0E95CD801EC93232B242B252B61F7F2
:102B4000B80185E795E00E94C30FA1960FB6F894EF
:102B5000DEBF0FBECDBFDF91CF911F910F91BF9010
:102B6000AF909F908F900895EF92FF920F931F93D5
:102B7000CF93DF93EC017B018A011B821A8288EEDE
:102B800093E0A0E0B0E08C839D83AE83BF8386E2B8
:102B900091E0998388838DE190E00E9493289A8F39
:102BA000898F009779F02DE1F701DC0101900D92FA
:102BB0002A95E1F74CE050E0B801CE010C960E9456
:102BC000DC29188EDF91CF911F910F91FF90EF902C
:102BD00008950F931F930E94D61B60937D057093F9
:102BE0007E0580937F059093800585E795E00E94A0
:102BF000620E97FF1FC00E94D61B00917D051091A9
:102C00007E0520917F0530918005DC01CB01801B82
:102C1000910BA20BB30B0091790510917A052091CD
:102C20007B0530917C0580179107A207B307E8F276
:102C30008FEF9FEF1F910F910895682F85E795E023
:102C40000C94A80ECF92DF92EF92FF92CF93DF9376
:102C50004115510551F485E795E0DF91CF91FF9043
:102C6000EF90DF90CF900C94A80E4A305105E1F41C
:102C700097FF19C06B017C018DE20E941D16EC01CB
:102C800066277727CB016C197D098E099F094AE0D9
:102C90000E9471158C0F9D1FDF91CF91FF90EF90D7
:102CA000DF90CF9008954AE0DF91CF91FF90EF90B1
:102CB000DF90CF900C947115CF93DF93FB012281AD
:102CC0003381DC0113963C932E93129744815581F6
:102CD0006681778114964D935D936D937C931797DE
:102CE000408551856285738518964D935D936D93EC
:102CF0007C931B971C96EF012C969C01275E3F4FFF
:102D000049914D93A217B307D9F7218D328DFC015C
:102D1000328F218FDF91CF910895CF93DF93EC0114
:102D2000898D9A8D009741F00E94B504898D9A8D06
:102D30000E942B291A8E198EDF91CF9108950F933F
:102D40001F93CF93DF938C01C0E0D0E0F801EC0F2C
:102D5000FD1F6491662341F085E795E00E94A80E6F
:102D6000892B11F02196F2CFCE01DF91CF911F91E7
:102D70000F9108954F925F926F927F92AF92BF92A0
:102D8000CF92DF92EF92FF920F931F93CF93DF9337
:102D900000D000D0CDB7DEB78C0149835A836B8356
:102DA0007C835901C12CD12C7601412C82E0582E14
:102DB000612C712C49815A816B817C819E012F5F2E
:102DC0003F4FC8010E943513882351F1D301C2013E
:102DD000F801058404C0880F991FAA1FBB1F0A941D
:102DE000D2F7C80ED91EEA1EFB1E49815A816B819B
:102DF0007C818789803129F088EF9FEFAFEFBFE0BA
:102E000004C088EF9FEFA0E0B0E0481759076A07B9
:102E10007B0780F2F501C082D182E282F38281E0F9
:102E20000F900F900F900F90DF91CF911F910F9106
:102E3000FF90EF90DF90CF90BF90AF907F906F901A
:102E40005F904F900895CF93DF93FC01258122235B
:102E500011F080E049C0EC01809135068031C1F469
:102E600082E08583178A108E118E128E809136062D
:102E700090913706A0E0B0E025E0880F991FAA1FC7
:102E8000BB1F2A95D1F7838B948BA58BB68B19C06A
:102E90008032F9F683E085834091380650913906F7
:102EA00060913A0670913B06478B508F618F728F0D
:102EB0009F012D5E3F4F8EE196E00E94BA16882357
:102EC00041F28EE196E09C8F8B8F81E08C831E8295
:102ED0001F82188619861A861B861C861D861E86EA
:102EE0001F86188A198A1A8ADF91CF9108953F9216
:102EF0004F925F926F927F928F929F92AF92BF920A
:102F0000CF92DF92EF92FF920F931F93CF93DF93B5
:102F1000CDB7DEB7C456D1090FB6F894DEBF0FBEE9
:102F2000CDBF6C01362E19A218A28AE491E09F8FC2
:102F30008E8F1BA21C821B829A8389831E825E0154
:102F40008EE1A80EB11CC5010E942317FE01319627
:102F50007F01350107E011E02F016FE270E0C80149
:102F60000E94D129009709F443C0F80120812F3233
:102F700019F40F5F1F4FF1CF801B8D3008F08CE0EC
:102F8000882E912CA401B801CE01885A9F4F0E942F
:102F9000DC29E8E5F0E0EC0FFD1FE80DF91D1082DB
:102FA000C7010E94B504F7018581882361F01EAE38
:102FB0001DAE8AE491E09CAF8BAF21961FAE2197A6
:102FC00000E010E01CC021E0AE01485A5F4FB301A1
:102FD000C7010E94B813882351F3080D191DC301BE
:102FE0000E94B504962D872D3701E92EF82EB5CF16
:102FF00007501140B301CE01CB960E94BF11095F6B
:103000001E4FF8018081811109C0BE01655C7F4FB0
:10301000C2010E94BF1140EC52E03DC019A218A2AB
:103020008AE491E09F8F8E8F1BA221968FAD21970E
:10303000811113C0F6011382128288EE93E0A0E0A2
:10304000B0E084839583A683B78386E291E0918381
:103050008083128E118E148622C0232DA801BE01FA
:10306000655C7F4FC5010E94B813882319F3CE0118
:10307000CB960E94B504832D8670863039F449A919
:103080005AA96BA97CA9C5010E942103B501C201FF
:103090000E94BF11A801B201C6010E94B415C60169
:1030A000CC59DF4F0FB6F894DEBF0FBECDBFDF9116
:1030B000CF911F910F91FF90EF90DF90CF90BF9035
:1030C000AF909F908F907F906F905F904F903F90C8
:1030D00008958F929F92AF92BF92CF92DF92EF921C
:1030E000FF920F931F93CF93DF936B017C01142FFB
:1030F0009B01AC010E941F28882319F062EC72E04A
:1031000027C046015701E894B7F82FEF3FEF4FE78C
:103110005FE7C501B4010E941F2881110DC02FEF88
:103120003FEF4FE75FE7C501B4010E941D25181668
:103130001CF466EC72E00CC02FEF3FEF4FE75FE44A
:10314000C701B6010E94CA27181694F46AEC72E00F
:1031500085E795E0DF91CF911F910F91FF90EF9060
:10316000DF90CF90BF90AF909F908F900C94C30F43
:103170002FEF3FEF4FE75FECC701B6010E941D251F
:1031800087FDE4CF20E030E0A901C701B6010E942D
:103190001D2587FF09C08DE20E941D16EC01F7FA7C
:1031A000F094F7F8F09402C0C0E0D0E000E060E0F6
:1031B00070E080E09FE3101741F020E030E040E253
:1031C00051E40E9429270F5FF6CFA70196010E94C4
:1031D000BD266B017C010E949B274B015C014AE0EC
:1031E0000E947115C80FD91F1123A9F1C501B4019F
:1031F0000E9422259B01AC01C701B6010E94BC269A
:103200006B017C018EE20E941D16C80FD91F20E0C1
:1032100030E040E251E4C701B6010E9483254B0132
:103220005C010E949B276B01E12CF12C4AE0C70155
:10323000B6010E947115C80FD91FC701B6010E94BF
:1032400022259B01AC01C501B4010E94BC266B0183
:103250007C011150E1F6CE01DF91CF911F910F91CA
:10326000FF90EF90DF90CF90BF90AF909F908F90A6
:103270000895CF92DF92EF92FF92CF930E94E915CB
:10328000FC0197FD0BC08D32910561F0C0970A9744
:1032900048F085E795E00E944E0EF0CF60E070E0C8
:1032A000CB0140C0C12CD12C7601C0E0E130F1054A
:1032B00001F1ED32F105E1F0CF01C0970A97C8F4B2
:1032C000AAE0B0E0A70196010E9441266F01FF0F1E
:1032D000EE08FF08DC01CB018C0D9D1DAE1DBF1D4E
:1032E0006C017D0120E3C21AD108E108F10801C098
:1032F000C1E085E795E00E944E0E0E94E915FC01B1
:10330000C0970A9798F2E130F10581F2CC2341F0A1
:1033100066277727CB016C197D098E099F0902C0AA
:10332000C701B601CF91FF90EF90DF90CF90089545
:103330008F929F92AF92BF92CF92DF92EF92FF92C5
:10334000CF93DF93C82F82E196E09093740580932A
:103350007305CC2369F1C53010F080E00CC140E06A
:1033600060E070E0CB010E944B128823B1F320E1B2
:10337000C29FC00111248D599C4FFC01E254FE4FA5
:1033800020812F7751F73C96408151816281738172
:10339000443651056105710500F33497C080D18032
:1033A000E280F380C114D104E104F10421F4D5CF0B
:1033B000C12CD12C760140E0C701B6010E944B120E
:1033C000882359F280917E0390917F03811592406A
:1033D00021F6A0918303AA2309F4BFCF6091810352
:1033E000709182036115710509F4B7CF20918003B4
:1033F000222309F4B2CFA09330062093220680E066
:1034000030E041E050E0C82FFA01082E02C0EE0F74
:10341000FF1F0A94E2F72E173F0739F08F5FC8307D
:1034200091F789E080932B0698CF80932B0620910B
:10343000890330918A032115310519F040E050E0ED
:1034400008C02091970330919803409199035091BF
:103450009A03209323063093240640932506509325
:10346000260646015701860E971EA11CB11C8092AC
:10347000310690923206A0923306B0923406E09163
:103480008403F0918503F0933706E0933606B0E0AD
:103490000E944126860E971EA81EB91E80923806ED
:1034A00090923906A0923A06B0923B0685E0EE0F64
:1034B000FF1F8A95E1F7E150FE4FEF2FFF27E695BA
:1034C0008E0E9F1EA11CB11C80922C0690922D0680
:1034D000A0922E06B0922F0620918603309187038A
:1034E0002115310521F0A90160E070E008C040918C
:1034F0009303509194036091950370919603D701C3
:10350000C60188199909AA09BB09840F951FA61F2E
:10351000B71F04C0B695A79597958795CA95D2F71A
:103520008093270690932806A0932906B0932A0635
:10353000853F2FE09207A105B10510F48CE018C07B
:10354000853F9F4FA105B10510F480E111C0809126
:103550009F039091A003A091A103B091A203809337
:10356000380690933906A0933A06B0933B0680E262
:103570008093350681E0DF91CF91FF90EF90DF904F
:10358000CF90BF90AF909F908F900895833081F03F
:1035900028F4813099F08230A1F008958730A9F0A5
:1035A0008830B9F08430D1F4809180008F7D03C0E1
:1035B000809180008F7780938000089584B58F7705
:1035C00002C084B58F7D84BD08958091B0008F774F
:1035D00003C08091B0008F7D8093B00008951F9349
:1035E000CF93DF93282F30E0F901E659FB4F849108
:1035F000F901EA5AFB4FD491F901EE5BFB4FC491FC
:10360000CC23C1F0162F81110E94C61AEC2FF0E0D6
:10361000EE0FFF1FE85CFB4FA591B4919FB7F894A4
:10362000111104C08C91D095D82302C0EC91DE2BEF
:10363000DC939FBFDF91CF911F910895CF93DF93CC
:1036400090E0FC01EA5AFB4F2491FC01EE5BFB4F3A
:103650008491882361F190E0880F991FFC01E25D5D
:10366000FB4FC591D491FC01E85CFB4FA591B4914F
:10367000611109C09FB7F8948881209582238883BF
:10368000EC912E230BC0623061F49FB7F8948881CF
:10369000322F309583238883EC912E2B2C939FBF60
:1036A00006C08FB7F894E8812E2B28838FBFDF9157
:1036B000CF9108958E3008F08E502091060190E44D
:1036C000299F900111248770822B80937C00809128
:1036D0007A00806480937A0080917A0086FDFCCF26
:1036E000809178002091790090E0922B08958F923C
:1036F0009F92AF92BF92CF92DF92EF92FF926B01B7
:103700007C010E94B11B4B015C01C114D104E10496
:10371000F104F1F00E94B11BDC01CB018819990979
:10372000AA09BB09883E9340A105B10570F321E0C9
:10373000C21AD108E108F10888EE880E83E0981ECD
:10374000A11CB11CC114D104E104F10419F7DDCFAF
:10375000FF90EF90DF90CF90BF90AF909F908F90B1
:1037600008953FB7F8948091720690917306A091E6
:103770007406B091750626B5A89B05C02F3F19F0B9
:103780000196A11DB11D3FBFBA2FA92F982F8827E1
:10379000820F911DA11DB11DBC01CD0142E0660F3C
:1037A000771F881F991F4A95D1F708952FB7F8946E
:1037B00060916E0670916F0680917006909171060F
:1037C0002FBF08951F920F920FB60F9211242F93BF
:1037D0003F938F939F93AF93BF9380916E06909189
:1037E0006F06A0917006B091710630916D0623E0CE
:1037F000230F2D3720F40196A11DB11D05C026E829
:10380000230F0296A11DB11D20936D0680936E06B5
:1038100090936F06A0937006B09371068091720624
:1038200090917306A0917406B09175060196A11D42
:10383000B11D8093720690937306A0937406B093A3
:103840007506BF91AF919F918F913F912F910F90EE
:103850000FBE0F901F901895CF93DF93CDB7DEB7B3
:10386000C858D1090FB6F894DEBF0FBECDBF78940B
:1038700084B5826084BD84B5816084BD85B5826075
:1038800085BD85B5816085BD80916E008160809326
:103890006E0010928100809181008260809381008F
:1038A000809181008160809381008091800081609F
:1038B000809380008091B10084608093B1008091FA
:1038C000B00081608093B00080917A008460809322
:1038D0007A0080917A00826080937A0080917A00E9
:1038E000816080937A0080917A00806880937A006A
:1038F0001092C10010920601E0918505F0918605B5
:1039000082E08083E0918105F09182051082E09150
:103910008305F09184058FEC808310928D05E091F2
:103920008905F0918A0586E08083E0918705F09112
:103930008805808180618083E0918705F09188050A
:10394000808188608083E0918705F091880580817F
:1039500080688083E0918705F091880580818F7D64
:10396000808360E08DE00E94EF1A60E088E00E94B2
:10397000EF1A61E081E10E941E1B60E081E10E947C
:10398000EF1A80E091E19093560380935503809164
:10399000510390915203A0915303B091540380932B
:1039A0004D0390934E03A0934F03B09350030E9496
:1039B0001B0A60E771E085E795E00E94DC0F64E890
:1039C00071E085E795E00E94DC0F60E086E00E94F0
:1039D000EF1A61E086E00E941E1B61E087E00E9412
:1039E000EF1A61E087E00E941E1B68E971E085E73D
:1039F00095E00E94DC0F85E795E00E94D80F64EF08
:103A000071E080E090E00E94771B0E94DD1081E869
:103A10000E9446100E946D10182F0E94D31017FFAD
:103A20000AC06DEA71E085E795E00E94DC0F85E74A
:103A300095E00E94D80F0E94961181110AC064EC93
:103A400071E085E795E00E94DC0F85E795E00E9434
:103A5000D80F68E873E180E090E00E94771B0E9435
:103A600000116B017C010E94520C80915F0390E079
:103A7000C097ECF48EE792E00E949F1685E795E0F0
:103A80000E94D80FE12C6AE0F62E70E8D72E8E0146
:103A9000075F1F4F0E941B0A8091570390915803A4
:103AA000029789F02AE02E1508F003C40CC085E6C1
:103AB00092E00E949F1685E795E00E94D80FC7010B
:103AC000B6010E94A00D63EF71E085E795E00E94CA
:103AD000DC0F64E871E085E795E00E94DC0F0E944E
:103AE00000110E94520C80915B0390E090930101C1
:103AF0008093000161E089E00E941E1B60E089E084
:103B00000E94EF1A80914106882321F08CE396E011
:103B10000E94B50410921D0610921B061092180602
:103B2000109217068AE0809316060E94D61B8B011E
:103B300061E0809116060E941E1B61E080911606CE
:103B40000E94EF1AFFB6F89480916403811127C098
:103B5000ECE4F4E08491E0E6F4E09491E82FF0E006
:103B6000EE0FFF1FE25DFB4FA591B491EC91E923AD
:103B700021F461E08AE00E94EF1A61E08AE00E948D
:103B80001E1B8CB580618CBD8CB580648CBD61E0E2
:103B90008DE00E941E1B61E08BE00E941E1B809145
:103BA00064038F5F80936403FFBE82E580935B06AE
:103BB00010925C0680915B0690915C060E94140650
:103BC0004AE0F42E8FEF0E94D505FA94F110FACF57
:103BD00082E196E00E94170620E030E0A90160E053
:103BE00082E196E00E942D06F82E80931C0641E0AB
:103BF000841749F00E94D61B601B710B613D774012
:103C000058F381E056C02AEA31E040E050E068E035
:103C100082E196E00E942D0682FF03C0F0921D060D
:103C200010C034E0F32E0E94DC0580931C06FA9449
:103C3000F110F9CF8A3A11F082E03BC082E0809324
:103C40001D0680911D06823021F0C12CD12C7601F9
:103C500005C0C12CD12CE12C20E4F22E20E030E074
:103C6000A90167E382E196E00E942D06A701960173
:103C700069E282E196E00E942D0680931C0688236B
:103C800049F00E94D61B601B710B613D774030F3F9
:103C900088E00FC080911D06823001F520E030E001
:103CA000A9016AE382E196E00E942D06882341F093
:103CB00086E08093170682E196E00E94CA0528C03C
:103CC0000E94DC05807C803C19F483E080931D0613
:103CD0000E94DC050E94DC050E94DC0582E196E082
:103CE0000E94CA0580E580935B0610925C0681E025
:103CF0000E949819882339F08CE396E00E942317DC
:103D0000882331F008C080E00E9498198111F4CF17
:103D100066E072E002C06FE372E085E795E00E9422
:103D2000DC0F8EE6382E98E5C92E92E0D92EFE01E2
:103D300031967F010E9400110E94520C80915B031A
:103D400090E020910001309101012817390734F0EB
:103D5000009709F081C2232B09F47EC290930101E0
:103D60008093000130926D0361E081E10E94EF1ABF
:103D700060E27EE480E090E00E94771B05E010E0C6
:103D8000412C512C3201530142018FE00E945A1BF9
:103D9000BC01990F880B990B0E9424259B01AC0153
:103DA000C501B4010E94BD264B015C0180E10E9467
:103DB0005A1BBC01990F880B990B0E9424259B016B
:103DC000AC01C301B2010E94BD262B013C0164E697
:103DD00070E080E090E00E94771B01501109A9F685
:103DE00020E030E040EA50E4C501B4010E942927F8
:103DF0004B015C0120E030E040EA50E4C301B20135
:103E00000E9429272B013C0186E293E00E949F1625
:103E100042E0C501B4010E94691885E795E00E945F
:103E2000D80F80E193E00E949F1642E0C301B201E7
:103E30000E94691885E795E00E94D80F23E333E3D9
:103E40004BE850E4C501B4010E94832520E030E036
:103E500040E85AE30E9483254B015C0123E333E3EE
:103E60004BE850E4C301B2010E94832520E030E01A
:103E700040E85AE30E9483252B013C0188E093E04F
:103E80000E949F1642E0C501B4010E94691885E7AF
:103E900095E00E94D80F80E093E00E949F1642E0D8
:103EA000C301B2010E94691885E795E00E94D80F0E
:103EB000A501940163E373E38BE890E40E94292752
:103EC00020E030E040E85FE30E94BC2620E030ECD8
:103ED0004AED55E40E9483254B015C01A301920148
:103EE00063E373E38BE890E40E94292720E030E04D
:103EF00040E85FE30E94BC2620E030EC4AED55E448
:103F00000E9483252B013C0187EE92E00E949F16C0
:103F100042E0C501B4010E94691881EE92E00E945E
:103F20009F1685E795E00E94D80F88EC92E00E94EA
:103F30009F1642E0C301B2010E94691882EC92E030
:103F40000E949F1685E795E00E94D80F20E030E49C
:103F50004CE156E4C501B4010E9429270E94D727ED
:103F600020E034EF40E555E40E9429272FE03FECA4
:103F70004BE55BE30E94BD269B01AC0160E070E075
:103F800080E89FE30E94292723E333E948E853E4CC
:103F90000E94BC264B015C016093690370936A0325
:103FA00080936B0390936C0320E030E44CE156E483
:103FB000C301B2010E9429270E94D72720E034EFD5
:103FC00040E555E40E9429272FE03FEC4BE55BE3F9
:103FD0000E94BD269B01AC0160E070E080E89FE399
:103FE0000E94292723E333E948E853E40E94BC26D2
:103FF00060936503709366038093670390936803EF
:1040000083EB92E00E949F1642E0C501B4010E943A
:1040100069188FEA92E00E949F1685E795E00E945A
:10402000D80F4090650350906603609067037090CE
:10403000680380EA92E00E949F1642E0C301B20149
:104040000E9469188CE992E00E949F1685E795E02E
:104050000E94D80F60E081E10E94EF1A10916D0379
:10406000612E012E000C77080E9400110E94520C54
:1040700080905A030E9400110E94520C90905B03A2
:104080000E9400110E94520CA0905D030E9400113A
:104090000E94520C00915E030E9400110E94520C7B
:1040A0007F921F931F921F921F928F921F929F9237
:1040B0001F92AF921F920F9380915F0390E08E54F6
:1040C000984F9F938F93DF92CF92FF92EF920E942F
:1040D000EB296091690370916A0380916B03909161
:1040E0006C038E0103581F4F22E045E00E94CB2253
:1040F000B801C7010E94C6296091650370916603EB
:10410000809167039091680322E045E00E94CB22F2
:1041100067E872E0C7010E94C629B801C7010E9482
:10412000C62985ED93E00E949F1661E0CE018E596D
:104130009F4F0E947717ED96EEADFFADED970FB64E
:10414000F894DEBF0FBECDBF309719F08581811185
:1041500038C067E1CE01895B9F4F0E947717BE018F
:10416000695B7F4FCE018E599F4F0E945C16ED9682
:10417000EEADFFADED97309719F0858181110DC03F
:104180008EE793E00E949F1667E071E085E795E077
:104190000E94C30F8CE793E03CC083E593E00E944C
:1041A0009F1685E795E00E94D80F69E872E0CE017E
:1041B0008E599F4F0E94DC0FCE018E599F4F0E9457
:1041C0008D16CE018E599F4F0E948D1667E1CE014C
:1041D000895B9F4F0E947717BE01695B7F4FCE01BD
:1041E0008E599F4F0E945C16ED96EEADFFADED9798
:1041F000309719F08581811115C08EE393E00E94FC
:104200009F1667E071E085E795E00E94C30F8CE39D
:1042100093E00E949F1685E795E00E94D80F81E009
:1042200090E00DC0B701CE018E599F4F0E94DC0F68
:10423000CE018E599F4F0E948D1680E090E0892B11
:1042400019F084EA93E002C083E993E00E949F168C
:1042500085E795E00E94D80F68E273E280E090E085
:104260000E94771B61E0C7010E947717EA8DFB8DE2
:10427000309719F08581811113C08FEF93E00E9470
:104280009F1667E071E085E795E00E94C30F8DEF10
:1042900093E00E949F1685E795E00E94D80F03C027
:1042A000C7010E94620FC7010E948D160E94170F5E
:1042B00041CD81E492E00E949F1685E795E00E943F
:1042C000D80FE39468E873E180E090E00E94771BE8
:1042D00085E795E00E94700E0C970CF4D4C00E9404
:1042E0003919AB01445651094438534048F48AE126
:1042F00092E00E949F1685E795E00E94D80FC3C008
:10430000683EF3E07F0714F0625B01C0625EA9962D
:104310006FAFA9970E943919A8966FAFA8970E940E
:104320003919A7966FAFA7970E943919A5966FAF55
:10433000A5970E943919A4966FAFA4970E943919C6
:10434000A3966FAFA397CE018E599F4F0E94A50AE7
:104350004B015C01AE01495B5F4F0E946D0B0E94F7
:10436000DD108FE80E9446100E946D10C82E0E943A
:10437000D3100E94DD108EE80E9446108C2D8F779E
:104380000E9446100E94D3100E949611882309F4BF
:1043900066C028968FAD28976F2D0E94592820E17E
:1043A000829F900D1124998329968FAD29970E94A1
:1043B000592840E1849F900D11249A832A968FAD4D
:1043C0002A970E945928E0E18E9F900D11249B832B
:1043D0002C968FAD2C970E945928F0E18F9F900D5D
:1043E00011249C832D968FAD2D970E94592820E192
:1043F000829F900D11249D832B968FAD2B978E83DA
:104400002E968FAD2E978E510E94592840E1849FA1
:10441000900D11249F83D8860E94DD108EEB0E94A0
:104420004610CE0101963C01F30181913F010E94AB
:10443000461060167106C1F70E94D3100E949611B3
:1044400081110DC0C501B4010E94F4098DE092E014
:104450000E949F16C501B4010E94A00D08C08EEFF6
:1044600091E00E949F1685E795E00E94D80F85E7AE
:1044700095E00E94700E181619062CF485E795E059
:104480000E944E0EF4CF0E94001180906003909025
:104490006103A0906203B0906303681579058A05F3
:1044A0009B0551F0609360037093610380936203F6
:1044B000909363030E94A00DFAE0EF1203C084EF13
:1044C00091E005C02BE0E212E5CA84EE91E00E9483
:1044D0009F1685E795E00E94D80FDCCAE5E7F5E076
:1044E0001382128288EE93E0A0E0B0E0848395838B
:1044F000A683B78328E331E03183208325EC30E0C5
:104500003587248724EC30E03787268720EC30E09D
:10451000318B208B21EC30E0338B228B22EC30E08E
:10452000358B248B26EC30E0378B268B118E128E48
:10453000138E148EE2E1F6E0158216821186138640
:1045400042E050E060E070E04487558766877787F7
:1045500013A215A614A62AE431E033A722A717A6B2
:10456000EBE5F6E020E520831182E1E6F6E0138238
:10457000128284839583A683B78382E691E0918338
:10458000808383E080935F0684E080935E0685E00D
:1045900080935D060895EF920F931F93CF93DF935F
:1045A000E80147FD02C034E001C034E1042E000CF4
:1045B000550B57FF03C0519541955109E32E022F2A
:1045C000242FAE010E94EB22CE01DF91CF911F91EB
:1045D0000F91EF900895A9E0B0E0E1EFF2E20C94C2
:1045E0005A266A01122FB02E2BE3201720F0FF2449
:1045F000F394F00E02C02CE3F22E0F2D27E0AE0153
:104600004F5F5F4F0E944524BC014981842F897010
:10461000813031F0E1FC06C0E0FE06C090E205C04A
:104620009DE203C09BE201C090E05E2D507143FF0C
:104630003CC0911102C083E001C084E0811718F4EE
:10464000212F281B01C020E051110BC0F601822F41
:1046500030E2882319F031938150FBCFC20ED11C78
:1046600020E0992329F0D6019C93F60131966F0141
:10467000C6010396E2FE0AC03EE4D6013C9341E443
:1046800011964C93119712963C9306C03EE6F601A4
:10469000308341E641833283FC01322F40E23323F1
:1046A00009F442C041933150FACF42FF44C0911106
:1046B00002C083E001C084E0811718F4212F281B79
:1046C00001C020E051110BC0F601822F30E2882397
:1046D00019F031938150FBCFC20ED11C20E09923F9
:1046E00029F0D6019C93F60131966F01C60103961D
:1046F000E2FE0BC039E4D6013C933EE411963C93B4
:10470000119736E412963C9307C039E6F6013083E0
:104710003EE6318336E63283FC01322F40E233231A
:1047200019F041933150FBCFFC01E20FF11D1082D3
:104730008EEF9FEFA6C021E030E0911102C020E093
:1047400030E0161617061CF4FB01319602C0E1E0BA
:10475000F0E02E0F3F1FBB2021F0EB2DF0E0319653
:1047600002C0E0E0F0E02E0F3F1FE12FF0E02E1737
:104770003F071CF4121B212F01C020E08E2D8871F1
:1047800059F4F601822F30E2882319F031938150D9
:10479000FBCFC20ED11C20E0992329F0D6019C93B7
:1047A000F60131966F0151110BC0F601822F90E393
:1047B000882319F091938150FBCFC20ED11C20E0C9
:1047C0000F2D060F9A81342F307144FF03C09133AF
:1047D00009F40150101624F4093018F008E001C063
:1047E00001E0AB0177FF02C040E050E0FB01E41BB9
:1047F000F50BA1E0B0E0AC0FBD1FEA0FFB1F8EE28E
:10480000A82E4B01801A91080B2D10E011950195EF
:1048100011094F3FBFEF5B0721F4D601AC9211960F
:104820006D01641775072CF08416950614F48181C8
:1048300001C080E3415051093196D60111967D01A6
:104840004017510724F0D6018C936701E2CF64171B
:10485000750739F4963320F4953319F4311101C0FA
:1048600081E3F6018083F701822F90E2882319F01B
:1048700091938150FBCFF701E20FF11D108280E090
:1048800090E02996ECE00C947626283008F027E09A
:104890003327DA01990F311D87FD9160009661057C
:1048A000710539F432602E5F3D9330E32A95E1F7CC
:1048B00008959F3F30F080387105610509F03C5F35
:1048C0003C5F3D93913008F08068911DDF93CF935A
:1048D0001F930F93FF92EF92192F987F9695E92FD0
:1048E00096959695E90FFF27E45EFE4F99273327AB
:1048F000EE24FF24A701E70105900894079428F40B
:10490000360FE71EF81E491F511D660F771F881FBF
:10491000991F0694A1F70590079428F4E70EF81E56
:10492000491F561FC11D770F881F991F661F0694C8
:10493000A1F70590079428F4F80E491F561FC71FCA
:10494000D11D880F991F661F771F0694A1F7059048
:10495000079420F4490F561FC71FD81F990F661FD1
:10496000771F881F0694A9F784911095177041F05E
:10497000D695C79557954795F794E7941A95C1F73B
:10498000E2ECF0E068941590159135916591959160
:1049900005907FE27395E118F10A430B560BC90BA2
:1049A000D009C0F7E10CF11E431F561FC91FD01DCF
:1049B0007EF4703311F48A95E6CFE894015030F01C
:1049C000080F0AF40027021708F4202F2395022F5E
:1049D0007A3328F079E37D932A95E9F710C07D9327
:1049E0002A9589F6069497956795379517951794A4
:1049F000E118F10A430B560BC90BD00998F0239527
:104A00007E9173957A3308F070E37C932013B8F7A6
:104A10007E9170617D9330F0839571E37D9370E3B7
:104A20002A95E1F71124EF90FF900F911F91CF91FC
:104A3000DF91992787FD909508950E945F2508F4DE
:104A400081E00895E89409C097FB3EF49095809525
:104A5000709561957F4F8F4F9F4F9923A9F0F92F44
:104A600096E9BB279395F695879577956795B795C2
:104A7000F111F8CFFAF4BB0F11F460FF1BC06F5FA8
:104A80007F4F8F4F9F4F16C0882311F096E911C0BA
:104A9000772321F09EE8872F762F05C0662371F0DB
:104AA00096E8862F70E060E02AF09A95660F771FEF
:104AB000881FDAF7880F9695879597F90895990FCB
:104AC0000008550FAA0BE0E8FEEF16161706E807D8
:104AD000F907C0F012161306E407F50798F0621BF9
:104AE000730B840B950B39F40A2661F0232B242BCE
:104AF000252B21F408950A2609F4A140A6958FEFED
:104B0000811D811D08950E9496250C9407260E9400
:104B1000F92538F00E94002620F0952311F00C941E
:104B2000F0250C94F62511240C943B260E9418269F
:104B300070F3959FC1F3950F50E0551F629FF001F0
:104B4000729FBB27F00DB11D639FAA27F00DB11D09
:104B5000AA1F649F6627B00DA11D661F829F222792
:104B6000B00DA11D621F739FB00DA11D621F839F19
:104B7000A00D611D221F749F3327A00D611D231FEF
:104B8000849F600D211D822F762F6A2F11249F573D
:104B900050409AF0F1F088234AF0EE0FFF1FBB1F40
:104BA000661F771F881F91505040A9F79E3F5105FF
:104BB00080F00C94F0250C943B265F3FE4F3983E84
:104BC000D4F3869577956795B795F795E7959F5FA9
:104BD000C1F7FE2B880F911D9695879597F908953B
:104BE00097F99F6780E870E060E008959FEF80ECA0
:104BF000089500240A941616170618060906089543
:104C000000240A9412161306140605060895092EA8
:104C10000394000C11F4882352F0BB0F40F4BF2B17
:104C200011F460FF04C06F5F7F4F8F4F9F4F089557
:104C300057FD9058440F551F59F05F3F71F047954D
:104C4000880F97FB991F61F09F3F79F08795089532
:104C5000121613061406551FF2CF4695F1DF08C051
:104C6000161617061806991FF1CF8695710561056E
:104C700008940895E894BB2766277727CB0197F916
:104C800008950E94AD26A59F900DB49F900DA49FFE
:104C9000800D911D11240895B7FF0C9441260E94A8
:104CA0004126821B930B08952F923F924F925F9261
:104CB0006F927F928F929F92AF92BF92CF92DF922C
:104CC000EF92FF920F931F93CF93DF93CDB7DEB791
:104CD000CA1BDB0B0FB6F894DEBF0FBECDBF099425
:104CE0002A88398848885F846E847D848C849B847C
:104CF000AA84B984C884DF80EE80FD800C811B818A
:104D0000AA81B981CE0FD11D0FB6F894DEBF0FBEB8
:104D1000CDBFED010895A1E21A2EAA1BBB1BFD0118
:104D20000DC0AA1FBB1FEE1FFF1FA217B307E4078A
:104D3000F50720F0A21BB30BE40BF50B661F771FE2
:104D4000881F991F1A9469F76095709580959095C2
:104D50009B01AC01BD01CF010895A29FB001B39F9B
:104D6000C001A39F700D811D1124911DB29F700D74
:104D7000811D1124911D08955058BB27AA270E9418
:104D8000D4260C9407260E94F92538F00E940026AC
:104D900020F039F49F3F19F426F40C94F6250EF414
:104DA000E095E7FB0C94F025E92F0E94182658F3B4
:104DB000BA17620773078407950720F079F4A6F500
:104DC0000C943A260EF4E0950B2EBA2FA02D0B0171
:104DD000B90190010C01CA01A0011124FF27591B40
:104DE00099F0593F50F4503E68F11A16F040A22F46
:104DF000232F342F4427585FF3CF469537952795B7
:104E0000A795F0405395C9F77EF41F16BA0B620BB5
:104E1000730B840BBAF09150A1F0FF0FBB1F661FFC
:104E2000771F881FC2F70EC0BA0F621F731F841F3F
:104E300048F4879577956795B795F7959E3F08F065
:104E4000B0CF9395880F08F09927EE0F9795879527
:104E500008950E943D270C9407260E94002658F0D2
:104E60000E94F92540F029F45F3F29F00C94F025C9
:104E700051110C943B260C94F6250E94182668F3D9
:104E80009923B1F3552391F3951B550BBB27AA2703
:104E900062177307840738F09F5F5F4F220F331F3D
:104EA000441FAA1FA9F335D00E2E3AF0E0E832D005
:104EB00091505040E695001CCAF72BD0FE2F29D008
:104EC000660F771F881FBB1F261737074807AB07DA
:104ED000B0E809F0BB0B802DBF01FF2793585F4F4F
:104EE0003AF09E3F510578F00C94F0250C943B2647
:104EF0005F3FE4F3983ED4F3869577956795B79531
:104F0000F7959F5FC9F7880F911D9695879597F93B
:104F10000895E1E0660F771F881FBB1F62177307B4
:104F20008407BA0720F0621B730B840BBA0BEE1FC9
:104F300088F7E09508950E94202688F09F5798F002
:104F4000B92F9927B751B0F0E1F0660F771F881F8E
:104F5000991F1AF0BA95C9F714C0B13091F00E94A8
:104F60003A26B1E008950C943A26672F782F8827C7
:104F7000B85F39F0B93FCCF3869577956795B395CF
:104F8000D9F73EF490958095709561957F4F8F4F3E
:104F90009F4F08950E945F2508F48FEF089516F043
:104FA0000C9424280C94F62568940C94F0250E9407
:104FB0002026A8F39923C1F3AEF3DF93CF931F9379
:104FC0000F93FF92C92FDD2788232AF02197660FC0
:104FD000771F881FDAF720E030E040E85FEB9FE3BF
:104FE000883920F0803E38F021968F770E94BD26C8
:104FF000E8E6F0E004C00E94BD26E5E9F0E00E948A
:1050000032288B01BE01EC01FB2E6F57710975959B
:10501000771F880B990B0E94242528E132E741E392
:105020005FE30E949625AF2D9801AE01FF900F918E
:105030001F91CF91DF910E94D4260C9407260E94E5
:105040005F25880B990B08959F3F31F0915020F414
:10505000879577956795B795880F911D9695879554
:1050600097F90895DF93CF931F930F93FF92EF92D9
:10507000DF927B018C01689406C0DA2EEF010E945A
:105080009625FE01E894A59125913591459155917C
:10509000A6F3EF010E94D426FE019701A801DA943D
:1050A00069F7DF90EF90FF900F911F91CF91DF9103
:1050B0000895991B79E004C0991F961708F0961B74
:1050C000881F7A95C9F78095089597FB072E16F4E7
:1050D000009407D077FD09D00E94792807FC05D0FD
:1050E0003EF4909581959F4F0895709561957F4FFF
:1050F0000895AA1BBB1B51E107C0AA1FBB1FA6171F
:10510000B70710F0A61BB70B881F991F5A95A9F770
:1051100080959095BC01CD010895EE0FFF1F05907D
:10512000F491E02D09940F931F93CF93DF93823076
:10513000910510F482E090E0E0917806F091790614
:1051400020E030E0A0E0B0E0309719F140815181DB
:105150000281138148175907C8F08417950769F42D
:10516000109731F012960C93129713961C9327C048
:10517000009378061093790622C02115310519F0A5
:105180004217530718F49A01BD01EF01DF01F8013E
:10519000DBCF21153105F9F0281B390B24303105FF
:1051A00080F48A819B816115710521F0FB01938355
:1051B000828304C09093790680937806FE0132962C
:1051C00044C0FE01E20FF31F8193919322503109F5
:1051D000398328833AC02091760630917706232BB5
:1051E00041F42091120130911301309377062093FE
:1051F000760620911001309111012115310541F4FD
:105200002DB73EB74091140150911501241B350B69
:10521000E0917606F0917706E217F307A0F42E1BD3
:105220003F0B2817390778F0AC014E5F5F4F24170A
:10523000350748F04E0F5F1F509377064093760670
:105240008193919302C0E0E0F0E0CF01DF91CF9134
:105250001F910F910895CF93DF93009709F481C0B8
:10526000FC01329713821282A0917806B0917906E0
:10527000109781F420813181820F931F209176064F
:10528000309177062817390751F5F0937706E093A8
:10529000760667C0ED0120E030E0CE17DF0740F46E
:1052A0004A815B819E0141155105F1F0EA01F5CF7C
:1052B000D383C28340815181840F951FC817D907BA
:1052C00059F488819981840F951F02969183808378
:1052D0008A819B81938382832115310529F4F09380
:1052E0007906E09378063DC0E901FB83EA834991A2
:1052F0005991C40FD51FEC17FD0761F4808191818E
:10530000840F951F0296E901998388838281938196
:105310009B838A83E0E0F0E012968D919C91139735
:10532000009719F0FD01DC01F7CF8D919C91119749
:105330009D012E5F3F4F820F931F20917606309183
:1053400077062817390769F4309729F410927906FF
:105350001092780602C013821282B0937706A0934F
:105360007606DF91CF91089581E090E0F8940C9457
:105370009E2CFB01DC0104C08D910190801921F469
:1053800041505040C8F7881B990B0895FB01DC0180
:105390000D900020E9F7119701900D920020E1F7A0
:1053A0000895FC018191861721F08823D9F7992768
:1053B00008953197CF010895FB01DC014150504021
:1053C00048F001900D920020C9F701C01D92415094
:1053D0005040E0F70895AEE0B0E0E1EFF9E20C9460
:1053E00062260D891E8986E08C831A8309838FEFDC
:1053F0009FE79E838D83AE01475E5F4F6F89788DF7
:10540000CE0101960E940D2AEF81F885E00FF11F71
:1054100010822E96E4E00C947E26ABE0B0E0E3E14F
:10542000FAE20C9454266C017B018A01FC0117827C
:105430001682838181FFCCC1CE0101963C01F60129
:105440009381F70193FD859193FF81917F018823DB
:1054500009F4BAC1853239F493FD859193FF8191A6
:105460007F01853229F4B60190E00E94042CE7CF39
:10547000912C212C312CFFE1F315D8F08B3279F0EF
:1054800038F4803279F08332A1F4232D20611DC0DD
:105490008D3261F0803369F4232D216016C0832D95
:1054A0008260382EE32DE4603E2E2AC0F32DF86092
:1054B0001DC037FC2DC020ED280F2A3040F08E3261
:1054C000B9F436FC81C1232D2064322E19C036FE7A
:1054D00006C08AE0989E200D1124922E11C0EAE0A9
:1054E0002E9E200D1124222EF32DF0623F2E08C097
:1054F0008C3621F4832D8068382E02C0883641F422
:10550000F70193FD859193FF81917F018111B3CFC5
:10551000982F9F7D9554933028F40C5F1F4F9FE385
:1055200099830DC0833631F0833771F0833509F0EC
:1055300059C021C0F801808189830E5F1F4F8824E4
:105540008394912C530113C02801F2E04F0E511C9B
:10555000F801A080B18036FE03C0692D70E002C062
:105560006FEF7FEFC5010E94F92B4C018201F32DF3
:10557000FF773F2E16C0280122E0420E511CF80191
:10558000A080B18036FE03C0692D70E002C06FEFCD
:105590007FEFC5010E94EE2B4C01F32DF0683F2EEA
:1055A000820133FC1BC0822D90E088169906B0F46E
:1055B000B60180E290E00E94042C2A94F4CFF50119
:1055C00037FC859137FE81915F01B60190E00E9422
:1055D000042C21102A9421E0821A9108811491044C
:1055E00071F7E8C0843611F0893641F5F80137FECD
:1055F00007C060817181828193810C5F1F4F08C059
:1056000060817181072E000C880B990B0E5F1F4F74
:10561000F32DFF763F2E97FF09C0909580957095EA
:1056200061957F4F8F4F9F4FF0683F2E2AE030E00B
:10563000A3010E94402C882E861845C0853731F47E
:10564000232D2F7EB22E2AE030E025C0932D997FA6
:10565000B92E8F36C1F018F4883579F0B5C080378F
:1056600019F0883721F0B0C0E92FE061BE2EB4FEFA
:105670000DC0FB2DF460BF2E09C034FE0AC0292FD7
:105680002660B22E06C028E030E005C020E130E000
:1056900002C020E132E0F801B7FE07C060817181ED
:1056A000828193810C5F1F4F06C06081718180E011
:1056B00090E00E5F1F4FA3010E94402C882E861899
:1056C000FB2DFF773F2E36FE0DC0232D2E7FA22E01
:1056D000891458F434FE0BC032FC09C0832D8E7E31
:1056E000A82E05C0B82CA32C03C0B82C01C0B92C1F
:1056F000A4FE0FC0FE01E80DF11D8081803321F46E
:105700009A2D997EA92E09C0A2FE06C0B394B39427
:1057100004C08A2D867809F0B394A3FC11C0A0FEC2
:1057200006C0B21488F4280C922C9B180EC0B21438
:1057300060F4B60180E290E00E94042CB394F7CFAD
:10574000B21418F42B1802C0982C212CA4FE10C0FF
:10575000B60180E390E00E94042CA2FE17C0A1FCD9
:1057600003C088E790E002C088E590E0B6010CC075
:105770008A2D867859F0A1FE02C08BE201C080E23A
:10578000A7FC8DE2B60190E00E94042C891438F445
:10579000B60180E390E00E94042C9A94F7CF8A949B
:1057A000F301E80DF11D8081B60190E00E94042C08
:1057B0008110F5CF222009F442CEB60180E290E0BC
:1057C0000E94042C2A94F6CFF6018681978102C0AC
:1057D0008FEF9FEF2B96E2E10C947026FC01059071
:1057E000615070400110D8F7809590958E0F9F1FE3
:1057F0000895FC016150704001900110D8F7809528
:1058000090958E0F9F1F08950F931F93CF93DF9353
:10581000FB01238121FD03C08FEF9FEF2CC022FFEE
:1058200016C046815781248135814217530744F4BD
:10583000A081B1819D012F5F3F4F318320838C93E5
:10584000268137812F5F3F4F3783268314C08B011A
:10585000EC01FB010084F185E02D0995892BE1F62F
:10586000D80116968D919C911797019617969C9347
:105870008E931697CE01DF91CF911F910F910895CE
:10588000FA01AA27283051F1203181F1E8946F9371
:105890006E7F6E5F7F4F8F4F9F4FAF4FB1E03ED017
:1058A000B4E03CD0670F781F891F9A1FA11D680FB5
:1058B000791F8A1F911DA11D6A0F711D811D911DE8
:1058C000A11D20D009F468943F912AE0269F11245D
:1058D0003019305D3193DEF6CF010895462F4770C1
:1058E000405D4193B3E00FD0C9F7F6CF462F4F701C
:1058F000405D4A3318F0495D31FD4052419302D07A
:10590000A9F7EACFB4E0A69597958795779567951F
:10591000BA95C9F700976105710508959B01AC011F
:105920000A2E06945795479537952795BA95C9F746
:10593000620F731F841F951FA01D0895F894FFCF59
:105940000E00FFFFFFFF01646174612E7478740024
:1059500000007A0680001F1C1F1E1F1E1F1F1E1F17
:105960001E1F00000000420F960F79025A0F210FF0
:10597000620F6C0F00000000A80E150E3F0EF50E12
:10598000700E4E0E620E00000000B20F150E79026E
:10599000780200000000580F150E7902780200000E
:1059A0000000B902AE0279026A0271026E026B0255
:1059B0004453313330325254432052656164205491
:1059C000657374002D2D2D2D2D2D2D2D2D2D2D2D6F
:1059D0002D2D2D2D2D2D2D00525443206D6F6475CE
:1059E0006C652061637469766174656400546865F0
:1059F000204453313330322069732073746F7070D8
:105A000065642E0054686520445331333032206978
:105A1000732077726974652070726F746563746542
:105A2000642E2054686973206973206E6F726D61F3
:105A30006C2E00445331333032525443205465733A
:105A40007420456E640075534420696E6974696101
:105A50006C697A6174696F6E206661696C65642136
:105A60002E205374617475732077696C6C206E6F8F
:105A700074206265207265636F726465642E0075C0
:105A8000534420696E697469616C697A6174696FE5
:105A90006E20646F6E652E00253034692F253032FC
:105AA000692F2530326920253032693A2530326934
:105AB000202530336920202020202020202025632D
:105AC000202020202020202000796561722F6D6D1C
:105AD0002F64642068683A6D6D20487967726F564C
