:100000000C940D010C9435010C9435010C943501C0
:100010000C9435010C9435010C94B9020C94350103
:100020000C9435010C9435010C9435010C94350178
:100030000C9435010C9435010C9435010C94350168
:100040000C942E0B0C9435010C94AD080C9487087D
:100050000C9435010C9435010C9435010C94350148
:100060000C94EE050C9435014572724A616E46653A
:10007000624D61724170724D61794A756E4A756C5C
:100080004175675365704F63744E6F7644656300C6
:10009000202020202046696E69736865642E0077F1
:1000A00061746572696E672074686520706C616E3A
:1000B00074732E2E2E00000000002300260029005D
:1000C00052544320736574206661696C65642E0028
:1000D0006C617374207472792E00525443207365DE
:1000E00074206661696C65640052544320736574C2
:1000F00020746F3A20004572726F723A2059656120
:1001000072206D7573742062652074776F206F7232
:1001100020666F757220646967697473007761691E
:1001200074696E6720666F72206461746520617403
:100130002073657269616C20696E7075742E2E2E45
:10014000004D6F64756C6520776F726B696E672008
:1001500070726F7065726C792E0057726F6E6720C7
:1001600074696D652E20526573657474696E6720BD
:100170006D6F64756C652E0025004D6F6973747525
:1001800072653A2000446565702077617465726914
:100190006E6720646F6E652E00206F662031302EF2
:1001A000006379636C652000646565706C79207705
:1001B00061746572696E672061732073636865643A
:1001C000756C65642E2E2E000000000024002700B0
:1001D0002A0000000000250028002B00040404046D
:1001E00004040404020202020202030303030303E1
:1001F00001020408102040800102040810200102BE
:100200000408102000000008000201000003040799
:100210000000000000000000610E11241FBECFEF9F
:10022000D8E0DEBFCDBF11E0A0E0B1E0EEE8FEE136
:1002300002C005900D92AA3CB107D9F723E0AAECC1
:10024000B1E001C01D92A631B207E1F711E0CDE0A7
:10025000D1E004C02197FE010E943A0FCC30D107B3
:10026000C9F70E94780B0C94450F0C940000FC0118
:10027000918D228D892F90E0805C9F4F821B910988
:100280008F739927089580E090E0892B29F00E94D0
:100290000C0881110C940000089508958FEF9FEFD2
:1002A00008958FEF9FEF089580913E0290E0919521
:1002B000819591090895089580E090E0089585ED75
:1002C0008093BC008091BC0084FDFCCF109218028A
:1002D00008954091F401262F30E0240F311D213282
:1002E0003105DCF4209118022430C9F4FC0180E0CF
:1002F00090E0861758F43091F4012191DC01AC5262
:10030000BE4FA30FB11D2C930196F3CF8091F40142
:10031000680F6093F40180E0089581E0089582E021
:100320000895CF93DF93CB01EA01642F0E94690106
:10033000CE01DF91CF910895CF93DF931F92CDB778
:10034000DEB7698361E0CE0101960E94690181E018
:1003500090E00F90DF91CF9108951F93CF93DF939B
:10036000EC01162F0A971CF480E30E94B609BE0127
:10037000DD0F880B990B4AE050E00E94BB09111673
:1003800034F4812FDF91CF911F910C94B609DF9146
:10039000CF911F910895FC01848DDF01A80FB11D3D
:1003A000A35ABF4F2C91848D90E001968F739927AB
:1003B000848FA689B7892C93A089B1898C91837089
:1003C00080648C93938D848D981306C00288F38982
:1003D000E02D80818F7D808308950F931F93CF93AD
:1003E000DF93C0E0D0E0082F10E0B8010C2E02C06F
:1003F000759567950A94E2F76170809102030E94F7
:10040000890A61E0809101030E94890A60E080917D
:1004100001030E94890A2196C830D10531F7DF9186
:10042000CF911F910F910895BF92CF92DF92EF92DB
:10043000FF920F931F93CF93DF9360E080910203AD
:100440000E94B80AC0E0D0E010E0C12CD12C7601A7
:10045000C3942091020330E0F901EC5FFD4F8491D9
:10046000F901E051FE4F0491F901E452FE4FB490BE
:10047000BB2099F181110E94600AEB2DF0E0EE0F94
:10048000FF1FEA54FF4FA591B491EC910E2329F17F
:10049000D701C6010C2E04C0880F991FAA1FBB1FCD
:1004A0000A94D2F7182B61E0809101030E94890A17
:1004B00060E0809101030E94890A2196C830D1052D
:1004C00009F0C7CF812FDF91CF911F910F91FF903E
:1004D000EF90DF90CF90BF900895D701C6010C2E0A
:1004E00004C0880F991FAA1FBB1F0A94D2F78095DA
:1004F0001823D9CF60E0809103030E94890A8BE022
:1005000090E00197F1F7089560E0809103030E9465
:10051000890A61E0809103030E94B80A60E080913B
:1005200001030E94890A61E0809101030E94B80AD8
:1005300061E0809102030E94B80A61E080910303A8
:100540000E94890A8BE090E00197F1F70895CF931C
:100550000E9484028FE80E94ED010E941402C82FBD
:100560000E947A028C2F8095881F8827881FCF9140
:1005700008951F920F920FB60F9211248F930FB60A
:10058000F894A89580916000886180936000109233
:1005900060000FBE8F910F900FBE0F901F901895A7
:1005A00060934B0270934C0280934D0290934E02E5
:1005B000DC01CB01845D9E4FAF4FBF4F809347025C
:1005C00090934802A0934902B0934A0282E090E0DF
:1005D00090935202809351022FB7F8948091600259
:1005E00090916102A0916202B09163022FBF80934B
:1005F000430290934402A0934502B09346020895AB
:100600000F931F938FB7F8940091600210916102CD
:1006100020916202309163028FBF4091430250915A
:1006200044026091450270914602041B150B260B93
:10063000370B80914B0290914C02A0914D02B091EA
:100640004E02083E134021053105C0F00196A11D60
:10065000B11D80934B0290934C02A0934D02B09336
:100660004E0248515C4F6F4F7F4F4093430250936F
:1006700044026093450270934602C4CF4091470202
:10068000509148026091490270914A02841795077F
:10069000A607B70788F1E0914F02F091500230971A
:1006A00059F10995611571058105910519F00E94AF
:1006B000D00222C080914B0290914C02A0914D0239
:1006C000B0914E02845D9E4FAF4FBF4F8093470263
:1006D00090934802A0934902B0934A0281E090E0CF
:1006E0002091510230915202232B11F480E090E0CE
:1006F000909352028093510260914B0270914C0290
:1007000080914D0290914E021F910F9108954F924A
:100710005F926F927F928F929F92AF92BF92CF9291
:10072000DF92EF92FF920F931F93CF93DF93FC0121
:100730001681A12FB0E020E833E341EE51E00E94A2
:10074000C20E4B015C01C2EBD7E09D0104E610E054
:1007500080E9E82EFF24F394CE01825B9740821754
:100760009307D4F4CE0183709927892B99F4CE0195
:10077000B8010E94120F892B31F4CE01B7010E94FB
:10078000120F892B39F480E8880E81E5981E81E0EC
:10079000A81EB11C2196E0CF4580512C2E54384F15
:1007A000C90164E670E00E94120F7C01C90160E992
:1007B00071E00E94120F6C0100E011E0C1E0D0E096
:1007C0003901A3E06A227724C415D50534F5C23077
:1007D000D10589F46114710471F4E114F10419F480
:1007E000C114D10441F4B0E88B0EBBE39B1EB6E20A
:1007F000AB1EB11C0EC0D8018C91A82FB0E020E830
:1008000031E541E050E00E94C20E860E971EA81E00
:10081000B91E21960F5F1F4FD7CF4181228130E053
:10082000A0E1BEE00E94F70E6B017C01242F30E0B6
:10083000ACE3B0E00E94F70EDC01CB018C0D9D1DF6
:10084000AE1DBF1D20816C017D01C20ED11CE11CBB
:10085000F11CA481B0E0119720E831E541E050E0BF
:100860000E94CD0EDC01CB018C0D9D1DAE1DBF1D68
:10087000BC01CD01680D791D8A1D9B1DDF91CF91B3
:100880001F910F91FF90EF90DF90CF90BF90AF90AE
:100890009F908F907F906F905F904F900895EF9210
:1008A000FF920F931F93CF93DF93CDB7DEB72F97B0
:1008B0000FB6F894DEBF0FBECDBF0E9484028FEB4F
:1008C0000E94ED01CE0101967C018E01075F1F4F52
:1008D0000E941402F70181937F010E171F07C1F7D1
:1008E0000E947A028981682F6695669566956E707A
:1008F000962F990F990F690F8F70680F69878A81FA
:10090000482F4695469546954E70942F990F990F0E
:10091000490F8F70480F4A878B81382F369536954F
:1009200036953670932F990F990F390F8F70380FB6
:100930003B878C81282F2695269526952670922F09
:10094000990F990F290F8F70280F2D878D8184FBA8
:10095000992790F9990F592F550F550F950F8F70B3
:10096000980F9E875E8157705C878F81782F729574
:100970007F708F70825EFAE07F9F800D11248F87D9
:100980006C3398F44C3388F4383178F421502F319B
:1009900060F491509C3048F45150573030F4843614
:1009A00020F4C8010E94870303C060E070E0CB011F
:1009B0002F960FB6F894DEBF0FBECDBFDF91CF915B
:1009C0001F910F91FF90EF9008956F927F928F92F9
:1009D0009F92AF92BF92CF92DF92EF92FF920F93CE
:1009E0001F93CF93DF936B017C01EA018CE3882E88
:1009F000912CA12CB12CC701B601A50194010E9434
:100A0000D50E6883CA01B901A50194010E94D50ED3
:100A10006983C701B60120E13EE040E050E00E945A
:100A2000D50ECA01B90128E130E040E050E00E9453
:100A3000D50E6A83C701B60120E831E541E050E0F8
:100A40000E94D50E69017A01CA01B9016C5F7F4F1E
:100A50008F4F9F4F27E030E040E050E00E94D50EDE
:100A60006F5F6B83812C912C540140E094E6692EDA
:100A7000712C00E911E0242F30E02E54384FF90199
:100A8000E370FF27309789F4C901B3010E94120F68
:100A9000892B31F4C901B8010E94120F892B29F466
:100AA0008EE691E0A0E0B0E004C08DE691E0A0E029
:100AB000B0E0880E991EAA1EBB1ED501C401AA274C
:100AC000BB27C816D906EA06FB0610F04F5FD3CF46
:100AD0004E83309799F4C90164E670E00E94120FCA
:100AE000892B39F4C90160E971E00E94120F892B4A
:100AF00029F48EE691E0A0E0B0E004C08DE691E03C
:100B0000A0E0B0E0881A990AAA0ABB0AC818D90856
:100B1000EA08FB08C90164E670E00E94120F8C012C
:100B2000C90160E971E00E94120FA0E0B1E020E08D
:100B3000213041F4309751F40115110529F4009743
:100B400029F402C04C9103C04DE101C04CE150E0DA
:100B500060E070E0C416D506E606F70640F0C41A59
:100B6000D50AE60AF70A2F5F11962C3009F72F5F96
:100B70002D83C394CC82DF91CF911F910F91FF9071
:100B8000EF90DF90CF90BF90AF909F908F907F902D
:100B90006F900895CF92DF92EF92FF92C0903F0244
:100BA000D0904002E0904102F0904202C616D70673
:100BB000E806F90671F06B017C0143E552E00E9402
:100BC000E504C0923F02D0924002E0924102F092CE
:100BD0004202FF90EF90DF90CF9008951F920F9206
:100BE0000FB60F9211242F933F934F935F936F9300
:100BF0007F938F939F93AF93BF93EF93FF938091D6
:100C0000B900887F803609F49CC068F5883209F401
:100C10005BC090F4803109F454C038F4882309F49F
:100C2000F2C0883009F44DC0F2C0883109F44CC0DC
:100C3000803209F45DC0EBC0803409F468C048F428
:100C4000803309F455C0883309F0E1C0809317025E
:100C5000D4C0803509F44FC0883509F45DC08834AC
:100C600009F0D5C0D2C0883909F4C3C0A8F48837C8
:100C700009F467C038F4883609F463C0803709F492
:100C800060C0C5C0883809F4B4C0803909F45FC0B9
:100C9000803809F0BCC05BC0803B09F484C038F4E4
:100CA000803A09F466C0883A09F47DC0B0C0803C3F
:100CB00009F4A3C0883C09F4A0C0883B09F486C0AD
:100CC000A6C080913D0210C090913C0280913B02F1
:100CD000981770F5E0913C0281E08E0F80933C0202
:100CE000F0E0E55EFD4F80818093BB0085EC82C023
:100CF000809317028AC0E0913C0281E08E0F8093BE
:100D00003C028091BB00F0E0E55EFD4F8083909156
:100D10003C0280913B026AC0E0913C0281E08E0F70
:100D200080933C028091BB00F0E0E55EFD4F808344
:100D300080911A02811169C081E08093190284EACE
:100D40005DC083E08093180210921602CFCF80918D
:100D50001602803208F04DC0E091160281E08E0F3D
:100D6000809316028091BB00F0E0EA50FE4F808332
:100D7000BDCF85EC8093BC001092180280911602C2
:100D8000803230F4E0911602F0E0EA50FE4F10821B
:100D90006091160270E086EF91E0E0E0F0E00995E6
:100DA0001092160234C084E0809318021092F5016C
:100DB0001092F401E0E0F0E009958091F4018111D6
:100DC00005C081E08093F4011092D401E091F50117
:100DD00081E08E0F8093F501F0E0EC52FE4F8081B0
:100DE0008093BB009091F5018091F401981708F46D
:100DF0007DCF85E88093BC000AC085EC8093BC0061
:100E00001092180204C0109217020E945F01FF9115
:100E1000EF91BF91AF919F918F917F916F915F9172
:100E20004F913F912F910F900FBE0F901F901895EB
:100E3000CF92DF92EF92FF926B017C018FE990E0FD
:100E40000E94440961E089E00E94890A61E08DE026
:100E50000E94890AC701B6010E94F40A60E089E095
:100E60000E94890A60E08DE00E94890A80E990E092
:100E70000E944409FF90EF90DF90CF900C94B2094C
:100E80008F929F92AF92BF92CF92DF92EF92FF929A
:100E90004B015C010E94CA058091570260E090E01E
:100EA0000E94AD01C501B4010E94CA05C09059025B
:100EB000D12C8EE4C81A88EFD80A0D2C000CEE084D
:100EC000FF08C501B4010E94CA052091580283E0C1
:100ED000289F90011124AAECB1E080E090E0F90194
:100EE000E80FF91FE859FF4FE491ED930196833025
:100EF0009105A9F71092CD018AEC91E00E945F095B
:100F00004AE050E0C701B6010E94BB0980E20E949E
:100F1000B609C501B4010E94CA05809155026AE371
:100F200090E00E94AD01C501B4010E94CA05809104
:100F300054026AE390E00E94AD01C501B4010E9431
:100F4000CA058091530260E290E00E94AD01FF90DB
:100F5000EF90DF90CF90BF90AF909F908F900C94C8
:100F6000B209CF92DF92EF92FF920F931F93CF932C
:100F7000DF936C017A018B01C0E0D0E0CE15DF0574
:100F800081F0D8016D918D01D601ED91FC91019018
:100F9000F081E02DC6010995892B11F02196EECF45
:100FA0007E01C701DF91CF911F910F91FF90EF90CC
:100FB000DF90CF900895FC01538D448D252F30E0B4
:100FC000842F90E0821B930B541710F0CF96089556
:100FD00001970895FC01918D828D981761F0828DA3
:100FE000DF01A80FB11D5D968C91928D9F5F9F735D
:100FF000928F90E008958FEF9FEF0895FC01918DFF
:10100000828D981731F0828DE80FF11D858D90E06B
:1010100008958FEF9FEF089584E692E00E943701D4
:1010200021E0892B09F420E0822F08950E94400FCF
:10103000EF92FF920F931F93CF93DF93EC0181E028
:10104000888F9B8D8C8D981305C0E889F9898081E4
:1010500085FD26C0F62E0B8D10E00F5F1F4F0F731E
:101060001127E02E8C8DE8120CC00FB607FCFACFCA
:10107000E889F989808185FFF5CFCE010E94CB01F7
:10108000F1CF8B8DFE01E80FF11DE35AFF4FF08287
:101090009FB7F8940B8FEA89FB89808180620AC030
:1010A0009FB7F894EE89FF896083E889F989808188
:1010B0008370806480839FBF81E090E0DF91CF9157
:1010C0001F910F91FF90EF900895CF93DF93EC0164
:1010D000888D8823C9F0EA89FB89808185FD05C058
:1010E000A889B9898C9186FD0FC00FB607FCF5CF92
:1010F000808185FFF2CFA889B9898C9185FFEDCFDA
:10110000CE010E94CB01E7CFDF91CF9108951F92CE
:101110000F920FB60F9211242F933F934F935F932B
:101120006F937F938F939F93AF93BF93EF93FF93AF
:1011300084E692E00E94CB01FF91EF91BF91AF91C5
:101140009F918F917F916F915F914F913F912F91DF
:101150000F900FBE0F901F9018951F920F920FB611
:101160000F9211242F938F939F93EF93FF93E0910E
:101170007402F09175028081E0917A02F0917B0215
:1011800082FD12C0908180917D028F5F8F732091CC
:101190007E02821751F0E0917D02F0E0EC59FD4FA4
:1011A000958F80937D0201C08081FF91EF919F9187
:1011B0008F912F910F900FBE0F901F9018953FB7F2
:1011C000F8948091060390910703A0910803B091D1
:1011D000090326B5A89B05C02F3F19F00196A11D54
:1011E000B11D3FBFBA2FA92F982F8827820F911DBD
:1011F000A11DB11DBC01CD0142E0660F771F881F04
:10120000991F4A95D1F708952FB7F89480916002FD
:1012100090916102A0916202B09163022FBF80930E
:101220006C0290936D02A0936E02B0936F0284E6FD
:1012300092E00E94FE0797FF26C02FB7F894809196
:10124000600290916102A0916202B09163022FBF8F
:1012500040916C0250916D0260916E0270916F022C
:10126000841B950BA60BB70B409168025091690245
:1012700060916A0270916B0284179507A607B70701
:10128000B0F28FEF9FEF08950F931F93CF93DF93EB
:101290008C01C0E0D0E0F801EC0FFD1F64916623E3
:1012A00041F084E692E00E941808892B11F0219603
:1012B000F2CFCE01DF91CF911F910F91089500974A
:1012C00069F0FC0101900020E9F73197AF01481B5C
:1012D000590BBC0184E692E00C94B10780E090E0E9
:1012E00008958F929F92AF92BF920F931F93CF93C7
:1012F000DF93CDB7DEB7A1970FB6F894DEBF0FBE70
:10130000CDBF19A2423008F44AE08E010F5D1F4F95
:10131000842E912CA12CB12CA50194010E94D50EF4
:10132000E62FB901CA0101501109EA3014F4E05D59
:1013300001C0E95CD801EC93232B242B252B61F70A
:10134000C8010E945F09A1960FB6F894DEBF0FBED8
:10135000CDBFDF91CF911F910F91BF90AF909F9024
:101360008F90089586EC91E00C945F09682F84E6D5
:1013700092E00C941808CF92DF92EF92FF92CF93F5
:10138000DF934115510551F484E692E0DF91CF914E
:10139000FF90EF90DF90CF900C9418084A305105E1
:1013A000E1F497FF19C06B017C018DE20E94B60940
:1013B000EC0166277727CB016C197D098E099F09FF
:1013C0004AE00E9471098C0F9D1FDF91CF91FF9021
:1013D000EF90DF90CF9008954AE0DF91CF91FF909A
:1013E000EF90DF90CF900C947109CF92DF92EF9243
:1013F000FF92CF930E940409FC0197FD0BC08D3230
:10140000910561F0C0970A9748F084E692E00E9447
:10141000EA07F0CF60E070E0CB0140C0C12CD12CD6
:101420007601C0E0E130F10501F1ED32F105E1F0C6
:10143000CF01C0970A97C8F4AAE0B0E0A7019601CF
:101440000E94C20E6F01FF0FEE08FF08DC01CB0106
:101450008C0D9D1DAE1DBF1D6C017D0120E3C21AC8
:10146000D108E108F10801C0C1E084E692E00E94E1
:10147000EA070E940409FC01C0970A9798F2E1303C
:10148000F10581F2CC2341F066277727CB016C1957
:101490007D098E099F0902C0C701B601CF91FF9057
:1014A000EF90DF90CF900895CF93DF930E945F0974
:1014B000EC010E94B2098C0F9D1FDF91CF9108951E
:1014C000833081F028F4813099F08230A1F00895C2
:1014D0008730A9F08830B9F08430D1F48091800051
:1014E0008F7D03C0809180008F7780938000089566
:1014F00084B58F7702C084B58F7D84BD08958091B7
:10150000B0008F7703C08091B0008F7D8093B000D2
:1015100008951F93CF93DF93282F30E0F901EC5FFC
:10152000FD4F8491F901E051FE4FD491F901E4524D
:10153000FE4FC491CC23C1F0162F81110E94600A86
:10154000EC2FF0E0EE0FFF1FEE52FE4FA591B4918D
:101550009FB7F894111104C08C91D095D82302C084
:10156000EC91DE2BDC939FBFDF91CF911F9108950B
:10157000CF93DF9390E0FC01E051FE4F2491FC01FA
:10158000E452FE4F8491882361F190E0880F991F07
:10159000FC01E853FE4FC591D491FC01EE52FE4F81
:1015A000A591B491611109C09FB7F89488812095E5
:1015B00082238883EC912E230BC0623061F49FB7A5
:1015C000F8948881322F309583238883EC912E2BD9
:1015D0002C939FBF06C08FB7F894E8812E2B2883E9
:1015E0008FBFDF91CF9108958F929F92AF92BF925C
:1015F000CF92DF92EF92FF926B017C010E94DF0895
:101600004B015C01C114D104E104F104F1F00E942A
:10161000DF08DC01CB0188199909AA09BB09883EBA
:101620009340A105B10570F321E0C21AD108E10889
:10163000F10888EE880E83E0981EA11CB11CC1142D
:10164000D104E104F10419F7DDCFFF90EF90DF90B2
:10165000CF90BF90AF909F908F9008951F920F9260
:101660000FB60F9211242F933F938F939F93AF93B5
:10167000BF938091600290916102A0916202B0914B
:1016800063023091050323E0230F2D3720F40196E8
:10169000A11DB11D05C026E8230F0296A11DB11D95
:1016A000209305038093600290936102A0936202ED
:1016B000B09363028091060390910703A091080301
:1016C000B09109030196A11DB11D8093060390936B
:1016D0000703A0930803B0930903BF91AF919F91B3
:1016E0008F913F912F910F900FBE0F901F901895E3
:1016F000CF93DF93CDB7DEB766970FB6F894DEBF12
:101700000FBECDBF789484B5826084BD84B58160FE
:1017100084BD85B5826085BD85B5816085BD8091BC
:101720006E00816080936E00109281008091810034
:10173000826080938100809181008160809381002C
:10174000809180008160809380008091B1008460EE
:101750008093B1008091B00081608093B00080914F
:101760007A00846080937A0080917A00826080930E
:101770007A0080917A00816080937A0080917A006B
:10178000806880937A001092C100E0917402F09119
:10179000750282E08083E0917002F0917102108204
:1017A000E0917202F09173028FEC808310927C02C0
:1017B000E0917802F091790286E08083E0917602F0
:1017C000F0917702808180618083E0917602F091D0
:1017D0007702808188608083E0917602F0917702C1
:1017E000808180688083E0917602F0917702808129
:1017F0008F7D808360E08DE00E94890A60E088E050
:101800000E94890A8FE494E09093500280934F02E3
:1018100080914B0290914C02A0914D02B0914E02EA
:101820008093470290934802A0934902B0934A02E2
:101830000E94000380E391E00E94540A84E491E056
:101840000E94540A60E086E00E94890A61E086E016
:101850000E94B80A61E087E00E94890A61E087E09F
:101860000E94B80A88E591E00E94540A0E94B209D9
:1018700064EF71E080E090E00E94F40A0E9484022C
:1018800081E80E94ED010E941402182F0E947A0242
:1018900017FF06C08DE691E00E94540A0E94B2092B
:1018A0000E94A702811106C084E891E00E94540AB8
:1018B0000E94B20968E873E180E090E00E94F40AB7
:1018C0000E944F046B017C010E94CA05809159025D
:1018D00090E0C097CCF48AE591E00E9444090E9410
:1018E000B20900E07E0129E0E20EF11C1AE020E8D6
:1018F000D22E0E94000380915102909152020297D1
:1019000069F00B30B0F10AC081E491E00E94440913
:101910000E94B209C701B6010E94400783EB91E023
:101920000E94540A84E491E00E94540A61E089E034
:101930000E94B80A60E089E00E94890A10E49AEDEA
:10194000C92E9DEFD92EEE24EA94FE2C0E944F045E
:101950000E94CA0580915502863009F4F9C00E94A0
:101960004F040E94CA0580915502853109F048C193
:10197000EFC08DE191E00E9444090E94B2090F5F1F
:1019800068E873E180E090E00E94F40A84E692E067
:101990000E9437010C970CF4B3C00E94F509AB010B
:1019A000445651094438534038F486EF90E00E9481
:1019B00044090E94B209A4C0683EF3E07F0714F016
:1019C000625B01C0625E6E8B0E94F5096D8B0E94A6
:1019D000F5096C8B0E94F5096A8B0E94F509698BE9
:1019E0000E94F509688BCE0140960E9487032B0167
:1019F0003C01A7010E94E5040E9484028FE80E9436
:101A0000ED010E941402C82E0E947A020E948402F4
:101A10008EE80E94ED018C2D8F770E94ED010E94CF
:101A20007A020E94A702882309F458C08985612F91
:101A30000E94060F20E1829F900D112499838A85D0
:101A40000E94060F40E1849F900D11249A838B859C
:101A50000E94060FE0E18E9F900D11249B838D85DF
:101A60000E94060FF0E18F9F900D11249C838E85BC
:101A70000E94060F20E1829F900D11249D838C858A
:101A80008E838F858E510E94060F40E1849F900DBA
:101A900011249F83D8860E9484028EEB0E94ED0160
:101AA000CE0101965C01F50181915F010E94ED017B
:101AB000AE14BF04C1F70E947A020E94A7028111EE
:101AC0000DC0C301B2010E94D00289EE90E00E94D5
:101AD0004409C301B2010E94400706C08AED90E0AC
:101AE0000E9444090E94B20984E692E00E943701F4
:101AF000181619062CF484E692E00E94EA07F4CF47
:101B00000E944F0480905A0290905B02A0905C0269
:101B1000B0905D02681579058A059B0551F06093C8
:101B20005A0270935B0280935C0290935D020E9464
:101B300040070A3019F480ED90E005C00B3009F041
:101B4000D8CE80EC90E00E9444090E94B209D1CE28
:101B500010925F0210925E0261E088E00E94890AA2
:101B600060E27EE480E090E00E94F40A10937C0042
:101B700080917A00806480937A0080917A0086FD5B
:101B8000FCCF209178008091790030E0382BC9019A
:101B9000330FAA0BBB0B9C01AD0126523240410909
:101BA0005109A4E6B0E00E94C20EA70196010E946E
:101BB000A30E49015A0130935F0220935E028AE727
:101BC00091E00E9444094AE050E0C501B4010E943E
:101BD000BB0988E791E00E9444090E94B20960E0D5
:101BE00088E00E94890A80915E0290915F02899745
:101BF0000CF568EC7FEA80E090E00E9418071AC0BC
:101C00000E944F040E94CA0580915502863191F4CA
:101C10000E944F040E94CA058091570290E08730CD
:101C2000910589F08E30910571F08531910559F05B
:101C30004C9749F060EF7EE885E390E00E94F40A5B
:101C40000E94430183CE88EA91E00E9444090E94E9
:101C5000B209812C912C5401839481EA91E00E9475
:101C600044094AE050E0C501B4010E94BB0989E97A
:101C700091E00E9444090E94B20980915E02909115
:101C80005F02899734F460E87EE380E090E00E9490
:101C9000180760EA7BEB8DE090E00E94F40AFFEF0A
:101CA0008F1A9F0AAF0ABF0A2BE082169104A10483
:101CB000B10499F685E891E00E9444090E94B209B6
:101CC000B9CFE4E6F2E01382128288EE93E0A0E05E
:101CD000B0E084839583A683B78320E131E031832C
:101CE000208325EC30E03587248724EC30E03787EB
:101CF000268720EC30E0318B208B21EC30E0338BD9
:101D0000228B22EC30E0358B248B26EC30E0378BB5
:101D1000268B118E128E138E148EEAE0F3E013825E
:101D2000128284839583A683B78382E291E09183B4
:101D3000808383E08093030384E08093020385E043
:101D4000809301030895052E97FB1EF400940E94D2
:101D5000BA0E57FD07D00E94D50E07FC03D04EF4F3
:101D60000C94BA0E50954095309521953F4F4F4FAA
:101D70005F4F089590958095709561957F4F8F4F37
:101D80009F4F08950E94F70EA59F900DB49F900D50
:101D9000A49F800D911D11240895B7FF0C94C20ECD
:101DA0000E94C20E821B930B0895A1E21A2EAA1B59
:101DB000BB1BFD010DC0AA1FBB1FEE1FFF1FA217FB
:101DC000B307E407F50720F0A21BB30BE40BF50BF8
:101DD000661F771F881F991F1A9469F76095709581
:101DE000809590959B01AC01BD01CF010895A29F04
:101DF000B001B39FC001A39F700D811D1124911DDF
:101E0000B29F700D811D1124911D0895991B79E0D9
:101E100004C0991F961708F0961B881F7A95C9F77A
:101E20008095089597FB072E16F4009407D077FD50
:101E300009D00E94260F07FC05D03EF490958195AD
:101E40009F4F0895709561957F4F0895AA1BBB1B06
:101E500051E107C0AA1FBB1FA617B70710F0A61BAA
:101E6000B70B881F991F5A95A9F780959095BC01CB
:101E7000CD010895EE0FFF1F0590F491E02D099418
:0E1E800081E090E0F8940C94450FF894FFCFA9
:101E8E001F1C1F1E1F1E1F1F1E1F1E1F00000000D7
:101E9E001808B107DB0765083701EA07FE070000DF
:101EAE0000009C0191015C014D01540151014E0154
:101EBE0044533133303252544320526561642054BE
:101ECE00657374002D2D2D2D2D2D2D2D2D2D2D2D9C
:101EDE002D2D2D2D2D2D2D00525443206D6F6475FB
:101EEE006C6520616374697661746564005468651D
:101EFE00204453313330322069732073746F707005
:101F0E0065642E00546865204453313330322069A5
:101F1E00732077726974652070726F74656374656F
:101F2E00642E2054686973206973206E6F726D6120
:101F3E006C2E004453313330325254432054657367
:0A1F4E007420456E64000D0A0000C7
:00000001FF
