:100000000C94F5000C941D010C941D010C941D0121
:100010000C941D010C941D010C94A1020C941D0163
:100020000C941D010C941D010C941D010C941D01D8
:100030000C941D010C941D010C941D010C941D01C8
:100040000C940C0B0C941D010C948B080C946508FB
:100050000C941D010C941D010C941D010C941D01A8
:100060000C94D6050C941D014572724A616E46656A
:10007000624D61724170724D61794A756E4A756C5C
:100080004175675365704F63744E6F7644656300C6
:1000900046696E69736865642E20506C616E747376
:1000A00020617265206861707079206E6F77203AE8
:1000B00044007761746572696E67207468652070AA
:1000C0006C616E74732E2E2E00000000002300263B
:1000D00000290052544320736574206661696C6581
:1000E000642E006C617374207472792E0052544334
:1000F00020736574206661696C6564005254432006
:1001000073657420746F3A20004572726F723A20E2
:1001100059656172206D7573742062652074776F04
:10012000206F7220666F757220646967697473004E
:1001300077616974696E6720666F722064617465A7
:100140002061742073657269616C20696E707574CA
:100150002E2E2E004D6F64756C6520776F726B6963
:100160006E672070726F7065726C792E0057726FB7
:100170006E672074696D652E2052657365747469AD
:100180006E67206D6F64756C652E0025004D6F697C
:1001900073747572653A2000000000002400270087
:1001A0002A0000000000250028002B00040404049D
:1001B0000404040402020202020203030303030311
:1001C00001020408102040800102040810200102EE
:1001D00004081020000000080002010000030407CA
:1001E00000000000000000002D0E11241FBECFEF04
:1001F000D8E0DEBFCDBF11E0A0E0B1E0E6E2FEE175
:1002000002C005900D92AC3CB107D9F723E0ACECED
:10021000B1E001C01D92A831B207E1F710E0C5EFCF
:10022000D0E004C02197FE010E94060FC43FD10711
:10023000C9F70E94560B0C94110F0C940000FC019E
:10024000918D228D892F90E0805C9F4F821B9109B8
:100250008F739927089580E090E0892B29F00E9400
:10026000EA0781110C940000089508958FEF9FEF25
:1002700008958FEF9FEF08958091400290E091954F
:10028000819591090895089580E090E0089585EDA5
:100290008093BC008091BC0084FDFCCF10921A02B8
:1002A00008954091F601262F30E0240F311D2132B0
:1002B0003105DCF420911A022430C9F4FC0180E0FD
:1002C00090E0861758F43091F6012191DC01AA5292
:1002D000BE4FA30FB11D2C930196F3CF8091F60171
:1002E000680F6093F60180E0089581E0089582E050
:1002F0000895CF93DF93CB01EA01642F0E9451014F
:10030000CE01DF91CF910895CF93DF931F92CDB7A8
:10031000DEB7698361E0CE0101960E94510181E060
:1003200090E00F90DF91CF9108951F93CF93DF93CB
:10033000EC01162F0A971CF480E30E949409BE0179
:10034000DD0F880B990B4AE050E00E9499091116C5
:1003500034F4812FDF91CF911F910C949409DF9198
:10036000CF911F910895FC01848DDF01A80FB11D6D
:10037000A35ABF4F2C91848D90E001968F739927DB
:10038000848FA689B7892C93A089B1898C918370B9
:1003900080648C93938D848D981306C00288F389B2
:1003A000E02D80818F7D808308950F931F93CF93DD
:1003B000DF93C0E0D0E0082F10E0B8010C2E02C09F
:1003C000759567950A94E2F76170809104030E9425
:1003D000670A61E0809103030E94670A60E08091F0
:1003E00003030E94670A2196C830D10531F7DF91D7
:1003F000CF911F910F910895BF92CF92DF92EF920C
:10040000FF920F931F93CF93DF9360E080910403DB
:100410000E94960AC0E0D0E010E0C12CD12C7601F9
:10042000C3942091040330E0F901EC52FE4F849113
:10043000F901E054FE4F0491F901E455FE4FB490E8
:10044000BB2099F181110E943E0AEB2DF0E0EE0FE6
:10045000FF1FE753FF4FA591B491EC910E2329F1B3
:10046000D701C6010C2E04C0880F991FAA1FBB1FFD
:100470000A94D2F7182B61E0809103030E94670A67
:1004800060E0809103030E94670A2196C830D1057D
:1004900009F0C7CF812FDF91CF911F910F91FF906E
:1004A000EF90DF90CF90BF900895D701C6010C2E3A
:1004B00004C0880F991FAA1FBB1F0A94D2F780950A
:1004C0001823D9CF60E0809105030E94670A8BE072
:1004D00090E00197F1F7089560E0809105030E9494
:1004E000670A61E0809105030E94960A60E08091AE
:1004F00003030E94670A61E0809103030E94960A49
:1005000061E0809104030E94960A61E080910503F6
:100510000E94670A8BE090E00197F1F70895CF936E
:100520000E946C028FE80E94D5010E94FC01C82F36
:100530000E9462028C2F8095881F8827881FCF9188
:1005400008951F920F920FB60F9211248F930FB63A
:10055000F894A89580916000886180936000109263
:1005600060000FBE8F910F900FBE0F901F901895D7
:1005700060934D0270934E0280934F02909350020D
:10058000DC01CB01845D9E4FAF4FBF4F809349028A
:1005900090934A02A0934B02B0934C0282E090E009
:1005A00090935402809353022FB7F8948091620283
:1005B00090916302A0916402B09165022FBF809375
:1005C000450290934602A0934702B09348020895D3
:1005D0000F931F938FB7F8940091620210916302FA
:1005E00020916402309165028FBF40914502509185
:1005F00046026091470270914802041B150B260BBE
:10060000370B80914D0290914E02A0914F02B09114
:100610005002083E134021053105C0F00196A11D8E
:10062000B11D80934D0290934E02A0934F02B09360
:10063000500248515C4F6F4F7F4F4093450250939B
:1006400046026093470270934802C4CF409149022A
:1006500050914A0260914B0270914C0284179507A9
:10066000A607B70788F1E0915102F0915202309746
:1006700059F10995611571058105910519F00E94DF
:10068000B80222C080914D0290914E02A0914F027B
:10069000B0915002845D9E4FAF4FBF4F809349028F
:1006A00090934A02A0934B02B0934C0281E090E0F9
:1006B0002091530230915402232B11F480E090E0FA
:1006C000909354028093530260914D0270914E02B8
:1006D00080914F02909150021F910F9108954F9277
:1006E0005F926F927F928F929F92AF92BF92CF92C2
:1006F000DF92EF92FF920F931F93CF93DF93FC0152
:100700001681A12FB0E020E833E341EE51E00E94D2
:100710008E0E4B015C01C2EBD7E09D0104E610E0B8
:1007200080E9E82EFF24F394CE01825B9740821784
:100730009307D4F4CE0183709927892B99F4CE01C5
:10074000B8010E94DE0E892B31F4CE01B7010E9460
:10075000DE0E892B39F480E8880E81E5981E81E051
:10076000A81EB11C2196E0CF4580512C2E54384F45
:10077000C90164E670E00E94DE0E7C01C90160E9F7
:1007800071E00E94DE0E6C0102E011E0C1E0D0E0F9
:100790003901A3E06A227724C415D50534F5C230A7
:1007A000D10589F46114710471F4E114F10419F4B0
:1007B000C114D10441F4B0E88B0EBBE39B1EB6E23A
:1007C000AB1EB11C0EC0D8018C91A82FB0E020E860
:1007D00031E541E050E00E948E0E860E971EA81E65
:1007E000B91E21960F5F1F4FD7CF4181228130E084
:1007F000A0E1BEE00E94C30E6B017C01242F30E01B
:10080000ACE3B0E00E94C30EDC01CB018C0D9D1D5A
:10081000AE1DBF1D20816C017D01C20ED11CE11CEB
:10082000F11CA481B0E0119720E831E541E050E0EF
:100830000E94990EDC01CB018C0D9D1DAE1DBF1DCC
:10084000BC01CD01680D791D8A1D9B1DDF91CF91E3
:100850001F910F91FF90EF90DF90CF90BF90AF90DE
:100860009F908F907F906F905F904F900895EF9240
:10087000FF920F931F93CF93DF93CDB7DEB72F97E0
:100880000FB6F894DEBF0FBECDBF0E946C028FEB97
:100890000E94D501CE0101967C018E01075F1F4F9A
:1008A0000E94FC01F70181937F010E171F07C1F71A
:1008B0000E9462028981682F6695669566956E70C2
:1008C000962F990F990F690F8F70680F69878A812A
:1008D000482F4695469546954E70942F990F990F3F
:1008E000490F8F70480F4A878B81382F3695369580
:1008F00036953670932F990F990F390F8F70380FE7
:100900003B878C81282F2695269526952670922F39
:10091000990F990F290F8F70280F2D878D8184FBD8
:10092000992790F9990F592F550F550F950F8F70E3
:10093000980F9E875E8157705C878F81782F7295A4
:100940007F708F70825EFAE07F9F800D11248F8709
:100950006C3398F44C3388F4383178F421502F31CB
:1009600060F491509C3048F45150573030F4843644
:1009700020F4C8010E946F0303C060E070E0CB0167
:100980002F960FB6F894DEBF0FBECDBFDF91CF918B
:100990001F910F91FF90EF9008956F927F928F9229
:1009A0009F92AF92BF92CF92DF92EF92FF920F93FE
:1009B0001F93CF93DF936B017C01EA018CE3882EB8
:1009C000912CA12CB12CC701B601A50194010E9464
:1009D000A10E6883CA01B901A50194010E94A10E6C
:1009E0006983C701B60120E13EE040E050E00E948B
:1009F000A10ECA01B90128E130E040E050E00E94B8
:100A0000A10E6A83C701B60120E831E541E050E05C
:100A10000E94A10E69017A01CA01B9016C5F7F4F82
:100A20008F4F9F4F27E030E040E050E00E94A10E42
:100A30006F5F6B83812C912C540140E094E6692E0A
:100A4000712C00E911E0242F30E02E54384FF901C9
:100A5000E370FF27309789F4C901B3010E94DE0ECD
:100A6000892B31F4C901B8010E94DE0E892B29F4CB
:100A70008EE691E0A0E0B0E004C08DE691E0A0E059
:100A8000B0E0880E991EAA1EBB1ED501C401AA277C
:100A9000BB27C816D906EA06FB0610F04F5FD3CF76
:100AA0004E83309799F4C90164E670E00E94DE0E2F
:100AB000892B39F4C90160E971E00E94DE0E892BAF
:100AC00029F48EE691E0A0E0B0E004C08DE691E06C
:100AD000A0E0B0E0881A990AAA0ABB0AC818D90887
:100AE000EA08FB08C90164E670E00E94DE0E8C0192
:100AF000C90160E971E00E94DE0EA2E0B1E020E0F1
:100B0000213041F4309751F40115110529F4009773
:100B100029F402C04C9103C04DE101C04CE150E00A
:100B200060E070E0C416D506E606F70640F0C41A89
:100B3000D50AE60AF70A2F5F11962C3009F72F5FC6
:100B40002D83C394CC82DF91CF911F910F91FF90A1
:100B5000EF90DF90CF90BF90AF909F908F907F905D
:100B60006F900895CF92DF92EF92FF92C090410272
:100B7000D0904202E0904302F0904402C616D7069D
:100B8000E806F90671F06B017C0145E552E00E9430
:100B9000CD04C0924102D0924202E0924302F09210
:100BA0004402FF90EF90DF90CF9008951F920F9234
:100BB0000FB60F9211242F933F934F935F936F9330
:100BC0007F938F939F93AF93BF93EF93FF93809106
:100BD000B900887F803609F49CC068F5883209F432
:100BE0005BC090F4803109F454C038F4882309F4D0
:100BF000F2C0883009F44DC0F2C0883109F44CC00D
:100C0000803209F45DC0EBC0803409F468C048F458
:100C1000803309F455C0883309F0E1C0809319028C
:100C2000D4C0803509F44FC0883509F45DC08834DC
:100C300009F0D5C0D2C0883909F4C3C0A8F48837F8
:100C400009F467C038F4883609F463C0803709F4C2
:100C500060C0C5C0883809F4B4C0803909F45FC0E9
:100C6000803809F0BCC05BC0803B09F484C038F414
:100C7000803A09F466C0883A09F47DC0B0C0803C6F
:100C800009F4A3C0883C09F4A0C0883B09F486C0DD
:100C9000A6C080913F0210C090913E0280913D021B
:100CA000981770F5E0913E0281E08E0F80933E022E
:100CB000F0E0E35EFD4F80818093BB0085EC82C055
:100CC000809319028AC0E0913E0281E08E0F8093EA
:100CD0003E028091BB00F0E0E35EFD4F8083909187
:100CE0003E0280913D026AC0E0913E0281E08E0F9B
:100CF00080933E028091BB00F0E0E35EFD4F808375
:100D000080911C02811169C081E080931B0284EAFA
:100D10005DC083E080931A0210921802CFCF8091B9
:100D20001802803208F04DC0E091180281E08E0F69
:100D3000809318028091BB00F0E0E850FE4F808362
:100D4000BDCF85EC8093BC0010921A0280911802EE
:100D5000803230F4E0911802F0E0E850FE4F10824B
:100D60006091180270E088EF91E0E0E0F0E0099512
:100D70001092180234C084E080931A021092F70196
:100D80001092F601E0E0F0E009958091F601811102
:100D900005C081E08093F6011092D601E091F70141
:100DA00081E08E0F8093F701F0E0EA52FE4F8081E0
:100DB0008093BB009091F7018091F601981708F499
:100DC0007DCF85E88093BC000AC085EC8093BC0091
:100DD00010921A0204C0109219020E944701FF915A
:100DE000EF91BF91AF919F918F917F916F915F91A3
:100DF0004F913F912F910F900FBE0F901F9018951C
:100E000082EB90E00E9422090E94900961E089E053
:100E10000E94670A6091000170910101072E000C89
:100E2000880B990B0E94D20A60E089E00E94670A51
:100E300080E990E00E9422090C9490098F929F9281
:100E4000AF92BF92CF92DF92EF92FF924B015C0183
:100E50000E94B2058091590260E090E00E949501E5
:100E6000C501B4010E94B205C0905B02D12C8EE492
:100E7000C81A88EFD80A0D2C000CEE08FF08C5012F
:100E8000B4010E94B20520915A0283E0289F90018C
:100E90001124ACECB1E080E090E0F901E80FF91F1B
:100EA000E859FF4FE491ED93019683309105A9F73E
:100EB0001092CF018CEC91E00E943D094AE050E095
:100EC000C701B6010E94990980E20E949409C501F8
:100ED000B4010E94B205809157026AE390E00E943B
:100EE0009501C501B4010E94B205809156026AE3E2
:100EF00090E00E949501C501B4010E94B205809165
:100F0000550260E290E00E949501FF90EF90DF9023
:100F1000CF90BF90AF909F908F900C949009CF92FC
:100F2000DF92EF92FF920F931F93CF93DF936C01A9
:100F30007A018B01C0E0D0E0CE15DF0581F0D80149
:100F40006D918D01D601ED91FC910190F081E02D24
:100F5000C6010995892B11F02196EECF7E01C701BC
:100F6000DF91CF911F910F91FF90EF90DF90CF9085
:100F70000895FC01538D448D252F30E0842F90E09F
:100F8000821B930B541710F0CF9608950197089584
:100F9000FC01918D828D981761F0828DDF01A80F81
:100FA000B11D5D968C91928D9F5F9F73928F90E0A3
:100FB00008958FEF9FEF0895FC01918D828D981712
:100FC00031F0828DE80FF11D858D90E008958FEF4F
:100FD0009FEF089586E692E00E941F0121E0892B91
:100FE00009F420E0822F08950E940C0FEF92FF92E7
:100FF0000F931F93CF93DF93EC0181E0888F9B8D3C
:101000008C8D981305C0E889F989808185FD26C0FB
:10101000F62E0B8D10E00F5F1F4F0F731127E02E80
:101020008C8DE8120CC00FB607FCFACFE889F9895D
:10103000808185FFF5CFCE010E94B301F1CF8B8D6A
:10104000FE01E80FF11DE35AFF4FF0829FB7F894BD
:101050000B8FEA89FB89808180620AC09FB7F89470
:10106000EE89FF896083E889F989808183708064D3
:1010700080839FBF81E090E0DF91CF911F910F911E
:10108000FF90EF900895CF93DF93EC01888D882334
:10109000C9F0EA89FB89808185FD05C0A889B989E5
:1010A0008C9186FD0FC00FB607FCF5CF808185FFC0
:1010B000F2CFA889B9898C9185FFEDCFCE010E942E
:1010C000B301E7CFDF91CF9108951F920F920FB632
:1010D0000F9211242F933F934F935F936F937F93BE
:1010E0008F939F93AF93BF93EF93FF9386E692E026
:1010F0000E94B301FF91EF91BF91AF919F918F91AA
:101100007F916F915F914F913F912F910F900FBE03
:101110000F901F9018951F920F920FB60F921124E7
:101120002F938F939F93EF93FF93E0917602F0912B
:1011300077028081E0917C02F0917D0282FD12C0F5
:10114000908180917F028F5F8F7320918002821740
:1011500051F0E0917F02F0E0EA59FD4F958F8093C6
:101160007F0201C08081FF91EF919F918F912F911C
:101170000F900FBE0F901F9018953FB7F894809175
:10118000080390910903A0910A03B0910B0326B5BF
:10119000A89B05C02F3F19F00196A11DB11D3FBFAF
:1011A000BA2FA92F982F8827820F911DA11DB11D3D
:1011B000BC01CD0142E0660F771F881F991F4A9539
:1011C000D1F708952FB7F89480916202909163024D
:1011D000A0916402B09165022FBF80936E0290933C
:1011E0006F02A0937002B093710286E692E00E94B3
:1011F000DC0797FF26C02FB7F89480916202909188
:101200006302A0916402B09165022FBF40916E020B
:1012100050916F026091700270917102841B950B66
:10122000A60BB70B40916A0250916B0260916C0261
:1012300070916D0284179507A607B707B0F28FEF7C
:101240009FEF08950F931F93CF93DF938C01C0E01E
:10125000D0E0F801EC0FFD1F6491662341F086E6B3
:1012600092E00E94F607892B11F02196F2CFCE0171
:10127000DF91CF911F910F910895009769F0FC01C4
:1012800001900020E9F73197AF01481B590BBC01D1
:1012900086E692E00C948F0780E090E008958F92AC
:1012A0009F92AF92BF920F931F93CF93DF93CDB7CF
:1012B000DEB7A1970FB6F894DEBF0FBECDBF19A25F
:1012C000423008F44AE08E010F5D1F4F842E912CAE
:1012D000A12CB12CA50194010E94A10EE62FB90109
:1012E000CA0101501109EA3014F4E05D01C0E95C63
:1012F000D801EC93232B242B252B61F7C8010E94E6
:101300003D09A1960FB6F894DEBF0FBECDBFDF91A9
:10131000CF911F910F91BF90AF909F908F900895A4
:1013200088EC91E00C943D09682F86E692E00C94DD
:10133000F607CF92DF92EF92FF92CF93DF934115A2
:10134000510551F486E692E0DF91CF91FF90EF9046
:10135000DF90CF900C94F6074A305105E1F497FFE7
:1013600019C06B017C018DE20E949409EC01662793
:101370007727CB016C197D098E099F094AE00E94ED
:101380004F098C0F9D1FDF91CF91FF90EF90DF9061
:10139000CF9008954AE0DF91CF91FF90EF90DF90DA
:1013A000CF900C944F09CF92DF92EF92FF92CF93A0
:1013B0000E94E208FC0197FD0BC08D32910561F09F
:1013C000C0970A9748F086E692E00E94C807F0CFDF
:1013D00060E070E0CB0140C0C12CD12C7601C0E0B0
:1013E000E130F10501F1ED32F105E1F0CF01C097F7
:1013F0000A97C8F4AAE0B0E0A70196010E948E0EF9
:101400006F01FF0FEE08FF08DC01CB018C0D9D1D65
:10141000AE1DBF1D6C017D0120E3C21AD108E10899
:10142000F10801C0C1E086E692E00E94C8070E9470
:10143000E208FC01C0970A9798F2E130F10581F2C9
:10144000CC2341F066277727CB016C197D098E09E3
:101450009F0902C0C701B601CF91FF90EF90DF90C6
:10146000CF900895CF93DF930E943D09EC010E9435
:1014700090098C0F9D1FDF91CF910895833081F0EB
:1014800028F4813099F08230A1F008958730A9F0D6
:101490008830B9F08430D1F4809180008F7D03C012
:1014A000809180008F7780938000089584B58F7736
:1014B00002C084B58F7D84BD08958091B0008F7780
:1014C00003C08091B0008F7D8093B00008951F937A
:1014D000CF93DF93282F30E0F901EC52FE4F849137
:1014E000F901E054FE4FD491F901E455FE4FC49147
:1014F000CC23C1F0162F81110E943E0AEC2FF0E0A0
:10150000EE0FFF1FEE55FE4FA591B4919FB7F894D3
:10151000111104C08C91D095D82302C0EC91DE2B20
:10152000DC939FBFDF91CF911F910895CF93DF93FD
:1015300090E0FC01E054FE4F2491FC01E455FE4F85
:101540008491882361F190E0880F991FFC01E8568F
:10155000FE4FC591D491FC01EE55FE4FA591B4917B
:10156000611109C09FB7F8948881209582238883F0
:10157000EC912E230BC0623061F49FB7F894888100
:10158000322F309583238883EC912E2B2C939FBF91
:1015900006C08FB7F894E8812E2B28838FBFDF9188
:1015A000CF9108958F929F92AF92BF92CF92DF9288
:1015B000EF92FF926B017C010E94BD084B015C0120
:1015C000C114D104E104F104F1F00E94BD08DC0172
:1015D000CB0188199909AA09BB09883E9340A10546
:1015E000B10570F321E0C21AD108E108F10888EED4
:1015F000880E83E0981EA11CB11CC114D104E10423
:10160000F10419F7DDCFFF90EF90DF90CF90BF90FE
:10161000AF909F908F9008951F920F920FB60F92E8
:1016200011242F933F938F939F93AF93BF938091F8
:10163000620290916302A0916402B09165023091C0
:10164000070323E0230F2D3720F40196A11DB11DC0
:1016500005C026E8230F0296A11DB11D20930703A4
:101660008093620290936302A0936402B093650238
:101670008091080390910903A0910A03B0910B0394
:101680000196A11DB11D8093080390930903A093B7
:101690000A03B0930B03BF91AF919F918F913F913C
:1016A0002F910F900FBE0F901F901895CF93DF933F
:1016B000CDB7DEB766970FB6F894DEBF0FBECDBFCD
:1016C000789484B5826084BD84B5816084BD85B51D
:1016D000826085BD85B5816085BD80916E00816029
:1016E00080936E00109281008091810082608093CF
:1016F00081008091810081608093810080918000D1
:101700008160809380008091B10084608093B100FB
:101710008091B00081608093B00080917A008460F5
:1017200080937A0080917A00826080937A00809121
:101730007A00816080937A0080917A00806880933B
:101740007A001092C100E0917602F091770282E077
:101750008083E0917202F09173021082E091740232
:10176000F09175028FEC808310927E02E0917A02F4
:10177000F0917B0286E08083E0917802F09179021B
:10178000808180618083E0917802F091790280818C
:1017900088608083E0917802F0917902808180688E
:1017A0008083E0917802F091790280818F7D80833F
:1017B00060E08DE00E94670A60E088E00E94670AAE
:1017C00087E394E0909352028093510280914D02FE
:1017D00090914E02A0914F02B09150028093490225
:1017E00090934A02A0934B02B0934C020E94E802ED
:1017F00082E391E00E94320A86E491E00E94320A7C
:1018000060E086E00E94670A61E086E00E94960A36
:1018100061E087E00E94670A61E087E00E94960A23
:101820008AE591E00E94320A0E94900964EF71E01B
:1018300080E090E00E94D20A0E946C0281E80E943F
:10184000D5010E94FC01182F0E94620217FF06C0FA
:101850008FE691E00E94320A0E9490090E948F0256
:10186000811106C086E891E00E94320A0E94900928
:1018700068E873E180E090E00E94D20A0E94370499
:101880006B017C010E94B20580915B0290E0C097E1
:10189000D4F48DE691E00E9422090E949009E12C87
:1018A0008E01075F1F4F6AE0F62E70E8D72E0E9468
:1018B000E8028091530290915402029771F02AE05D
:1018C0002E15F0F50AC084E591E00E9422090E94DD
:1018D0009009C701B6010E941E0785EB91E00E94A6
:1018E000320A86E491E00E94320A61E089E00E94B7
:1018F000960A60E089E00E94670A30E4332E4AEDE0
:10190000442E4DEF542E66246A94762C50E8852E92
:101910005EEE952E56E3A52EB12C0E9437040E9450
:10192000B20580915702863009F4FBC00E9437044B
:101930000E94B20580915702853109F046C1F1C07D
:1019400080E391E00E9422090E949009E39468E8F4
:1019500073E180E090E00E94D20A86E692E00E9465
:101960001F010C970CF4B4C00E94D309AB0144567C
:1019700051094438534038F489E091E00E9422092B
:101980000E949009A5C0683EF3E07F0714F0625BF7
:1019900001C0625E6E8B0E94D3096D8B0E94D309D9
:1019A0006C8B0E94D3096A8B0E94D309698B0E94B9
:1019B000D309688BCE0140960E946F034B015C01F6
:1019C000A8010E94CD040E946C028FE80E94D501FC
:1019D0000E94FC01C82E0E9462020E946C028EE8E6
:1019E0000E94D5018C2D8F770E94D5010E94620242
:1019F0000E948F02882309F459C089856F2D0E94A7
:101A0000D20E20E1829F900D112499838A850E9435
:101A1000D20E30E1839F900D11249A838B850E9412
:101A2000D20E40E1849F900D11249B838D850E94EE
:101A3000D20E50E1859F900D11249C838E850E94CB
:101A4000D20EE0E18E9F900D11249D838C858E83B4
:101A50008F858E510E94D20EF0E18F9F900D112440
:101A60009F83D8860E946C028EEB0E94D5019E0156
:101A70002F5F3F4F3901F30181913F010E94D50152
:101A800006151705C1F70E9462020E948F0281119C
:101A90000DC0C501B4010E94B8028CEF90E00E9415
:101AA0002209C501B4010E941E0706C08DEE90E018
:101AB0000E9422090E94900986E692E00E941F017E
:101AC000181619062CF486E692E00E94C807F4CF97
:101AD0000E94370480905C0290905D02A0905E02AC
:101AE000B0905F02681579058A059B0551F06093F7
:101AF0005C0270935D0280935E0290935F020E948D
:101B00001E07FAE0EF1203C083EE90E005C02BE061
:101B1000E212CDCE83ED90E00E9422090E9490094E
:101B2000C6CE109261021092600261E088E00E94CD
:101B3000670A60E27EE480E090E00E94D20A309280
:101B40007C0080917A00806480937A0080917A0092
:101B500086FDFCCF209178008091790030E0382B11
:101B6000C901330FAA0BBB0B9C01AD0126523240B9
:101B700041095109A4E6B0E00E948E0EA301920132
:101B80000E946F0E69017A01309361022093600216
:101B90008DE891E00E9422094AE050E0C701B601B9
:101BA0000E9499098BE891E00E9422090E94900905
:101BB00060E088E00E94670A809160029091610273
:101BC0008997A4F50E94000731C00E9437040E9443
:101BD000B20580915902803149F50E9437040E9474
:101BE000B20580915702853109F5C0900001D0906F
:101BF000010140E85EE350930101409300010AE0D7
:101C000010E08091600290916102899714F40E9423
:101C1000000760EC77E289E090E00E94D20A015070
:101C2000110979F7D0920101C09200018091000161
:101C300090910101880F991F092E000CAA0BBB0B74
:101C4000A5019401281B390B4A0B5B0BCA01B90192
:101C50000E94D20A0E942B0160CEE6E6F2E01382D7
:101C6000128288EE93E0A0E0B0E084839583A6839F
:101C7000B78322E131E03183208325EC30E03587E2
:101C8000248724EC30E03787268720EC30E0318B46
:101C9000208B21EC30E0338B228B22EC30E0358B33
:101CA000248B26EC30E0378B268B118E128E138E10
:101CB000148EECE0F3E01382128284839583A68372
:101CC000B78384E291E09183808383E0809305036E
:101CD00084E08093040385E0809303030895052E38
:101CE00097FB1EF400940E94860E57FD07D00E94B9
:101CF000A10E07FC03D04EF40C94860E509540952F
:101D0000309521953F4F4F4F5F4F089590958095A7
:101D1000709561957F4F8F4F9F4F08950E94C30E1E
:101D2000A59F900DB49F900DA49F800D911D11242F
:101D30000895B7FF0C948E0E0E948E0E821B930B9B
:101D40000895A1E21A2EAA1BBB1BFD010DC0AA1FFC
:101D5000BB1FEE1FFF1FA217B307E407F50720F014
:101D6000A21BB30BE40BF50B661F771F881F991F8F
:101D70001A9469F760957095809590959B01AC01D8
:101D8000BD01CF010895A29FB001B39FC001A39FE1
:101D9000700D811D1124911DB29F700D811D1124A4
:101DA000911D0895991B79E004C0991F961708F0BA
:101DB000961B881F7A95C9F78095089597FB072E83
:101DC00016F4009407D077FD09D00E94F20E07FCAC
:101DD00005D03EF4909581959F4F0895709561953B
:101DE0007F4F0895AA1BBB1B51E107C0AA1FBB1F51
:101DF000A617B70710F0A61BB70B881F991F5A9597
:101E0000A9F780959095BC01CD010895EE0FFF1FB5
:101E10000590F491E02D099481E090E0F8940C9401
:061E2000110FF894FFCF42
:101E2600C8AF1F1C1F1E1F1E1F1F1E1F1E1F0000C8
:101E36000000F6078F07B90743081F01C807DC072C
:101E46000000000084017901440135013C0139019B
:101E56003601445331333032525443205265616463
:101E66002054657374002D2D2D2D2D2D2D2D2D2DEA
:101E76002D2D2D2D2D2D2D2D2D00525443206D6FE2
:101E860064756C6520616374697661746564005479
:101E96006865204453313330322069732073746F80
:101EA600707065642E0054686520445331333032B7
:101EB6002069732077726974652070726F74656328
:101EC6007465642E2054686973206973206E6F727E
:101ED6006D616C2E004453313330325254432054DA
:0C1EE60065737420456E64000D0A000056
:00000001FF
