:100000000C944F010C9477010C9477010C947701B8
:100010000C9477010C9477010C94E5100C94770103
:100020000C9477010C9477010C9477010C94770170
:100030000C9477010C9477010C9477010C94770160
:100040000C94FD180C9477010C94510F0C942B0F09
:100050000C9477010C9477010C9477010C94770140
:100060000C94850B0C9477014572724A616E46655B
:10007000624D61724170724D61794A756E4A756C5C
:100080004175675365704F63744E6F7644656300C6
:10009000202020202046696E69736865642E0077F1
:1000A00061746572696E672074686520706C616E3A
:1000B00074732E2E2E005254432073657420666193
:1000C000696C65642E006C617374207472792E0003
:1000D00052544320736574206661696C65640052F4
:1000E00054432073657420746F3A20004572726F18
:1000F000723A2059656172206D75737420626520B3
:1001000074776F206F7220666F75722064696769FB
:1001100074730077616974696E6720666F7220641A
:100120006174652061742073657269616C20696E09
:100130007075742E2E2E004D6F64756C6520776F70
:10014000726B696E672070726F7065726C792E00C9
:1001500057726F6E672074696D652E2052657365E6
:100160007474696E67206D6F64756C652E00250070
:100170004D6F6973747572653A200044656570202F
:100180007761746572696E6720646F6E652E0020FA
:100190006F662031302E006379636C6520003E006D
:1001A0006572726F72206F70656E696E6720666926
:1001B0006C65203C004F6B2E00416E206572726FA3
:1001C00072206F63637572726564207768696C650D
:1001D0002077726974696E6720746F206D6963722D
:1001E0006F534420636172642E0057726974696EA4
:1001F00067207265706F7274206C696E6520746F11
:10020000206D6963726F534420636172642E2E2ED9
:100210002000646565706C79207761746572696E21
:1002200067206173207363686564756C65642E2E46
:100230002E007C3C3E5E2B3D3F2F5B5D3B2C2A22FB
:100240005C000000000023002600290000000000E0
:10025000240027002A0000000000250028002B00B1
:10026000040404040404040402020202020203035C
:100270000303030301020408102040800102040864
:1002800010200102040810200000000800020100F4
:10029000000304070000000000000000D81E112425
:1002A0001FBECFEFD8E0DEBFCDBF12E0A0E0B1E0CF
:1002B000E0E0F8E402C005900D92AC38B107D9F740
:1002C00026E0ACE8B2E001C01D92A233B207E1F72C
:1002D00011E0CFE4D1E004C02197FE010E94032089
:1002E000CE34D107C9F70E9447190C94FE230C9411
:1002F000000008958FEF9FEF08958FEF9FEF08950F
:100300008091000390E09195819591090895089559
:1003100080E090E0089585ED8093BC008091BC0062
:1003200084FDFCCF1092DA0208954091B602262F88
:1003300030E0240F311D21323105DCF42091DA0246
:100340002430C9F4FC0180E090E0861758F4309125
:10035000B6022191DC01AA56BD4FA30FB11D2C930B
:100360000196F3CF8091B602680F6093B60280E0E9
:10037000089581E0089582E00895CF93DF93CB0143
:10038000EA01642F0E949501CE01DF91CF9108957B
:10039000CF93DF931F92CDB7DEB7698361E0CE01C3
:1003A00001960E94950181E090E00F90DF91CF913E
:1003B00008951F93CF93DF93EC01162F0A971CF437
:1003C00080E30E943115BE01DD0F880B990B4AE0D6
:1003D00050E00E943615111634F4812FDF91CF9131
:1003E0001F910C943115DF91CF911F910895CF93F8
:1003F000DF93EC018D81882379F18C8187FF28C000
:100400006E857F858889998941E00E9488118823BB
:1004100019F1EA8980E2E89FF0011124E55DFC4FC3
:100420003097D1F08D81823040F48B899C89AD89E1
:10043000BE89848F958FA68FB78F8F89988DA98D50
:10044000BA8D938F828FB58BA48B8C818F778C83A1
:10045000DF91CF910C944D1180E0DF91CF91089501
:100460008F929F92AF92BF92CF92DF92EF92FF92C4
:100470000F931F93CF93DF93EC018D81811102C005
:1004800080E078C00B891C892D893E8904171507E7
:1004900026073707A8F36A017B01823029F4CA8650
:1004A000DB86EC86FD860DC0C114D104E104F104A5
:1004B00051F41E821F82188619861A861B861C8696
:1004C0001D8681E057C08A849B84AC84BD84EB8DFB
:1004D000FC8D258530E0275F3F4FB501A4014150D9
:1004E000510961097109022E04C0769567955795E7
:1004F00047950A94D2F7D701C6010197A109B1091E
:1005000004C0B695A795979587952A95D2F7841735
:100510009507A607B70720F089288A288B2871F449
:100520004F89588D698D7A8D4E835F83688779876F
:100530004C015D018E010A5F1F4F16C0841B950B95
:10054000A60BB70BF5CF4E815F8168857985980141
:100550008B8D9C8D0E94721291E0891A9108A108DE
:10056000B108882309F48CCF81149104A104B1044B
:1005700051F795CFDF91CF911F910F91FF90EF90A1
:10058000DF90CF90BF90AF909F908F9008958F9203
:100590009F92AF92BF92CF92DF92EF92FF920F9312
:1005A0001F93CF93DF9300D000D0CDB7DEB77C018F
:1005B00080E2689FF0011124E55DFC4F9385917105
:1005C00021F0842F827409F08FC0142FD701529626
:1005D0006C9352974091000150910101609102018A
:1005E000709103011E964D935D936D937C9351978B
:1005F0004489558960E070E0BA0155274427828D0F
:10060000938DA0E0B0E0482B592B6A2B7B2BD701B0
:1006100057964D935D936D937C935A97838588711C
:1006200059F4848D958DA68DB78DF701838B948BAE
:10063000A58BB68B81E012C0803109F055C09701BF
:100640002D5E3F4FD7015B968D919C915C970E94E8
:10065000A515882309F448C084E0F7018583812F1C
:100660008F70D70114968C931497F7011682178216
:10067000108611861A961D921D921D921C921D972E
:1006800016FF34C015968C91813071F511FF2CC086
:10069000F7014389548965897689452B462B472B79
:1006A00009F461C040E050E0BA01C7010E94300285
:1006B0008823D1F0F7018788908CA18CB28CC38CF1
:1006C000D48C82E090E0A0E0B0E0F60180839183DA
:1006D000A283B3839E012F5F3F4FB501A401C601E2
:1006E0000E947212811104C080E03DC081E03BC0D5
:1006F00000E010E09801B501A401C6010E94D111EB
:10070000882391F389809A80AB80BC80D60157966C
:100710008C91803129F088EF9FEFAFEFBFE004C0EC
:1007200088EF9FEFA0E0B0E088169906AA06BB0606
:1007300088F2D70157961D921D921D921C925A97CE
:10074000F701138A148A158A168A84818068848343
:10075000C7010E94F701882339F240E050E0BA0156
:10076000C7010E9430020F900F900F900F90DF9101
:10077000CF911F910F91FF90EF90DF90CF90BF909E
:10078000AF909F908F900895CF93DF93EC010E94DC
:10079000F701882311F01D8281E0DF91CF91089548
:1007A0003F924F925F926F927F928F929F92AF9201
:1007B000BF92CF92DF92EF92FF920F931F93CF934E
:1007C000DF93CDB7DEB72C970FB6F894DEBF0FBE20
:1007D000CDBF5C01DC015B968D909C905C9716967A
:1007E000CD90DD90ED90FC901997C114D104E104F7
:1007F000F10439F0BFEFCB1ADB0AEB0AFB0A312C0C
:1008000007C0F401C080D180E280F38033243394A8
:10081000F40181859285A385B4859C01AD012F5F8C
:100820003F4F4F4F5F4F29873A874B875C872601A1
:1008300037011D821E821F821886F40181859285F0
:10084000A385B4852D813E814F81588528173907AE
:100850004A075B0708F063C089859A85AB85BC852C
:100860008C159D05AE05BF0550F482E0C82ED12C35
:10087000E12CF12C92E0492E512C612C712C9E011F
:100880002F5F3F4FB701A601C4010E947212882357
:1008900009F445C089819A81AB81BC81892B8A2B5F
:1008A0008B2B41F0260137019FEF491A590A690A3B
:1008B000790A05C0C414D504E604F70491F02D812B
:1008C0003E814F8158852F5F3F4F4F4F5F4F2D83A4
:1008D0003E834F8358873FEFC31AD30AE30AF30AD4
:1008E000ACCF0FEF1FEF2FEF3FE0B301A201C40128
:1008F0000E94D111882399F0D50116964D915D91F2
:100900006D917C911997411551056105710549F06B
:1009100093018201C4010E94D111811102C080E0C3
:100920002AC0D50116964D925D926D927C921997D0
:10093000332051F0D301C2010196A11DB11DF40174
:1009400080839183A283B383F5018789908DA18DE4
:10095000B28D892B8A2B8B2B69F4D50157964D923A
:100960005D926D927C925A9714968C911497806840
:1009700014968C9381E02C960FB6F894DEBF0FBED0
:10098000CDBFDF91CF911F910F91FF90EF90DF903E
:10099000CF90BF90AF909F908F907F906F905F901F
:1009A0004F903F9008958FB7F89480910A038FBFBE
:1009B000089561E0FC0184810E94B91780910903C8
:1009C00081111092090308958EBD00000DB407FE39
:1009D000FDCF8EB508958FEF0C94E4040F931F9311
:1009E000CF93DF93EB010E945E188B010E94EB0412
:1009F0008F3F49F00E945E18601B710B6C177D07DA
:100A0000A8F380E001C081E0DF91CF911F910F91A9
:100A10000895CF93DF93EC018E81882389F08F8135
:100A200098859C012F5F3F4F38872F8382309240FB
:100A300018F40E94EB04F3CFCE010E94D9041E8269
:100A4000DF91CF9108958CBD9DBD0895CF93DF9325
:100A5000EC0180910903811109C081E080930903B1
:100A600080911306909114060E94230560E08C810A
:100A7000DF91CF910C94B9178F929F92AF92BF9252
:100A8000FF920F931F93CF93DF93EC01F62E490152
:100A90005A010E940905CE010E9426056CE271E010
:100AA000CE010E94EE048F2D80640E94E40408E1D0
:100AB00010E0D501C401002E04C0B695A795979506
:100AC00087950A94D2F70E94E40408501109083F60
:100AD0008FEF180771F7FF2029F088E0F81204C0A3
:100AE00087E803C085E901C08FEF0E94E40410E0AD
:100AF0000E94EB048A8787FF04C01F3F11F01F5F2D
:100B0000F7CFDF91CF911F910F91FF90BF90AF90E2
:100B10009F908F900895AF92BF92CF92DF92EF9205
:100B2000FF920F931F93CF93DF93EC016901C801EC
:100B3000820F931F8130924008F070C08E8188230D
:100B400071F088819981AA81BB8184179507A607D6
:100B5000B70729F48F819885C816D906B0F5488360
:100B600059836A837B838B85833039F089E0440F16
:100B7000551F661F771F8A95D1F79A01AB0161E176
:100B8000CE010E943C05882319F083E08D8346C086
:100B90000E945E185B010E94EB048A878F3F49F434
:100BA0000E945E186A197B096D327140A0F38FE0D4
:100BB00003C08E3F31F08DE08D83CE010E94D904B9
:100BC0002DC018861F8281E08E838F8198858C15B9
:100BD0009D0540F40E94EB048F81988501969887CB
:100BE0008F83F3CF6701E00EF11EEC14FD0431F0AA
:100BF0000E94EB04F60181936F01F7CF8F819885F6
:100C0000080F191F18870F838985882319F001158C
:100C1000124048F0CE010E94090505C0CE010E9495
:100C2000D90480E001C081E0DF91CF911F910F9145
:100C3000FF90EF90DF90CF90BF90AF9008954F92CC
:100C40005F926F927F92AF92BF92CF92DF92EF92BC
:100C5000FF920F931F93CF93DF931F92CDB7DEB711
:100C6000FC012581222309F4C1C0848180FFBEC01C
:100C700083899489A589B689428453846484758460
:100C800084159505A605B70509F4B0C06F0152019A
:100C9000F1E0BF22D6015B968D919C915C97B301E8
:100CA000A20139E076956795579547953A95D1F722
:100CB000223071F4FC01828D938DA48DB58D8A0153
:100CC0009B01080F191F2A1F3B1FC901B8014AC009
:100CD000DC0114961C9111501423A114B104F9F4F1
:100CE00011111DC045284628472851F4F60187896F
:100CF000908DA18DB28D86839783A087B1870FC019
:100D0000D60116964D915D916D917C911997960142
:100D10002A5F3F4F0E947212882309F467C0F601D0
:100D2000238D348D86819781A085B1850297A10995
:100D3000B109AC01BD01F901058404C0440F551F80
:100D4000661F771F0A94D2F786859785A089B18997
:100D5000840F951FA61FB71FBC01CD01610F711D28
:100D6000811D911DD60114962C9126FF0DC0409037
:100D7000000150900101609002017090030146163D
:100D800057066806790699F440E00E948811882386
:100D900069F1F501E55DFC4FDE0111969F012F5FC2
:100DA0003F4F2E173F0799F081918D93FACFFE01A7
:100DB00031967F0101E010E09501AB01BC0180910B
:100DC0002B0590912C050E948B05882379F0F60164
:100DD00082859385A485B5850196A11DB11D828765
:100DE0009387A487B587898190E002C08FEF9FEF3A
:100DF0000F90DF91CF911F910F91FF90EF90DF90B7
:100E0000CF90BF90AF907F906F905F904F9008957C
:100E1000EF92FF920F931F93CF93DF93EC01790131
:100E2000411551056105710511F482E13CC08B85C6
:100E3000833039F089E0440F551F661F771F8A956C
:100E4000D1F79A01AB0168E1CE010E943C058823ED
:100E500011F084E028C08EEF0E94E40487018EEF39
:100E6000F81AF80181918F010E94E404E016F1065E
:100E7000C1F78FEF0E94E4048FEF0E94E4040E9408
:100E8000EB048A878F71853031F081E18D83CE014B
:100E90000E94D90409C068E572E0CE010E94EE0408
:100EA000811107C085E18D83CE010E94D90480E0C5
:100EB00014C020E030E0A9016DE0CE010E943C05A5
:100EC000811109C00E94EB04811105C0CE010E946E
:100ED000D90481E002C084E1E6CFDF91CF911F9178
:100EE0000F91FF90EF9008952F923F924F925F9253
:100EF0006F927F928F929F92AF92BF92CF92DF922A
:100F0000EF92FF920F931F93CF93DF9300D000D007
:100F1000CDB7DEB78C015B011A01DC0115968C910F
:100F200015978130C9F414968C9181FF15C082FF0A
:100F30001DC0F80143895489658976898285938526
:100F4000A485B58584179507A607B70779F0C8016A
:100F50000E94300281110AC081E090E0D80113960E
:100F60009C938E93129780E090E036C1610183C01C
:100F70005B968D919C915C97FC0174802FEF270DFF
:100F80002A013B0139E076946794579447943A9547
:100F9000D1F7722E74207A01F1E0FF22772009F454
:100FA00076C080E092E08E199F0946018C159D0560
:100FB00008F44C01D8015B962D913C915C971696F4
:100FC0008D919D910D90BC91A02D0297A109B10921
:100FD000F901058404C0880F991FAA1FBB1F0A943A
:100FE000D2F74685578560897189840F951FA61FA2
:100FF000B71F9C01AD01270D311D411D511D290158
:101000003A01811432E0930609F088C08091000112
:1010100090910101A0910201B09103014816590677
:101020006A067B0659F48FEF9FEFDC018093000185
:1010300090930101A0930201B09303019501B301C4
:10104000A20180912B0590912C050E94080788230E
:1010500009F482CF9EEFB91AC818D908F801828521
:101060009385A485B585880D991DA11DB11D828725
:101070009387A487B587D8011A964D915D916D919C
:101080007C911D97C114D10409F072CF87C0E1147F
:10109000F10409F086CF16964D915D916D917C918A
:1010A0001997411551056105710559F457968D91B0
:1010B0009D910D90BC91A02D0097A105B10541F522
:1010C00021C09E012F5F3F4F0E947212882309F4B6
:1010D0004BCF89819A81AB81BC81F801238D348DFE
:1010E000F9012789203129F048EF5FEF6FEF7FE0AA
:1010F00004C048EF5FEF60E070E084179507A60733
:10110000B70730F0C8010E94D00381114ACF24CF25
:10111000F80186839783A087B18743CFE114F10458
:1011200029F5D8011A964D915D916D917C911D978D
:1011300053968D919D910D90BC91A02D4817590704
:101140006A077B0798F00E944D11882309F404CFA9
:1011500040920001509201016092020170920301DD
:101160008091260381608093260308C041E0C3017B
:10117000B2010E948811882309F4EECED501F7014F
:10118000E55DFC4F9F01280D391D2E173F0719F013
:101190008D918193FACFA80CB91C5ECFF801838999
:1011A0009489A589B68984179507A607B70738F4E7
:1011B000438B548B658B768B848180688483F801A4
:1011C000848183FD02C0C10107C0C8010E94F701EC
:1011D000882309F4C1CEF7CF0F900F900F900F9096
:1011E000DF91CF911F910F91FF90EF90DF90CF9003
:1011F000BF90AF909F908F907F906F905F904F9037
:101200003F902F90089560930F0370931003809385
:10121000110390931203DC01CB01845D9E4FAF4F0D
:10122000BF4F80930B0390930C03A0930D03B093D7
:101230000E0382E090E090931603809315030E94C2
:101240005E186093050370930603809307039093E1
:1012500008030895CF92DF92EF92FF920F931F93AE
:101260000E945E18C0900503D0900603E09007032B
:10127000F09008038B019C010C191D092E093F09F0
:1012800080910F0390911003A0911103B09112036C
:10129000083E134021053105D0F00196A11DB11D76
:1012A00080930F0390931003A0931103B093120344
:1012B000B701A60148515C4F6F4F7F4F4093050324
:1012C000509306036093070370930803C9CF4091BE
:1012D0000B0350910C0360910D0370910E03841762
:1012E0009507A607B70788F1E0911303F09114035F
:1012F000309759F10995611571058105910519F02E
:101300000E94030922C080910F0390911003A091C5
:101310001103B0911203845D9E4FAF4FBF4F809376
:101320000B0390930C03A0930D03B0930E0381E085
:1013300090E02091150330911603232B11F480E0E7
:1013400090E0909316038093150360910F037091C2
:10135000100380911103909112031F910F91FF9040
:10136000EF90DF90CF9008954F925F926F927F92AF
:101370008F929F92AF92BF92CF92DF92EF92FF92A5
:101380000F931F93CF93DF93FC011681A12FB0E041
:1013900020E833E341EE51E00E94541F4B015C0111
:1013A000C2EBD7E09D0104E610E080E9E82EFF24BF
:1013B000F394CE01825B974082179307D4F4CE0159
:1013C00083709927892B99F4CE01B8010E94DB1F05
:1013D000892B31F4CE01B7010E94DB1F892B39F430
:1013E00080E8880E81E5981E81E0A81EB11C219638
:1013F000E0CF4580512C2E54384FC90164E670E08F
:101400000E94DB1F7C01C90160E971E00E94DB1FC3
:101410006C010AE011E0C1E0D0E03901A3E06A22EA
:101420007724C415D50534F5C230D10589F461148B
:10143000710471F4E114F10419F4C114D10441F4FC
:10144000B0E88B0EBBE39B1EB6E2AB1EB11C0EC018
:10145000D8018C91A82FB0E020E831E541E050E0C0
:101460000E94541F860E971EA81EB91E21960F5F5C
:101470001F4FD7CF4181228130E0A0E1BEE00E9422
:10148000C01F6B017C01242F30E0ACE3B0E00E9470
:10149000C01FDC01CB018C0D9D1DAE1DBF1D208129
:1014A0006C017D01C20ED11CE11CF11CA481B0E0D5
:1014B000119720E831E541E050E00E945F1FDC0118
:1014C000CB018C0D9D1DAE1DBF1DBC01CD01680D56
:1014D000791D8A1D9B1DDF91CF911F910F91FF9068
:1014E000EF90DF90CF90BF90AF909F908F907F90C4
:1014F0006F905F904F9008956F927F928F929F921E
:10150000AF92BF92CF92DF92EF92FF920F931F9311
:10151000CF93DF936B017C01EA018CE3882E912C41
:10152000A12CB12CC701B601A50194010E949E1FF8
:101530006883CA01B901A50194010E949E1F6983B5
:10154000C701B60120E13EE040E050E00E949E1F4E
:10155000CA01B90128E130E040E050E00E949E1F3E
:101560006A83C701B60120E831E541E050E00E94FE
:101570009E1F69017A01CA01B9016C5F7F4F8F4FCD
:101580009F4F27E030E040E050E00E949E1F6F5FD9
:101590006B83812C912C540140E094E6692E712CD0
:1015A00000E911E0242F30E02E54384FF901E370A8
:1015B000FF27309789F4C901B3010E94DB1F892BF3
:1015C00031F4C901B8010E94DB1F892B29F48EE692
:1015D00091E0A0E0B0E004C08DE691E0A0E0B0E0D2
:1015E000880E991EAA1EBB1ED501C401AA27BB27BF
:1015F000C816D906EA06FB0610F04F5FD3CF4E831C
:10160000309799F4C90164E670E00E94DB1F892BD2
:1016100039F4C90160E971E00E94DB1F892B29F4CC
:101620008EE691E0A0E0B0E004C08DE691E0A0E09D
:10163000B0E0881A990AAA0ABB0AC818D908EA08A9
:10164000FB08C90164E670E00E94DB1F8C01C90140
:1016500060E971E00E94DB1FAAE0B1E020E02130E8
:1016600041F4309751F40115110529F4009729F43C
:1016700002C04C9103C04DE101C04CE150E060E07C
:1016800070E0C416D506E606F70640F0C41AD50A7F
:10169000E60AF70A2F5F11962C3009F72F5F2D838A
:1016A000C394CC82DF91CF911F910F91FF90EF9067
:1016B000DF90CF90BF90AF909F908F907F906F9072
:1016C0000895CF92DF92EF92FF92C0900103D090E5
:1016D0000203E0900303F0900403C616D706E80661
:1016E000F90671F06B017C0147E153E00E947C0A2E
:1016F000C0920103D0920203E0920303F09204032C
:10170000FF90EF90DF90CF9008951F920F920FB649
:101710000F9211242F933F934F935F936F937F9377
:101720008F939F93AF93BF93EF93FF938091B900F3
:10173000887F803609F49CC068F5883209F45BC064
:1017400090F4803109F454C038F4882309F4F2C0CD
:10175000883009F44DC0F2C0883109F44CC08032A1
:1017600009F45DC0EBC0803409F468C048F48033EC
:1017700009F455C0883309F0E1C08093D902D4C080
:10178000803509F44FC0883509F45DC0883409F00C
:10179000D5C0D2C0883909F4C3C0A8F4883709F489
:1017A00067C038F4883609F463C0803709F460C034
:1017B000C5C0883809F4B4C0803909F45FC08038E6
:1017C00009F0BCC05BC0803B09F484C038F4803AA7
:1017D00009F466C0883A09F47DC0B0C0803C09F4C1
:1017E000A3C0883C09F4A0C0883B09F486C0A6C009
:1017F0008091FF0210C09091FE028091FD02981727
:1018000070F5E091FE0281E08E0F8093FE02F0E021
:10181000E352FD4F80818093BB0085EC82C08093B2
:10182000D9028AC0E091FE0281E08E0F8093FE0211
:101830008091BB00F0E0E352FD4F80839091FE0267
:101840008091FD026AC0E091FE0281E08E0F8093DC
:10185000FE028091BB00F0E0E352FD4F8083809157
:10186000DC02811169C081E08093DB0284EA5DC003
:1018700083E08093DA021092D802CFCF8091D80211
:10188000803208F04DC0E091D80281E08E0F809345
:10189000D8028091BB00F0E0E854FD4F8083BDCFBB
:1018A00085EC8093BC001092DA028091D8028032DD
:1018B00030F4E091D802F0E0E854FD4F10826091DE
:1018C000D80270E088EB92E0E0E0F0E00995109239
:1018D000D80234C084E08093DA021092B7021092EA
:1018E000B602E0E0F0E009958091B602811105C0F2
:1018F00081E08093B60210929602E091B70281E0F7
:101900008E0F8093B702F0E0EA56FD4F80818093FE
:10191000BB009091B7028091B602981708F47DCF72
:1019200085E88093BC000AC085EC8093BC001092CF
:10193000DA0204C01092D9020E948B01FF91EF914C
:10194000BF91AF919F918F917F916F915F914F91D7
:101950003F912F910F900FBE0F901F901895CF922F
:10196000DF92EF92FF926B017C018FE990E00E9481
:10197000161561E089E00E94B91761E08DE00E94D0
:10198000B917C701B6010E94241860E089E00E94DF
:10199000B91760E08DE00E94B91780E990E00E94DD
:1019A00016158DE295E00E94150F89E780931E03BE
:1019B000FF90EF90DF90CF9008958F929F92AF921B
:1019C000BF92CF92DF92EF92FF924B015C010E9497
:1019D000610B80911B0360E090E00E94D901C5017A
:1019E000B4010E94610BC0901D03D12C8EE4C81A73
:1019F00088EFD80A0D2C000CEE08FF08C501B401D1
:101A00000E94610B20911C0383E0289F9001112408
:101A1000ACE8B2E080E090E0F901E80FF91FE85986
:101A2000FF4FE491ED93019683309105A9F7109251
:101A30008F026CE872E08DE295E00E94000F4AE0B0
:101A400050E0C701B6010E94361580E20E943115B0
:101A5000C501B4010E94610B809119036AE390E013
:101A60000E94D901C501B4010E94610B8091180345
:101A70006AE390E00E94D901C501B4010E94610BA4
:101A80008091170360E290E00E94D9018DE295E019
:101A9000FF90EF90DF90CF90BF90AF909F908F908E
:101AA0000C94150FCF92DF92EF92FF920F931F933A
:101AB000CF93DF936C017A018B01C0E0D0E0CE15AB
:101AC000DF0581F0D8016D918D01D601ED91FC917A
:101AD0000190F081E02DC6010995892B11F0219626
:101AE000EECF7E01C701DF91CF911F910F91FF9043
:101AF000EF90DF90CF900895FC01538D448D252FFA
:101B000030E0842F90E0821B930B541710F0CF9697
:101B1000089501970895FC01918D828D981761F0C9
:101B2000828DDF01A80FB11D5D968C91928D9F5F14
:101B30009F73928F90E008958FEF9FEF0895FC01BF
:101B4000918D828D981731F0828DE80FF11D858D72
:101B500090E008958FEF9FEF0895FC01918D228D05
:101B6000892F90E0805C9F4F821B91098F7399278A
:101B700008958DE295E00E94AD0D21E0892B09F4D6
:101B800020E0822F0895FC01848DDF01A80FB11D94
:101B9000A35ABF4F2C91848D90E001968F739927A3
:101BA000848FA689B7892C93A089B1898C91837081
:101BB00080648C93938D848D981306C00288F3897A
:101BC000E02D80818F7D80830895EF92FF920F93A7
:101BD0001F93CF93DF93EC0181E0888F9B8D8C8DD9
:101BE000981305C0E889F989808185FD26C0F62E05
:101BF0000B8D10E00F5F1F4F0F731127E02E8C8DA0
:101C0000E8120CC00FB607FCFACFE889F989808189
:101C100085FFF5CFCE010E94C30DF1CF8B8DFE0164
:101C2000E80FF11DE35AFF4FF0829FB7F8940B8F36
:101C3000EA89FB89808180620AC09FB7F894EE89A7
:101C4000FF896083E889F98980818370806480835B
:101C50009FBF81E090E0DF91CF911F910F91FF90A6
:101C6000EF900895CF93DF93EC01888D8823C9F01E
:101C7000EA89FB89808185FD05C0A889B9898C9195
:101C800086FD0FC00FB607FCF5CF808185FFF2CF30
:101C9000A889B9898C9185FFEDCFCE010E94C30D33
:101CA000E7CFDF91CF91089580E090E0892B29F074
:101CB0000E94B90D81110C9400000895DC01599621
:101CC000ED91FC915A973097B9F083899489A58951
:101CD000B6894285538564857585841B950BA60B53
:101CE000B70B811520E89207A105B10538F08FEFF9
:101CF0009FE7A0E0B0E0089580E090E00895CF93E2
:101D0000DF931F92CDB7DEB76983DC01ED91FC91C3
:101D10000280F381E02D41E050E0BE016F5F7F4F14
:101D200009950F90DF91CF9108950E942A21FC011F
:101D3000818D928D009711F00C94F7010895FC01AC
:101D4000818D928D009711F00C941F068FEF9FEFFD
:101D500008950F931F93CF93DF93FC01818D928D94
:101D60000097B9F0EF010E941F068C010F3F8FEF23
:101D7000180791F0898D9A8DFC0142855385648501
:101D8000758541505109610971090E943002C801ED
:101D900005C080E090E002C08FEF9FEFDF91CF9110
:101DA0001F910F910895CF93DF93EC01898D9A8D48
:101DB000009739F481E090E09B838A8380E090E093
:101DC0000BC0FC01138212820E947407E98DFA8D08
:101DD00022813381232B71F7DF91CF910895CF9327
:101DE000DF931F92CDB7DEB7698341E050E0BE01BB
:101DF0006F5F7F4F0E9474070F90DF91CF9108951E
:101E00006115710579F0FB0101900020E9F7319728
:101E1000AF01461B570BDC01ED91FC910280F38171
:101E2000E02D099480E090E0089568E872E00C9459
:101E3000000F0F931F93CF93DF93EC010E94000FCD
:101E40008C01CE010E94150F800F911FDF91CF9161
:101E50001F910F9108951F920F920FB60F921124A8
:101E60002F933F934F935F936F937F938F939F93A2
:101E7000AF93BF93EF93FF938DE295E00E94C30D64
:101E8000FF91EF91BF91AF919F918F917F916F9152
:101E90005F914F913F912F910F900FBE0F901F9028
:101EA00018951F920F920FB60F9211242F938F93B4
:101EB0009F93EF93FF93E0913D05F0913E05808164
:101EC000E0914305F091440582FD12C0908180911C
:101ED00046058F5F8F7320914705821751F0E0917F
:101EE0004605F0E0E35DFA4F958F8093460501C00B
:101EF0008081FF91EF919F918F912F910F900FBE55
:101F00000F901F9018950F931F93CF93DF93C0E00E
:101F1000D0E0082F10E0B8010C2E02C0759567952F
:101F20000A94E2F76170809116060E94B91761E089
:101F3000809115060E94B91760E0809115060E94F5
:101F4000B9172196C830D10531F7DF91CF911F9194
:101F50000F910895BF92CF92DF92EF92FF920F936D
:101F60001F93CF93DF9360E0809116060E94E817DD
:101F7000C0E0D0E010E0C12CD12C7601C3942091B8
:101F8000160630E0F901E857FD4F8491F901EC584D
:101F9000FD4F0491F901E05AFD4FB490BB2099F137
:101FA00081110E949017EB2DF0E0EE0FFF1FEE5B0A
:101FB000FD4FA591B491EC910E2329F1D701C601F3
:101FC0000C2E04C0880F991FAA1FBB1F0A94D2F7BA
:101FD000182B61E0809115060E94B91760E080918E
:101FE00015060E94B9172196C830D10509F0C7CF50
:101FF000812FDF91CF911F910F91FF90EF90DF9094
:10200000CF90BF900895D701C6010C2E04C0880F51
:10201000991FAA1FBB1F0A94D2F780951823D9CF06
:1020200060E0809117060E94B9178BE090E001975D
:10203000F1F7089560E0809117060E94B91761E0FA
:10204000809117060E94E81760E0809115060E94B3
:10205000B91761E0809115060E94E81761E0809150
:1020600016060E94E81761E0809117060E94B917D2
:102070008BE090E00197F1F70895EF92FF920F93B4
:102080001F93CF93DF93CDB7DEB72F970FB6F8949A
:10209000DEBF0FBECDBF0E941A108FEB0E94830FD0
:1020A000CE0101967C018E01075F1F4F0E94AA0F8F
:1020B000F70181937F010E171F07C1F70E941010CF
:1020C0008981682F6695669566956E70962F990F33
:1020D000990F690F8F70680F69878A81482F46951D
:1020E000469546954E70942F990F990F490F8F7012
:1020F000480F4A878B81382F36953695369536703E
:10210000932F990F990F390F8F70380F3B878C8160
:10211000282F2695269526952670922F990F990F90
:10212000290F8F70280F2D878D8184FB992790F9B7
:10213000990F592F550F550F950F8F70980F9E8738
:102140005E8157705C878F81782F72957F708F705A
:10215000825EFAE07F9F800D11248F876C3398F4A4
:102160004C3388F4383178F421502F3160F4915099
:102170009C3048F45150573030F4843620F4C80174
:102180000E94B40903C060E070E0CB012F960FB647
:10219000F894DEBF0FBECDBFDF91CF911F910F919D
:1021A000FF90EF900895CF930E941A108FE80E943D
:1021B000830F0E94AA0FC82F0E9410108C2F8095A9
:1021C000881F8827881FCF9108951F920F920FB6FE
:1021D0000F9211248F930FB6F894A8958091600008
:1021E000886180936000109260000FBE8F910F9005
:1021F0000FBE0F901F901895FC01DB0112968D9178
:102200009C911397938382838EE391E091838083E3
:1022100014968C911497848315968C9115978583C9
:1022200016964D915D916D917C91199746835783D8
:10223000608771871A964D915D916D917C911D9784
:1022400042875387648775871E964D915D916D9186
:102250007C91519746875787608B718B52968C91F2
:102260005297828B53964D915D916D917C915697CB
:10227000438B548B658B768B57964D915D916D9109
:102280007C915A97478B508F618F728F5B968D919F
:102290009C915C97948F838F089580912603882367
:1022A000A9F14091000150910101609102017091EA
:1022B00003012BE233E080912B0590912C050E94C5
:1022C0000807811102C080E00895409127035091D2
:1022D00028036091290370912A0341155105610576
:1022E000710591F02BE233E080912B0590912C0544
:1022F0000E940807882339F31092270310922803BD
:102300001092290310922A031092260381E0089567
:102310008F929F92AF92BF92EF92FF920F931F9373
:10232000CF934B015C01C42F80910001909101017A
:10233000A0910201B091030188159905AA05BB057A
:1023400001F10E944D11811102C080E020C08BE29A
:10235000E82E83E0F82E00E012E020E030E0B50146
:10236000A40180912B0590912C050E948B05882358
:1023700061F38092000190920101A0920201B0925B
:10238000030180912603C82BC093260381E0CF91DF
:102390001F910F91FF90EF90BF90AF909F908F9003
:1023A00008954F925F926F927F928F929F92AF9219
:1023B000BF92CF92DF92EF92FF920F931F93CF9332
:1023C000DF93EC01423051056105710510F480E0A6
:1023D00078C089859A85AB85BC850196A11DB11D04
:1023E00084179507A607B70790F3CB88DC88ED889C
:1023F000FE888F89803129F4BB27A72F962F852F40
:1024000009C0DB01CA01E7E0B695A79597958795C6
:10241000EA95D1F7480159012A013B01C80ED91E9E
:10242000EA1EFB1E8091000190910101A091020122
:10243000B0910301C816D906EA06FB0681F48F891C
:102440008031A9F4B301A201552766277727440FED
:10245000551FFA01E55DFC4F9182808219C040E072
:10246000C701B6010E9488118111E9CFB0CFB30135
:10247000A2014F77552766277727440F551F440F32
:10248000551FFA01E55DFC4F80829182A282B382E2
:10249000809126038160809326038A89823080F0B0
:1024A0008D819E81AF81B885C80ED91EEA1EFB1EA4
:1024B000C0922703D0922803E0922903F0922A03C6
:1024C00081E0DF91CF911F910F91FF90EF90DF900E
:1024D000CF90BF90AF909F908F907F906F905F90C4
:1024E0004F9008958F929F92AF92BF92CF92DF92BA
:1024F000EF92FF920F931F93CF93DF93FC0181859F
:102500009285A385B4850196A11DB11D84179507F9
:10251000A607B70710F480E05BC083889488A5887D
:10252000B6888789803129F4BB27A72F962F852F5E
:1025300009C0DB01CA01C7E0B695A79597958795B5
:10254000CA95D1F7E9016A017B018F01BC01CD0178
:10255000680D791D8A1D9B1D8090000190900101DE
:10256000A0900201B0900301681579058A059B05CA
:1025700091F4F80187898031A1F4DD24EE24FF2451
:10258000C601880F991FFC01E55DFC4F8081918198
:10259000A0E0B0E018C040E00E9488118111E9CFAE
:1025A000BACFE894C7F8DD24EE24FF24C601880FD3
:1025B000991F880F991FFC01E55DFC4F8081918177
:1025C000A281B381BF7088839983AA83BB8381E092
:1025D000DF91CF911F910F91FF90EF90DF90CF90FF
:1025E000BF90AF909F908F9008952F923F924F92FF
:1025F0005F926F927F928F929F92AF92BF92CF9293
:10260000DF92EF92FF920F931F93CF93DF93CDB79B
:10261000DEB72B970FB6F894DEBF0FBECDBF7C019F
:10262000FE013196CE010C966F0130E23193E8172E
:10263000F907E1F7DA0130E087E09D91992331F164
:102640009E3231F48A3009F46BC138E08AE0F5CF6C
:10265000E2E3F2E04491442321F031969413FACF5F
:102660005FC1831708F45CC14FED490F4E3508F088
:1026700057C141E0430FF601E30FF11D3FE9390F68
:102680003A3108F490529083342FD7CF8981803229
:1026900009F446C1322E8B01DB015B968D919C9132
:1026A0005C97F701948F838F16961D921D921D9251
:1026B0001C921997FB011286138614861586B12C7D
:1026C000F80182859385A485B585438954896589F8
:1026D000768984179507A607B70708F05BC025E041
:1026E000B695A795979587952A95D1F7F82FFF70FE
:1026F000AF2ED80115968C91823008F411C1C80113
:102700000E941F0697FD0CC1F80182859385A48560
:10271000B5854F96A11DB11D82879387A487B58784
:10272000F0E2AF9EB0011124655D7C4F611571052B
:1027300009F4F6C0DB018C91882319F0853EC1F4C1
:10274000F1C0B1100EC0F701A28A809100019091F2
:102750000101A0910201B091030186879787A08BA8
:10276000B18BDB018C91882399F0BB24B394A8CF63
:102770004BE050E0C6010E942F21892B09F0A0CF29
:10278000832D8073803309F4CBC0432D6A2DC4C0E0
:10279000BB24B394832D8271823109F0C1C0BB2068
:1027A000C1F0F701668577858089918941E00E94B3
:1027B0008811882309F4B4C0D70152968C91B0E2F5
:1027C0008B9FC0011124855D9C4F009709F078C054
:1027D000A7C0F8018581823009F4A2C0C8010E9417
:1027E000D003882309F49CC0D8015B96ED91FC913D
:1027F0005C9716968D909D90AD90BC901997B2E025
:102800008B1A9108A108B108058404C0880C991C92
:10281000AA1CBB1C0A94D2F786859785A089B1892A
:10282000880E991EAA1EBB1E2480E1E08E1A910814
:10283000A108B108222009F124013501420C511CE4
:10284000611C711C0E944D11882309F469C0EBE2E0
:10285000F3E0119225E0EB32F207D9F74092000144
:10286000509201016092020170920301809126034F
:102870008160809326032A94DDCFD8015B96ED9189
:10288000FC915C9780E092E0A0E0B0E0058404C099
:10289000880F991FAA1FBB1F0A94D2F7F80143891A
:1028A000548965897689840F951FA61FB71F838B6E
:1028B000948BA58BB68BD70152961C928BE293E03A
:1028C00020E2FC0111922A95E9F72BE0F601DC01E8
:1028D00001900D922A95E1F721E238E2DC01519650
:1028E0003C932E93509740E058E01F965C934E9394
:1028F0001E9753963C932E93529759963C932E9342
:10290000589757965C934E9356970E944D11882383
:1029100039F0432DF7016289C7010E94C70205C043
:1029200080E003C0B11021CF0ECF2B960FB6F894E4
:10293000DEBF0FBECDBFDF91CF911F910F91FF90F2
:10294000EF90DF90CF90BF90AF909F908F907F904F
:102950006F905F904F903F902F9008953FB7F894FD
:1029600080911E0690911F06A0912006B09121062D
:1029700026B5A89B05C02F3F19F00196A11DB11DDA
:102980003FBFBA2FA92F982F8827820F911DA11D15
:10299000B11DBC01CD0142E0660F771F881F991F52
:1029A0004A95D1F708958F929F92AF92BF920F935D
:1029B0001F93CF93DF93CDB7DEB7A1970FB6F894EF
:1029C000DEBF0FBECDBF19A2423008F44AE08E012F
:1029D0000F5D1F4F842E912CA12CB12CA5019401C9
:1029E0000E949E1FE62FB901CA0101501109EA3069
:1029F00014F4E05D01C0E95CD801EC93232B242B97
:102A0000252B61F7B8018DE295E00E94000FA19699
:102A10000FB6F894DEBF0FBECDBFDF91CF911F91EF
:102A20000F91BF90AF909F908F9008950F931F9339
:102A3000CF93DF938C01C0E0D0E0F801EC0FFD1FD5
:102A40006491662341F08DE295E00E94E50D892BAB
:102A500011F02196F2CFCE01DF91CF911F910F910E
:102A60000895682F8DE295E00C94E50DCF92DF92EA
:102A7000EF92FF92CF93DF934115510551F48DE210
:102A800095E0DF91CF91FF90EF90DF90CF900C9485
:102A9000E50D4A305105E1F497FF19C06B017C0147
:102AA0008DE20E943115EC0166277727CB016C1966
:102AB0007D098E099F094AE00E94D3148C0F9D1F47
:102AC000DF91CF91FF90EF90DF90CF9008954AE093
:102AD000DF91CF91FF90EF90DF90CF900C94D314C3
:102AE000EF92FF920F931F93CF93DF93EC017B0143
:102AF0008A011B821A8288EE93E0A0E0B0E08C830A
:102B00009D83AE83BF838AE191E0998388838DE1C1
:102B100090E00E9409209A8F898F009779F02DE12B
:102B2000F701DC0101900D922A95E1F74CE050E0AD
:102B3000B801CE010C960E943C21188EDF91CF91F6
:102B40001F910F91FF90EF9008954F925F926F92B7
:102B50007F92AF92BF92CF92DF92EF92FF920F934C
:102B60001F93CF93DF9300D000D0CDB7DEB78C0199
:102B700049835A836B837C835901C12CD12C760104
:102B8000412C82E0582E612C712C49815A816B8135
:102B90007C819E012F5F3F4FC8010E9472128823E3
:102BA00051F1D301C201F801058404C0880F991FB7
:102BB000AA1FBB1F0A94D2F7C80ED91EEA1EFB1E1D
:102BC00049815A816B817C818789803129F088EF26
:102BD0009FEFAFEFBFE004C088EF9FEFA0E0B0E051
:102BE000481759076A077B0780F2F501C082D18236
:102BF000E282F38281E00F900F900F900F90DF91AF
:102C0000CF911F910F91FF90EF90DF90CF90BF90E9
:102C1000AF907F906F905F904F900895CF93DF9328
:102C2000FC012581222311F080E049C0EC01809154
:102C3000ED058031C1F482E08583178A108E118EF4
:102C4000128E8091EE059091EF05A0E0B0E025E0B6
:102C5000880F991FAA1FBB1F2A95D1F7838B948BCE
:102C6000A58BB68B19C08032F9F683E0858340913D
:102C7000F0055091F1056091F2057091F305478BD5
:102C8000508F618F728F9F012D5E3F4F86ED95E0D3
:102C90000E94A515882341F286ED95E09C8F8B8FCD
:102CA00081E08C831E821F82188619861A861B86F5
:102CB0001C861D861E861F86188A198A1A8ADF912D
:102CC000CF9108958F929F92AF92BF92CF92DF9251
:102CD000EF92FF92CF93DF93C82F8AEC95E0909309
:102CE0002C0580932B05CC2369F1C53010F080E0D2
:102CF0000CC140E060E070E0CB010E9488118823A5
:102D0000B1F320E1C29FC0011124855E9C4FFC01FC
:102D1000E254FE4F20812F7751F73C96408151813C
:102D200062817381443651056105710500F3349762
:102D3000C080D180E280F380C114D104E104F104A9
:102D400021F4D5CFC12CD12C760140E0C701B601CA
:102D50000E948811882359F280913603909137039D
:102D60008115924021F6A0913B03AA2309F4BFCF1D
:102D70006091390370913A036115710509F4B7CF79
:102D800020913803222309F4B2CFA093E8052093C1
:102D9000DA0580E030E041E050E0C82FFA01082E6B
:102DA00002C0EE0FFF1F0A94E2F72E173F0739F01B
:102DB0008F5FC83091F789E08093E30598CF8093C7
:102DC000E30520914103309142032115310519F0AB
:102DD00040E050E008C020914F03309150034091F3
:102DE0005103509152032093DB053093DC0540934F
:102DF000DD055093DE0546015701860E971EA11C86
:102E0000B11C8092E9059092EA05A092EB05B09280
:102E1000EC05E0913C03F0913D03F093EF05E09366
:102E2000EE05B0E00E94541F860E971EA81EB91E24
:102E30008092F0059092F105A092F205B092F30510
:102E400085E0EE0FFF1F8A95E1F7E150FE4FEF2F6F
:102E5000FF27E6958E0E9F1EA11CB11C8092E405F3
:102E60009092E505A092E605B092E70520913E0319
:102E700030913F032115310521F0A90160E070E098
:102E800008C040914B0350914C0360914D037091E9
:102E90004E03D701C60188199909AA09BB09840FF5
:102EA000951FA61FB71F04C0B695A7959795879540
:102EB000CA95D2F78093DF059093E005A093E105D2
:102EC000B093E205853F2FE09207A105B10510F40C
:102ED0008CE018C0853F9F4FA105B10510F480E13B
:102EE00011C08091570390915803A0915903B0915C
:102EF0005A038093F0059093F105A093F205B093E7
:102F0000F30580E28093ED0581E0DF91CF91FF90A2
:102F1000EF90DF90CF90BF90AF909F908F900895EB
:102F2000833081F028F4813099F08230A1F0089547
:102F30008730A9F08830B9F08430D1F480918000D6
:102F40008F7D03C0809180008F77809380000895EB
:102F500084B58F7702C084B58F7D84BD089580913C
:102F6000B0008F7703C08091B0008F7D8093B00058
:102F700008951F93CF93DF93282F30E0F901E8578E
:102F8000FD4F8491F901EC58FD4FD491F901E05ABD
:102F9000FD4FC491CC23C1F0162F81110E949017D0
:102FA000EC2FF0E0EE0FFF1FEA5AFD4FA591B49110
:102FB0009FB7F894111104C08C91D095D82302C00A
:102FC000EC91DE2BDC939FBFDF91CF911F91089591
:102FD000CF93DF9390E0FC01EC58FD4F2491FC016E
:102FE000E05AFD4F8491882361F190E0880F991F8A
:102FF000FC01E45BFD4FC591D491FC01EA5AFD4F01
:10300000A591B491611109C09FB7F894888120956A
:1030100082238883EC912E230BC0623061F49FB72A
:10302000F8948881322F309583238883EC912E2B5E
:103030002C939FBF06C08FB7F894E8812E2B28836E
:103040008FBFDF91CF9108958F929F92AF92BF92E1
:10305000CF92DF92EF92FF926B017C010E94AE143F
:103060004B015C01C114D104E104F104F1F00E94B0
:10307000AE14DC01CB0188199909AA09BB09883E65
:103080009340A105B10570F321E0C21AD108E1080F
:10309000F10888EE880E83E0981EA11CB11CC114B3
:1030A000D104E104F10419F7DDCFFF90EF90DF9038
:1030B000CF90BF90AF909F908F9008952FB7F894C6
:1030C00060911A0670911B0680911C0690911D0656
:1030D0002FBF08950F931F930E945E1860933505CC
:1030E0007093360580933705909338058DE295E00F
:1030F0000E949F0D97FF1FC00E945E18009135052A
:10310000109136052091370530913805DC01CB014F
:10311000801B910BA20BB30B00913105109132056E
:10312000209133053091340580179107A207B3072A
:10313000E8F28FEF9FEF1F910F910895CF92DF92EA
:10314000EF92FF92CF930E946A18FC0197FD0BC08B
:103150008D32910561F0C0970A9748F08DE295E0B5
:103160000E948B0DF0CF60E070E0CB0140C0C12C1D
:10317000D12C7601C0E0E130F10501F1ED32F1052D
:10318000E1F0CF01C0970A97C8F4AAE0B0E0A70128
:1031900096010E94541F6F01FF0FEE08FF08DC012B
:1031A000CB018C0D9D1DAE1DBF1D6C017D0120E36B
:1031B000C21AD108E108F10801C0C1E08DE295E032
:1031C0000E948B0D0E946A18FC01C0970A9798F222
:1031D000E130F10581F2CC2341F066277727CB015E
:1031E0006C197D098E099F0902C0C701B601CF91F4
:1031F000FF90EF90DF90CF9008951F920F920FB63F
:103200000F9211242F933F938F939F93AF93BF936C
:1032100080911A0690911B06A0911C06B0911D0684
:103220003091190623E0230F2D3720F40196A11DBC
:10323000B11D05C026E8230F0296A11DB11D2093E4
:10324000190680931A0690931B06A0931C06B09350
:103250001D0680911E0690911F06A0912006B09138
:1032600021060196A11DB11D80931E0690931F0695
:10327000A0932006B0932106BF91AF919F918F91AB
:103280003F912F910F900FBE0F901F901895CF93E5
:10329000DF93CDB7DEB7C85DD1090FB6F894DEBFB6
:1032A0000FBECDBF789484B5826084BD84B5816043
:1032B00084BD85B5826085BD85B5816085BD809101
:1032C0006E00816080936E00109281008091810079
:1032D0008260809381008091810081608093810071
:1032E000809180008160809380008091B100846033
:1032F0008093B1008091B00081608093B000809194
:103300007A00846080937A0080917A008260809352
:103310007A0080917A00816080937A0080917A00AF
:10332000806880937A001092C100E0913D05F09191
:103330003E0582E08083E0913905F0913A051082E4
:10334000E0913B05F0913C058FEC808310924505A0
:10335000E0914105F091420586E08083E0913F05D0
:10336000F0914005808180618083E0913F05F0917C
:103370004005808188608083E0913F05F0914005A1
:10338000808180688083E0913F05F09140058081D5
:103390008F7D808360E08DE00E94B91760E088E057
:1033A0000E94B9178DE390E1909314038093130367
:1033B00080910F0390911003A0911103B09112031B
:1033C00080930B0390930C03A0930D03B0930E0313
:1033D0000E942A0966E771E08DE295E00E94190FCC
:1033E0006AE871E08DE295E00E94190F60E086E0E6
:1033F0000E94B91761E086E00E94E81761E087E06B
:103400000E94B91761E087E00E94E8176EE971E059
:103410008DE295E00E94190F8DE295E00E94150F54
:1034200064EF71E080E090E00E9424180E941A107E
:1034300081E80E94830F0E94AA0F182F0E9410108B
:1034400017FF0AC063EB71E08DE295E00E94190F4F
:103450008DE295E00E94150F0E94D31081110AC0E1
:103460006AEC71E08DE295E00E94190F8DE295E023
:103470000E94150F68E873E180E090E00E94241834
:103480000E943D106B017C010E94610B80911D0325
:1034900090E0C097ECF480E591E00E9416158DE273
:1034A00095E00E94150FE12C7AE0F72EE0E8DE2E81
:1034B0008E01075F1F4F0E942A098091150390918A
:1034C0001603029789F02AE02E1508F050C30CC0AD
:1034D00087E391E00E9416158DE295E00E94150F9A
:1034E000C701B6010E94DD0C69EF71E08DE295E045
:1034F0000E94190F6AE871E08DE295E00E94190FB1
:1035000061E089E00E94E81760E089E00E94B91755
:103510008091F905882321F084EF95E00E94C4038F
:103520001092D5051092D3051092D0051092CF05B8
:103530008AE08093CE050E945E188B0161E0809145
:10354000CE050E94E81761E08091CE050E94B91770
:10355000FFB6F89480912303811127C0EAE6F2E0D8
:103560008491EEE7F2E09491E82FF0E0EE0FFF1F78
:10357000E45BFD4FA591B491EC91E92321F461E066
:103580008AE00E94B91761E08AE00E94E8178CB5D2
:1035900080618CBD8CB580648CBD61E08DE00E9443
:1035A000E81761E08BE00E94E817809123038F5FAA
:1035B00080932303FFBE82E58093130610921406C6
:1035C00080911306909114060E9423055AE0F52E6F
:1035D0008FEF0E94E404FA94F110FACF8AEC95E0A0
:1035E0000E94260520E030E0A90160E08AEC95E029
:1035F0000E943C05F82E8093D40541E0841749F0E1
:103600000E945E18601B710B613D774058F381E0AA
:1036100056C02AEA31E040E050E068E08AEC95E0EC
:103620000E943C0582FF03C0F092D50510C044E023
:10363000F42E0E94EB048093D405FA94F110F9CF94
:103640008A3A11F082E03BC082E08093D5058091F8
:10365000D505823021F0C12CD12C760105C0C12CBA
:10366000D12CE12C30E4F32E20E030E0A90167E317
:103670008AEC95E00E943C05A701960169E28AEC7C
:1036800095E00E943C058093D405882349F00E9470
:103690005E18601B710B613D774030F388E00FC00E
:1036A0008091D505823001F520E030E0A9016AE380
:1036B0008AEC95E00E943C05882341F086E08093E7
:1036C000CF058AEC95E00E94D90428C00E94EB0443
:1036D000807C803C19F483E08093D5050E94EB0444
:1036E0000E94EB040E94EB048AEC95E00E94D9044E
:1036F00080E5809313061092140681E00E94621602
:10370000882339F084EF95E00E940E16882331F06B
:1037100008C080E00E9462168111F4CF6CE072E074
:1037200002C065E472E08DE295E00E94190F9AED07
:10373000C92E9DEFD92EEE24EA94FE2CFE0131967F
:103740001F0128EE422E23E0522E612C712C0E9484
:103750003D100E94610B0091190310E010922503A7
:103760001092240361E088E00E94B91760E177E2DB
:1037700080E090E00E942418F0E4F0937C008091B7
:103780007A00806480937A0080917A0086FDFCCF75
:10379000209178008091790030E0382BC901330FF7
:1037A000AA0BBB0B9C01AD012652324041095109C5
:1037B000A4E6B0E00E94541FA70196010E94351FA5
:1037C00049015A01309325032093240380E791E0B7
:1037D0000E9416154AE050E0C501B4010E9436155A
:1037E0008EE691E00E9416158DE295E00E94150F7D
:1037F00060E088E00E94B9178EE680931E030630D1
:10380000110519F00531110501F5809124039091FE
:103810002503899734F468EC7FEA80E090E00E9409
:10382000AF0C60EE73E984E090E00E942418809170
:1038300024039091250389970CF064C068EC7FEA1B
:1038400080E090E00E94AF0C5DC00631110509F0E8
:1038500059C00E943D100E94610B80911B0390E0B3
:103860008730910549F08E30910531F08531910511
:1038700019F04C9709F046C082E192E00E941615BB
:103880008DE295E00E94150F812C912C54018394B8
:1038900087E991E00E9416154AE050E0C501B401A5
:1038A0000E9436158FE891E00E9416158DE295E092
:1038B0000E94150F8091240390912503899734F479
:1038C00060E87EE380E090E00E94AF0C60EA7BEB72
:1038D0008DE090E00E9424182FEF821A920AA20A2B
:1038E000B20A4BE084169104A104B10489F68BE777
:1038F00091E00E9416158DE295E00E94150F84E676
:1039000080931E0310911E03A12E012E000CBB08F4
:1039100080912403C952DF4F8883C75DD0409091C6
:103920002503C852DF4F9883C85DD0400E943D10E8
:103930000E94610B809018030E943D100E94610B51
:10394000909019030E943D100E94610BA0901B03F0
:103950000E943D100E94610B00911C030E943D10CB
:103960000E94610BBF921F93C852DF4FE881C85D70
:10397000D040EF93C952DF4FF881C75DD040FF932D
:103980001F928F921F929F921F92AF921F920F933E
:1039900080911D0390E08E54984F9F938F938EE5F6
:1039A00092E09F938F933F922F920E944B218AEE39
:1039B00091E00E941615A9961FAE1EAEA9978EE340
:1039C00091E0A7969FAF8EAFA797AB961FAEAB9730
:1039D000CE018B599F4F0E940E16BE016B597F4F2F
:1039E000CE0181569F4F0E94FC10CC57DF4F1982A9
:1039F0001882C458D040EEE3F1E0CE57DF4FF98390
:103A0000E883C258D040C957DF4F1882C758D0400A
:103A10000FB6F894DEBF0FBECDBFCC55DF4F888107
:103A2000C45AD040811122C0C254DF4F198218827B
:103A3000CE5BD040C054DF4F488259826A827B827D
:103A4000C05CD040EAE1F1E0C454DF4FF983E88381
:103A5000CC5BD040CB52DF4F19821882C55DD0407D
:103A6000C853DF4F1882C85CD04031C027E14FE710
:103A700052E0BE0161567F4FCE018E579F4F0E948C
:103A8000F512882389F2CE0181569F4F0E94C4030C
:103A9000CB56DF4F488159816A817B81C559D0401F
:103AA000CE018E579F4F0E943002BE016E577F4F4E
:103AB000CE018B599F4F0E94FC104FE752E0BE0190
:103AC0006B597F4FCE0184549F4F0E947015CB528B
:103AD000DF4FE881F981C55DD040309719F08581CD
:103AE000811115C080EA91E00E9416156FE772E01F
:103AF0008DE295E00E94000F8EE991E00E9416157C
:103B00008DE295E00E94150F81E090E01AC0B101AE
:103B1000CE0184549F4F0E94190FCB52DF4F8881F2
:103B20009981C55DD040009751F00E94C403CB52EB
:103B3000DF4F88819981C55DD0400E94A12080E03F
:103B400090E0892B19F089EB91E002C085EB91E0C0
:103B50000E9416158DE295E00E94150F60EF7EE839
:103B600085E390E00E9424180E94540EF0CD83E17A
:103B700091E00E9416158DE295E00E94150FE394E6
:103B800068E873E180E090E00E9424188DE295E0FF
:103B90000E94AD0D0C970CF4E0C00E949E18AB0182
:103BA000445651094438534048F48CEE90E00E944A
:103BB00016158DE295E00E94150FCFC0683EF3E028
:103BC0007F0714F0625B01C0625EC857DF4F6883F5
:103BD000C858D0400E949E18C957DF4F6883C75805
:103BE000D0400E949E18CA57DF4F6883C658D04005
:103BF0000E949E18CC57DF4F6883C458D0400E9463
:103C00009E18CD57DF4F6883C358D0400E949E183E
:103C1000CE57DF4F6883C258D040CE018E579F4F9A
:103C20000E94B4092B013C01AE014B595F4F0E9429
:103C30007C0A0E941A108FE80E94830F0E94AA0F2C
:103C4000C82E0E9410100E941A108EE80E94830F46
:103C50008C2D8F770E94830F0E9410100E94D3102A
:103C6000882309F466C0A6968FADA6976F2D0E9493
:103C7000CF1F20E1829F900D11249983A7968FADCD
:103C8000A7970E94CF1F40E1849F900D11249A8333
:103C9000A8968FADA8970E94CF1FE0E18E9F900D50
:103CA00011249B83AA968FADAA970E94CF1FF0E1A3
:103CB0008F9F900D11249C83AB968FADAB970E9484
:103CC000CF1F20E1829F900D11249D83A9968FAD77
:103CD000A9978E83AC968FADAC978E510E94CF1F63
:103CE00040E1849F900D11249F83D8860E941A1072
:103CF0008EEB0E94830FCE0101965C01F50181914C
:103D00005F010E94830FA016B106C1F70E94101038
:103D10000E94D31081110DC0C301B2010E9403099A
:103D20008FED90E00E941615C301B2010E94DD0CD8
:103D300008C080ED90E00E9416158DE295E00E948B
:103D4000150F8DE295E00E94AD0D181619062CF4A2
:103D50008DE295E00E948B0DF4CF0E943D10809083
:103D60001F0390902003A0902103B09022036815B8
:103D700079058A059B0551F060931F03709320031A
:103D800080932103909322030E94DD0CFAE0EF124E
:103D900003C086EC90E005C02BE0E2128CCB86EBF2
:103DA00090E00E9416158DE295E00E94150F83CBDE
:103DB000EDE2F5E01382128288EE93E0A0E0B0E03D
:103DC00084839583A683B7832CE231E031832083FB
:103DD00025EC30E03587248724EC30E037872687D0
:103DE00020EC30E0318B208B21EC30E0338B228BC8
:103DF00022EC30E0358B248B26EC30E0378B268BA1
:103E0000118E128E138E148EEAECF5E01582168256
:103E10001186138642E050E060E070E044875587E9
:103E20006687778713A215A614A62EE331E033A781
:103E300022A717A6E3E1F6E020E520831182E2E263
:103E4000F6E01382128284839583A683B78388E683
:103E500091E09183808383E08093170684E08093D0
:103E6000160685E0809315060895052E97FB1EF42F
:103E700000940E944C1F57FD07D00E949E1F07FC14
:103E800003D04EF40C944C1F5095409530952195DD
:103E90003F4F4F4F5F4F0895909580957095619576
:103EA0007F4F8F4F9F4F08950E94C01FA59F900D79
:103EB000B49F900DA49F800D911D11240895B7FF0C
:103EC0000C94541F0E94541F821B930B08952F9231
:103ED0003F924F925F926F927F928F929F92AF929A
:103EE000BF92CF92DF92EF92FF920F931F93CF93E7
:103EF000DF93CDB7DEB7CA1BDB0B0FB6F894DEBF7E
:103F00000FBECDBF09942A88398848885F846E84A3
:103F10007D848C849B84AA84B984C884DF80EE80ED
:103F2000FD800C811B81AA81B981CE0FD11D0FB6F6
:103F3000F894DEBF0FBECDBFED010895A1E21A2EA9
:103F4000AA1BBB1BFD010DC0AA1FBB1FEE1FFF1F3D
:103F5000A217B307E407F50720F0A21BB30BE40B8D
:103F6000F50B661F771F881F991F1A9469F76095D4
:103F70007095809590959B01AC01BD01CF0108958E
:103F8000A29FB001B39FC001A39F700D811D11249A
:103F9000911DB29F700D811D1124911D0895991BD3
:103FA00079E004C0991F961708F0961B881F7A9530
:103FB000C9F78095089597FB072E16F4009407D053
:103FC00077FD09D00E94EF1F07FC05D03EF49095C5
:103FD00081959F4F0895709561957F4F0895AA1B15
:103FE000BB1B51E107C0AA1FBB1FA617B70710F0E4
:103FF000A61BB70B881F991F5A95A9F78095909516
:10400000BC01CD010895EE0FFF1F0590F491E02D46
:1040100009940F931F93CF93DF938230910510F48F
:1040200082E090E0E0913006F091310620E030E04F
:10403000A0E0B0E0309719F14081518102811381F5
:1040400048175907C8F08417950769F4109731F09D
:1040500012960C93129713961C9327C00093300668
:104060001093310622C02115310519F0421753076C
:1040700018F49A01BD01EF01DF01F801DBCF211532
:104080003105F9F0281B390B2430310580F48A8181
:104090009B816115710521F0FB019383828304C02C
:1040A0009093310680933006FE01329644C0FE01A3
:1040B000E20FF31F819391932250310939832883B2
:1040C0003AC020912E0630912F06232B41F42091E7
:1040D00006013091070130932F0620932E06209180
:1040E0000401309105012115310541F42DB73EB78A
:1040F0004091080150910901241B350BE0912E06D7
:10410000F0912F06E217F307A0F42E1B3F0B2817A0
:10411000390778F0AC014E5F5F4F2417350748F040
:104120004E0F5F1F50932F0640932E06819391935D
:1041300002C0E0E0F0E0CF01DF91CF911F910F913D
:104140000895CF93DF93009709F481C0FC01329763
:1041500013821282A0913006B0913106109781F43B
:1041600020813181820F931F20912E0630912F06DE
:104170002817390751F5F0932F06E0932E0667C0F4
:10418000ED0120E030E0CE17DF0740F44A815B818B
:104190009E0141155105F1F0EA01F5CFD383C283A9
:1041A00040815181840F951FC817D90759F4888120
:1041B0009981840F951F0296918380838A819B81C8
:1041C000938382832115310529F4F0933106E0931E
:1041D00030063DC0E901FB83EA8349915991C40F40
:1041E000D51FEC17FD0761F480819181840F951F25
:1041F0000296E90199838883828193819B838A83D4
:10420000E0E0F0E012968D919C911397009719F0E1
:10421000FD01DC01F7CF8D919C9111979D012E5FDF
:104220003F4F820F931F20912E0630912F062817A3
:10423000390769F4309729F410923106109230064C
:1042400002C013821282B0932F06A0932E06DF9134
:10425000CF91089581E090E0F8940C94FE23FB0147
:10426000DC0104C08D910190801921F4415050402F
:10427000C8F7881B990B0895FB01DC0141505040A1
:1042800048F001900D920020C9F701C01D924150E5
:104290005040E0F70895AEE0B0E0E1E5F1E20C94C3
:1042A000751F0D891E8986E08C831A8309838FEF21
:1042B0009FE79E838D83AE01475E5F4F6F89788D48
:1042C000CE0101960E946D21EF81F885E00FF11F6C
:1042D00010822E96E4E00C94911FABE0B0E0E3E78F
:1042E000F1E20C94671F6C017B018A01FC011782CB
:1042F0001682838181FFCCC1CE0101963C01F6017B
:104300009381F70193FD859193FF81917F0188232C
:1043100009F4BAC1853239F493FD859193FF8191F7
:104320007F01853229F4B60190E00E946423E7CF33
:10433000912C212C312CFFE1F315D8F08B3279F040
:1043400038F4803279F08332A1F4232D20611DC02E
:104350008D3261F0803369F4232D216016C0832DE6
:104360008260382EE32DE4603E2E2AC0F32DF860E3
:104370001DC037FC2DC020ED280F2A3040F08E32B2
:10438000B9F436FC81C1232D2064322E19C036FECB
:1043900006C08AE0989E200D1124922E11C0EAE0FA
:1043A0002E9E200D1124222EF32DF0623F2E08C0E8
:1043B0008C3621F4832D8068382E02C0883641F473
:1043C000F70193FD859193FF81917F018111B3CF17
:1043D000982F9F7D9554933028F40C5F1F4F9FE3D7
:1043E00099830DC0833631F0833771F0833509F03E
:1043F00059C021C0F801808189830E5F1F4F882436
:104400008394912C530113C02801F2E04F0E511CEC
:10441000F801A080B18036FE03C0692D70E002C0B3
:104420006FEF7FEFC5010E9459234C018201F32DEC
:10443000FF773F2E16C0280122E0420E511CF801E2
:10444000A080B18036FE03C0692D70E002C06FEF1E
:104450007FEFC5010E944E234C01F32DF0683F2EE3
:10446000820133FC1BC0822D90E088169906B0F4BF
:10447000B60180E290E00E9464232A94F4CFF50113
:1044800037FC859137FE81915F01B60190E00E9473
:10449000642321102A9421E0821A91088114910446
:1044A00071F7E8C0843611F0893641F5F80137FE1E
:1044B00007C060817181828193810C5F1F4F08C0AA
:1044C00060817181072E000C880B990B0E5F1F4FC6
:1044D000F32DFF763F2E97FF09C09095809570953C
:1044E00061957F4F8F4F9F4FF0683F2E2AE030E05D
:1044F000A3010E94A023882E861845C0853731F479
:10450000232D2F7EB22E2AE030E025C0932D997FF7
:10451000B92E8F36C1F018F4883579F0B5C08037E0
:1045200019F0883721F0B0C0E92FE061BE2EB4FE4B
:104530000DC0FB2DF460BF2E09C034FE0AC0292F28
:104540002660B22E06C028E030E005C020E130E051
:1045500002C020E132E0F801B7FE07C0608171813E
:10456000828193810C5F1F4F06C06081718180E062
:1045700090E00E5F1F4FA3010E94A023882E861893
:10458000FB2DFF773F2E36FE0DC0232D2E7FA22E52
:10459000891458F434FE0BC032FC09C0832D8E7E82
:1045A000A82E05C0B82CA32C03C0B82C01C0B92C70
:1045B000A4FE0FC0FE01E80DF11D8081803321F4BF
:1045C0009A2D997EA92E09C0A2FE06C0B394B39479
:1045D00004C08A2D867809F0B394A3FC11C0A0FE14
:1045E00006C0B21488F4280C922C9B180EC0B2148A
:1045F00060F4B60180E290E00E946423B394F7CFA8
:10460000B21418F42B1802C0982C212CA4FE10C050
:10461000B60180E390E00E946423A2FE17C0A1FCD3
:1046200003C088E790E002C088E590E0B6010CC0C6
:104630008A2D867859F0A1FE02C08BE201C080E28B
:10464000A7FC8DE2B60190E00E946423891438F43F
:10465000B60180E390E00E9464239A94F7CF8A9495
:10466000F301E80DF11D8081B60190E00E94642302
:104670008110F5CF222009F442CEB60180E290E00D
:104680000E9464232A94F6CFF6018681978102C0A6
:104690008FEF9FEF2B96E2E10C94831FFC010590B6
:1046A000615070400110D8F7809590958E0F9F1F34
:1046B0000895FC016150704001900110D8F7809579
:1046C00090958E0F9F1F08950F931F93CF93DF93A5
:1046D000FB01238121FD03C08FEF9FEF2CC022FF40
:1046E00016C046815781248135814217530744F40F
:1046F000A081B1819D012F5F3F4F318320838C9337
:10470000268137812F5F3F4F3783268314C08B016B
:10471000EC01FB010084F185E02D0995892BE1F680
:10472000D80116968D919C911797019617969C9398
:104730008E931697CE01DF91CF911F910F9108951F
:10474000FA01AA27283051F1203181F1E8946F93C2
:104750006E7F6E5F7F4F8F4F9F4FAF4FB1E03ED068
:10476000B4E03CD0670F781F891F9A1FA11D680F06
:10477000791F8A1F911DA11D6A0F711D811D911D39
:10478000A11D20D009F468943F912AE0269F1124AE
:104790003019305D3193DEF6CF010895462F477012
:1047A000405D4193B3E00FD0C9F7F6CF462F4F706D
:1047B000405D4A3318F0495D31FD4052419302D0CB
:1047C000A9F7EACFB4E0A695979587957795679571
:1047D000BA95C9F700976105710508959B01AC0171
:1047E0000A2E06945795479537952795BA95C9F798
:1047F000620F731F841F951FA01D0895F894FFCFAB
:10480000FFFFFFFF0000320680001F1C1F1E1F1E3F
:104810001F1F1E1F1E1F000000007F0ED30E8801E9
:10482000970E5E0E9F0EA90E00000000E50D520DC2
:104830007C0D320EAD0D8B0D9F0D00000000EF0EB4
:10484000520D8801870100000000950E520D88016D
:104850008701950E950E950E00000000950E520DE5
:104860008801870100000000C801BD0188017901AD
:1048700080017D017A014453313330325254432058
:10488000526561642054657374002D2D2D2D2D2DDE
:104890002D2D2D2D2D2D2D2D2D2D2D2D2D00525429
:1048A00043206D6F64756C65206163746976617413
:1048B0006564005468652044533133303220697395
:1048C0002073746F707065642E00546865204453C3
:1048D00031333032206973207772697465207072C9
:1048E0006F7465637465642E2054686973206973FE
:1048F000206E6F726D616C2E004453313330325232
:104900005443205465737420456E640075534420ED
:10491000696E697469616C697A6174696F6E206629
:1049200061696C6564212E205374617475732077FE
:10493000696C6C206E6F74206265207265636F72A3
:104940006465642E0075534420696E697469616CF6
:10495000697A6174696F6E20646F6E652E00253010
:1049600034692F253032692F2530326920253032C5
:10497000693A253032692025303369202563006487
:0C4980006174612E747874000D0A000050
:00000001FF
