:100000000C9427010C944F010C944F010C944F0158
:100010000C944F010C944F010C94D3020C944F019B
:100020000C944F010C944F010C944F010C944F0110
:100030000C944F010C944F010C944F010C944F0100
:100040000C94A10B0C944F010C9420090C94FA0809
:100050000C944F010C944F010C944F010C944F01E0
:100060000C9408060C944F014572724A616E466505
:10007000624D61724170724D61794A756E4A756C5C
:100080004175675365704F63744E6F7644656300C6
:1000900044656570207761746572696E6720646F6E
:1000A0006E652E00206F662031302E006379636C00
:1000B00065200046696E69736865642E20506C6126
:1000C0006E747320617265206861707079206E6F44
:1000D00077203A44007761746572696E67207468AE
:1000E0006520706C616E74732E2E2E00000000006F
:1000F0002300260029005254432073657420666152
:10010000696C65642E006C617374207472792E00C2
:1001100052544320736574206661696C65640052B3
:1001200054432073657420746F3A20004572726FD7
:10013000723A2059656172206D7573742062652072
:1001400074776F206F7220666F75722064696769BB
:1001500074730077616974696E6720666F722064DA
:100160006174652061742073657269616C20696EC9
:100170007075742E2E2E004D6F64756C6520776F30
:10018000726B696E672070726F7065726C792E0089
:1001900057726F6E672074696D652E2052657365A6
:1001A0007474696E67206D6F64756C652E00250030
:1001B0004D6F6973747572653A2000646565706C83
:1001C00079207761746572696E672061732073634B
:1001D000686564756C65642E2E2E00646565706CB0
:1001E00079207761746572696E672061732073632B
:1001F000686564756C65642E2E2E00000000002476
:100200000027002A0000000000250028002B000421
:1002100004040404040404020202020202030303AD
:1002200003030301020408102040800102040810A7
:100230002001020408102000000008000201000054
:10024000030407000000000000000000BC0E1124A1
:100250001FBECFEFD8E0DEBFCDBF11E0A0E0B1E020
:10026000E4E4FFE102C005900D92AE3CB107D9F77E
:1002700023E0AEECB1E001C01D92AA31B207E1F774
:1002800011E0C7E2D1E004C02197FE010E94950F62
:10029000C632D107C9F70E94EB0B0C94A00F0C9447
:1002A0000000FC01918D228D892F90E0805C9F4F92
:1002B000821B91098F739927089580E090E0892B24
:1002C00029F00E947F0881110C9400000895089580
:1002D0008FEF9FEF08958FEF9FEF08958091420277
:1002E00090E09195819591090895089580E090E0BE
:1002F000089585ED8093BC008091BC0084FDFCCF07
:1003000010921C0208954091F801262F30E0240F2E
:10031000311D21323105DCF420911C022430C9F456
:10032000FC0180E090E0861758F43091F8012191AB
:10033000DC01A852BE4FA30FB11D2C930196F3CF41
:100340008091F801680F6093F80180E0089581E0E2
:10035000089582E00895CF93DF93CB01EA01642FE3
:100360000E948301CE01DF91CF910895CF93DF9357
:100370001F92CDB7DEB7698361E0CE0101960E947E
:10038000830181E090E00F90DF91CF9108951F935A
:10039000CF93DF93EC01162F0A971CF480E30E94A1
:1003A000290ABE01DD0F880B990B4AE050E00E943C
:1003B0002E0A111634F4812FDF91CF911F910C94E6
:1003C000290ADF91CF911F910895FC01848DDF01EF
:1003D000A80FB11DA35ABF4F2C91848D90E00196B8
:1003E0008F739927848FA689B7892C93A089B189A7
:1003F0008C91837080648C93938D848D981306C048
:100400000288F389E02D80818F7D808308950F938A
:100410001F93CF93DF93C0E0D0E0082F10E0B80126
:100420000C2E02C0759567950A94E2F76170809171
:1004300006030E94FC0A61E0809105030E94FC0A09
:1004400060E0809105030E94FC0A2196C830D10526
:1004500031F7DF91CF911F910F910895BF92CF9205
:10046000DF92EF92FF920F931F93CF93DF9360E0A1
:10047000809106030E942B0BC0E0D0E010E0C12C5D
:10048000D12C7601C3942091060330E0F901E95C98
:10049000FD4F8491F901ED5DFD4F0491F901E15F9C
:1004A000FD4FB490BB2099F181110E94D30AEB2D2E
:1004B000F0E0EE0FFF1FE451FF4FA591B491EC91D6
:1004C0000E2329F1D701C6010C2E04C0880F991FF5
:1004D000AA1FBB1F0A94D2F7182B61E08091050375
:1004E0000E94FC0A60E0809105030E94FC0A2196AC
:1004F000C830D10509F0C7CF812FDF91CF911F916F
:100500000F91FF90EF90DF90CF90BF900895D701AB
:10051000C6010C2E04C0880F991FAA1FBB1F0A9486
:10052000D2F780951823D9CF60E0809107030E940D
:10053000FC0A8BE090E00197F1F7089560E080916C
:1005400007030E94FC0A61E0809107030E942B0BC5
:1005500060E0809105030E94FC0A61E08091050340
:100560000E942B0B61E0809106030E942B0B61E03F
:10057000809107030E94FC0A8BE090E00197F1F75D
:100580000895CF930E949E028FE80E9407020E9466
:100590002E02C82F0E9494028C2F8095881F8827D6
:1005A000881FCF9108951F920F920FB60F921124BA
:1005B0008F930FB6F894A89580916000886180931E
:1005C0006000109260000FBE8F910F900FBE0F90D1
:1005D0001F90189560934F027093500280935102C0
:1005E00090935202DC01CB01845D9E4FAF4FBF4F11
:1005F00080934B0290934C02A0934D02B0934E0215
:1006000082E090E090935602809355022FB7F894C1
:100610008091640290916502A0916602B091670298
:100620002FBF8093470290934802A0934902B09352
:100630004A0208950F931F938FB7F89400916402B4
:100640001091650220916602309167028FBF409140
:100650004702509148026091490270914A02041B7E
:10066000150B260B370B80914F0290915002A091F1
:100670005102B0915202083E134021053105C0F0ED
:100680000196A11DB11D80934F0290935002A0933B
:100690005102B093520248515C4F6F4F7F4F4093CD
:1006A0004702509348026093490270934A02C4CFB4
:1006B00040914B0250914C0260914D0270914E025C
:1006C00084179507A607B70788F1E0915302F091C8
:1006D0005402309759F1099561157105810591050D
:1006E00019F00E94EA0222C080914F0290915002BC
:1006F000A0915102B0915202845D9E4FAF4FBF4F07
:1007000080934B0290934C02A0934D02B0934E0203
:1007100081E090E02091550230915602232B11F494
:1007200080E090E0909356028093550260914F02D2
:100730007091500280915102909152021F910F913D
:1007400008954F925F926F927F928F929F92AF9295
:10075000BF92CF92DF92EF92FF920F931F93CF93AE
:10076000DF93FC011681A12FB0E020E833E341EED6
:1007700051E00E941D0F4B015C01C2EBD7E09D01CF
:1007800004E610E080E9E82EFF24F394CE01825BBA
:10079000974082179307D4F4CE0183709927892B51
:1007A00099F4CE01B8010E946D0F892B31F4CE016E
:1007B000B7010E946D0F892B39F480E8880E81E51E
:1007C000981E81E0A81EB11C2196E0CF4580512CD7
:1007D0002E54384FC90164E670E00E946D0F7C0111
:1007E000C90160E971E00E946D0F6C0104E011E045
:1007F000C1E0D0E03901A3E06A227724C415D50511
:1008000034F5C230D10589F46114710471F4E11436
:10081000F10419F4C114D10441F4B0E88B0EBBE328
:100820009B1EB6E2AB1EB11C0EC0D8018C91A82F46
:10083000B0E020E831E541E050E00E941D0F860E57
:10084000971EA81EB91E21960F5F1F4FD7CF41815B
:10085000228130E0A0E1BEE00E94520F6B017C01DA
:10086000242F30E0ACE3B0E00E94520FDC01CB015A
:100870008C0D9D1DAE1DBF1D20816C017D01C20E22
:10088000D11CE11CF11CA481B0E0119720E831E5F6
:1008900041E050E00E94280FDC01CB018C0D9D1D32
:1008A000AE1DBF1DBC01CD01680D791D8A1D9B1DAC
:1008B000DF91CF911F910F91FF90EF90DF90CF903C
:1008C000BF90AF909F908F907F906F905F904F9070
:1008D0000895EF92FF920F931F93CF93DF93CDB7BD
:1008E000DEB72F970FB6F894DEBF0FBECDBF0E94C4
:1008F0009E028FEB0E940702CE0101967C018E01C1
:10090000075F1F4F0E942E02F70181937F010E1790
:100910001F07C1F70E9494028981682F669566952A
:1009200066956E70962F990F990F690F8F70680FEB
:1009300069878A81482F4695469546954E70942F33
:10094000990F990F490F8F70480F4A878B81382F65
:100950003695369536953670932F990F990F390F36
:100960008F70380F3B878C81282F269526952695EA
:100970002670922F990F990F290F8F70280F2D87AE
:100980008D8184FB992790F9990F592F550F550F99
:10099000950F8F70980F9E875E8157705C878F814F
:1009A000782F72957F708F70825EFAE07F9F800D46
:1009B00011248F876C3398F44C3388F4383178F4F1
:1009C00021502F3160F491509C3048F451505730F1
:1009D00030F4843620F4C8010E94A10303C060E013
:1009E00070E0CB012F960FB6F894DEBF0FBECDBFDF
:1009F000DF91CF911F910F91FF90EF9008956F922B
:100A00007F928F929F92AF92BF92CF92DF92EF929E
:100A1000FF920F931F93CF93DF936B017C01EA0149
:100A20008CE3882E912CA12CB12CC701B601A50115
:100A300094010E94300F6883CA01B901A501940195
:100A40000E94300F6983C701B60120E13EE040E01B
:100A500050E00E94300FCA01B90128E130E040E0C7
:100A600050E00E94300F6A83C701B60120E831E5EB
:100A700041E050E00E94300F69017A01CA01B901DA
:100A80006C5F7F4F8F4F9F4F27E030E040E050E09A
:100A90000E94300F6F5F6B83812C912C540140E0DA
:100AA00094E6692E712C00E911E0242F30E02E54D9
:100AB000384FF901E370FF27309789F4C901B3017A
:100AC0000E946D0F892B31F4C901B8010E946D0F8E
:100AD000892B29F48EE691E0A0E0B0E004C08DE619
:100AE00091E0A0E0B0E0880E991EAA1EBB1ED501C1
:100AF000C401AA27BB27C816D906EA06FB0610F0D0
:100B00004F5FD3CF4E83309799F4C90164E670E00C
:100B10000E946D0F892B39F4C90160E971E00E94D0
:100B20006D0F892B29F48EE691E0A0E0B0E004C0BF
:100B30008DE691E0A0E0B0E0881A990AAA0ABB0A03
:100B4000C818D908EA08FB08C90164E670E00E94E9
:100B50006D0F8C01C90160E971E00E946D0FA4E086
:100B6000B1E020E0213041F4309751F40115110536
:100B700029F4009729F402C04C9103C04DE101C053
:100B80004CE150E060E070E0C416D506E606F706DA
:100B900040F0C41AD50AE60AF70A2F5F11962C30E6
:100BA00009F72F5F2D83C394CC82DF91CF911F91E2
:100BB0000F91FF90EF90DF90CF90BF90AF909F90FC
:100BC0008F907F906F900895CF92DF92EF92FF9277
:100BD000C0904302D0904402E0904502F09046025B
:100BE000C616D706E806F90671F06B017C0149E5E7
:100BF00052E00E94FF04C0924302D0924402E0926D
:100C00004502F0924602FF90EF90DF90CF9008955A
:100C10001F920F920FB60F9211242F933F934F9371
:100C20005F936F937F938F939F93AF93BF93EF9354
:100C3000FF938091B900887F803609F49CC068F5E5
:100C4000883209F45BC090F4803109F454C038F460
:100C5000882309F4F2C0883009F44DC0F2C088310D
:100C600009F44CC0803209F45DC0EBC0803409F453
:100C700068C048F4803309F455C0883309F0E1C0F6
:100C800080931B02D4C0803509F44FC0883509F425
:100C90005DC0883409F0D5C0D2C0883909F4C3C01A
:100CA000A8F4883709F467C038F4883609F463C0BB
:100CB000803709F460C0C5C0883809F4B4C08039F1
:100CC00009F45FC0803809F0BCC05BC0803B09F408
:100CD00084C038F4803A09F466C0883A09F47DC0CB
:100CE000B0C0803C09F4A3C0883C09F4A0C0883B94
:100CF00009F486C0A6C08091410210C090914002C4
:100D000080913F02981770F5E091400281E08E0FCC
:100D100080934002F0E0E15EFD4F80818093BB0054
:100D200085EC82C080931B028AC0E091400281E082
:100D30008E0F809340028091BB00F0E0E15EFD4F9A
:100D400080839091400280913F026AC0E09140020E
:100D500081E08E0F809340028091BB00F0E0E15E65
:100D6000FD4F808380911E02811169C081E08093D4
:100D70001D0284EA5DC083E080931C0210921A0277
:100D8000CFCF80911A02803208F04DC0E0911A0254
:100D900081E08E0F80931A028091BB00F0E0E65054
:100DA000FE4F8083BDCF85EC8093BC0010921C0267
:100DB00080911A02803230F4E0911A02F0E0E6509D
:100DC000FE4F108260911A0270E08AEF91E0E0E03D
:100DD000F0E0099510921A0234C084E080931C025E
:100DE0001092F9011092F801E0E0F0E0099580918D
:100DF000F801811105C081E08093F8011092D801BB
:100E0000E091F90181E08E0F8093F901F0E0E85262
:100E1000FE4F80818093BB009091F9018091F80191
:100E2000981708F47DCF85E88093BC000AC085EC54
:100E30008093BC0010921C0204C010921B020E94FE
:100E40007901FF91EF91BF91AF919F918F917F9128
:100E50006F915F914F913F912F910F900FBE0F9027
:100E60001F90189585ED90E00E94B7090E94250A11
:100E700061E089E00E94FC0A61E08DE00E94FC0ACA
:100E80006091000170910101809102019091030134
:100E90000E94670B60E089E00E94FC0A60E08DE040
:100EA0000E94FC0A83EB90E00E94B7090C94250A8B
:100EB000CF92DF92EF92FF92CF93DF93C091000128
:100EC000D091010180E89EE3A0E0B0E080930001B2
:100ED00090930101A0930201B0930301C12CD12C86
:100EE0007601C3948CEA90E00E94B7094AE050E092
:100EF000C701B6010E942E0A84EA90E00E94B70959
:100F00000E94250A8091570290915802899714F403
:100F10000E94320764E873E080E090E00E94670B73
:100F20008FEFC81AD80AE80AF80A8BE0C816D1046D
:100F3000E104F104B9F6CE01DD0FAA0BBB0B8093DF
:100F4000000190930101A0930201B093030180E995
:100F500090E00E94B709DF91CF91FF90EF90DF9072
:100F6000CF900C94250A8F929F92AF92BF92CF920E
:100F7000DF92EF92FF924B015C010E94E4058091A9
:100F80005D0260E090E00E94C701C501B4010E94CB
:100F9000E405C0905F02D12C8EE4C81A88EFD80A0D
:100FA0000D2C000CEE08FF08C501B4010E94E405F9
:100FB00020915E0283E0289F90011124AEECB1E005
:100FC00080E090E0F901E80FF91FE859FF4FE49144
:100FD000ED93019683309105A9F71092D1018EEC23
:100FE00091E00E94D2094AE050E0C701B6010E9498
:100FF0002E0A80E20E94290AC501B4010E94E4057C
:1010000080915B026AE390E00E94C701C501B401D0
:101010000E94E40580915A026AE390E00E94C701B1
:10102000C501B4010E94E4058091590260E290E09C
:101030000E94C701FF90EF90DF90CF90BF90AF90DC
:101040009F908F900C94250ACF92DF92EF92FF929F
:101050000F931F93CF93DF936C017A018B01C0E054
:10106000D0E0CE15DF0581F0D8016D918D01D6015C
:10107000ED91FC910190F081E02DC6010995892B3D
:1010800011F02196EECF7E01C701DF91CF911F9124
:101090000F91FF90EF90DF90CF900895FC01538D5A
:1010A000448D252F30E0842F90E0821B930B541742
:1010B00010F0CF96089501970895FC01918D828DCF
:1010C000981761F0828DDF01A80FB11D5D968C919C
:1010D000928D9F5F9F73928F90E008958FEF9FEFA7
:1010E0000895FC01918D828D981731F0828DE80F63
:1010F000F11D858D90E008958FEF9FEF089588E6AC
:1011000092E00E94510121E0892B09F420E0822F16
:1011100008950E949B0FEF92FF920F931F93CF931E
:10112000DF93EC0181E0888F9B8D8C8D981305C037
:10113000E889F989808185FD26C0F62E0B8D10E0A7
:101140000F5F1F4F0F731127E02E8C8DE8120CC01C
:101150000FB607FCFACFE889F989808185FFF5CFC2
:10116000CE010E94E501F1CF8B8DFE01E80FF11D4C
:10117000E35AFF4FF0829FB7F8940B8FEA89FB89FF
:10118000808180620AC09FB7F894EE89FF896083EE
:10119000E889F98980818370806480839FBF81E0C2
:1011A00090E0DF91CF911F910F91FF90EF90089504
:1011B000CF93DF93EC01888D8823C9F0EA89FB89FE
:1011C000808185FD05C0A889B9898C9186FD0FC0F5
:1011D0000FB607FCF5CF808185FFF2CFA889B989CA
:1011E0008C9185FFEDCFCE010E94E501E7CFDF9125
:1011F000CF9108951F920F920FB60F9211242F9343
:101200003F934F935F936F937F938F939F93AF938E
:10121000BF93EF93FF9388E692E00E94E501FF9170
:10122000EF91BF91AF919F918F917F916F915F915E
:101230004F913F912F910F900FBE0F901F901895D7
:101240001F920F920FB60F9211242F938F939F939B
:10125000EF93FF93E0917802F09179028081E09121
:101260007E02F0917F0282FD12C090818091810206
:101270008F5F8F7320918202821751F0E09181027B
:10128000F0E0E859FD4F958F8093810201C0808185
:10129000FF91EF919F918F912F910F900FBE0F9023
:1012A0001F9018953FB7F89480910A0390910B0313
:1012B000A0910C03B0910D0326B5A89B05C02F3F4C
:1012C00019F00196A11DB11D3FBFBA2FA92F982F6C
:1012D0008827820F911DA11DB11DBC01CD0142E0E7
:1012E000660F771F881F991F4A95D1F708952FB76A
:1012F000F8948091640290916502A0916602B09189
:1013000067022FBF8093700290937102A0937202C4
:10131000B093730288E692E00E94710897FF26C09E
:101320002FB7F8948091640290916502A0916602B3
:10133000B09167022FBF409170025091710260918D
:10134000720270917302841B950BA60BB70B409130
:101350006C0250916D0260916E0270916F02841761
:101360009507A607B707B0F28FEF9FEF08950F9389
:101370001F93CF93DF938C01C0E0D0E0F801EC0F16
:10138000FD1F6491662341F088E692E00E948B087D
:10139000892B11F02196F2CFCE01DF91CF911F91D1
:1013A0000F910895009769F0FC0101900020E9F782
:1013B0003197AF01481B590BBC0188E692E00C94B1
:1013C000240880E090E008958F929F92AF92BF92A0
:1013D0000F931F93CF93DF93CDB7DEB7A1970FB6CF
:1013E000F894DEBF0FBECDBF19A2423008F44AE028
:1013F0008E010F5D1F4F842E912CA12CB12CA501C5
:1014000094010E94300FE62FB901CA010150110961
:10141000EA3014F4E05D01C0E95CD801EC93232BC1
:10142000242B252B61F7C8010E94D209A1960FB683
:10143000F894DEBF0FBECDBFDF91CF911F910F910A
:10144000BF90AF909F908F9008958AEC91E00C949C
:10145000D209682F88E692E00C948B08CF92DF9235
:10146000EF92FF92CF93DF934115510551F488E637
:1014700092E0DF91CF91FF90EF90DF90CF900C94AE
:101480008B084A305105E1F497FF19C06B017C01CC
:101490008DE20E94290AEC0166277727CB016C199F
:1014A0007D098E099F094AE00E94E4098C0F9D1F67
:1014B000DF91CF91FF90EF90DF90CF9008954AE0B9
:1014C000DF91CF91FF90EF90DF90CF900C94E409E3
:1014D000CF92DF92EF92FF92CF930E947709FC01A7
:1014E00097FD0BC08D32910561F0C0970A9748F0C7
:1014F00088E692E00E945D08F0CF60E070E0CB01EA
:1015000040C0C12CD12C7601C0E0E130F10501F1E1
:10151000ED32F105E1F0CF01C0970A97C8F4AAE0D7
:10152000B0E0A70196010E941D0F6F01FF0FEE08AA
:10153000FF08DC01CB018C0D9D1DAE1DBF1D6C0194
:101540007D0120E3C21AD108E108F10801C0C1E021
:1015500088E692E00E945D080E947709FC01C0972E
:101560000A9798F2E130F10581F2CC2341F0662729
:101570007727CB016C197D098E099F0902C0C7012D
:10158000B601CF91FF90EF90DF90CF900895CF9369
:10159000DF930E94D209EC010E94250A8C0F9D1F47
:1015A000DF91CF910895833081F028F4813099F054
:1015B0008230A1F008958730A9F08830B9F08430E6
:1015C000D1F4809180008F7D03C0809180008F775F
:1015D00080938000089584B58F7702C084B58F7D95
:1015E00084BD08958091B0008F7703C08091B000D2
:1015F0008F7D8093B00008951F93CF93DF93282FA2
:1016000030E0F901E95CFD4F8491F901ED5DFD4F9A
:10161000D491F901E15FFD4FC491CC23C1F0162FA5
:1016200081110E94D30AEC2FF0E0EE0FFF1FEB5F59
:10163000FD4FA591B4919FB7F894111104C08C91FE
:10164000D095D82302C0EC91DE2BDC939FBFDF91B5
:10165000CF911F910895CF93DF9390E0FC01ED5D52
:10166000FD4F2491FC01E15FFD4F8491882361F1DE
:1016700090E0880F991FFC01E550FE4FC591D49171
:10168000FC01EB5FFD4FA591B491611109C09FB7BB
:10169000F8948881209582238883EC912E230BC0B7
:1016A000623061F49FB7F8948881322F309583239C
:1016B0008883EC912E2B2C939FBF06C08FB7F89494
:1016C000E8812E2B28838FBFDF91CF9108958F92D1
:1016D0009F92AF92BF92CF92DF92EF92FF926B01F7
:1016E0007C010E9452094B015C01C114D104E10448
:1016F000F104F1F00E945209DC01CB01881999092B
:10170000AA09BB09883E9340A105B10570F321E009
:10171000C21AD108E108F10888EE880E83E0981E0D
:10172000A11CB11CC114D104E104F10419F7DDCFEF
:10173000FF90EF90DF90CF90BF90AF909F908F90F1
:1017400008951F920F920FB60F9211242F933F937B
:101750008F939F93AF93BF938091640290916502A2
:10176000A0916602B09167023091090323E0230F34
:101770002D3720F40196A11DB11D05C026E8230FC9
:101780000296A11DB11D20930903809364029093DA
:101790006502A0936602B093670280910A0390915C
:1017A0000B03A0910C03B0910D030196A11DB11D77
:1017B00080930A0390930B03A0930C03B0930D0343
:1017C000BF91AF919F918F913F912F910F900FBE3D
:1017D0000F901F901895CF93DF93CDB7DEB7669724
:1017E0000FB6F894DEBF0FBECDBF789484B582608B
:1017F00084BD84B5816084BD85B5826085BD85B5B5
:10180000816085BD80916E00816080936E00109232
:1018100081008091810082608093810080918100AD
:10182000816080938100809180008160809380003E
:101830008091B10084608093B1008091B00081609C
:101840008093B00080917A00846080937A008091C8
:101850007A00826080937A0080917A008160809320
:101860007A0080917A00806880937A001092C1009B
:10187000E0917802F091790282E08083E091740235
:10188000F09175021082E0917602F09177028FEC70
:10189000808310928002E0917C02F0917D0286E0CC
:1018A0008083E0917A02F0917B0280818061808365
:1018B000E0917A02F0917B02808188608083E091E0
:1018C0007A02F0917B02808180688083E0917A02C5
:1018D000F0917B0280818F7D808360E08DE00E94AB
:1018E000FC0A60E088E00E94FC0A89E694E090939C
:1018F00054028093530280914F0290915002A09124
:101900005102B091520280934B0290934C02A093EB
:101910004D02B0934E020E941A0384E391E00E94AC
:10192000C70A88E491E00E94C70A60E086E00E944E
:10193000FC0A61E086E00E942B0B61E087E00E94D8
:10194000FC0A61E087E00E942B0B8CE591E00E948D
:10195000C70A0E94250A64EF71E080E090E00E94CF
:10196000670B0E949E0281E80E9407020E942E02DD
:10197000182F0E94940217FF06C081E791E00E9491
:10198000C70A0E94250A0E94C102811106C088E888
:1019900091E00E94C70A0E94250A68E873E180E08E
:1019A00090E00E94670B0E9469046B017C010E9419
:1019B000E40580915F0290E0C097CCF480E991E06B
:1019C0000E94B7090E94250A00E07E0129E0E20E8C
:1019D000F11C1AE050E8D52E0E941A03809155029E
:1019E00090915602029769F00B30E8F10AC087E740
:1019F00091E00E94B7090E94250AC701B6010E9422
:101A0000B30787EB91E00E94C70A88E491E00E9447
:101A1000C70A61E089E00E942B0B60E089E00E9428
:101A2000FC0A10E43AEDC32E3DEFD32EEE24EA94E7
:101A3000FE2C40E4842E47E7942E4BE1A42EB12CDB
:101A40000E9469040E94E40580915B02863009F4DB
:101A5000FAC00E9469040E94E40580915B0285310E
:101A600009F045C1F0C083E591E00E94B7090E94EA
:101A7000250A0F5F68E873E180E090E00E94670B41
:101A800088E692E00E9451010C970CF4B4C00E94C9
:101A9000680AAB01445651094438534038F48CE28B
:101AA00091E00E94B7090E94250AA5C0683EF3E0B4
:101AB0007F0714F0625B01C0625E6E8B0E94680A51
:101AC0006D8B0E94680A6C8B0E94680A6A8B0E9468
:101AD000680A698B0E94680A688BCE0140960E9452
:101AE000A1032B013C01A7010E94FF040E949E025A
:101AF0008FE80E9407020E942E02C82E0E949402C4
:101B00000E949E028EE80E9407028C2D8F770E9411
:101B100007020E9494020E94C102882309F459C05E
:101B20008985612F0E94610F20E1829F900D112411
:101B300099838A850E94610F30E1839F900D112463
:101B40009A838B850E94610F40E1849F900D112440
:101B50009B838D850E94610F50E1859F900D11241C
:101B60009C838E850E94610FE0E18E9F900D112471
:101B70009D838C858E838F858E510E94610FF0E14D
:101B80008F9F900D11249F83D8860E949E028EEB1A
:101B90000E9407029E012F5F3F4F5901F50181917D
:101BA0005F010E940702EA14FB04C1F70E9494023D
:101BB0000E94C10281110DC0C301B2010E94EA025C
:101BC0008FE191E00E94B709C301B2010E94B307FF
:101BD00006C080E191E00E94B7090E94250A88E6CC
:101BE00092E00E945101181619062CF488E692E042
:101BF0000E945D08F4CF0E9469048090600290907A
:101C00006102A0906202B0906302681579058A05AE
:101C10009B0551F0609360027093610280936202B1
:101C2000909363020E94B3070A3019F486E091E0B2
:101C300005C00B3009F0D0CE86EF90E00E94B709C6
:101C40000E94250AC9CE109258021092570261E0F4
:101C500088E00E94FC0A60E27EE480E090E00E945E
:101C6000670B10937C0080917A00806480937A00E7
:101C700080917A0086FDFCCF2091780080917900D8
:101C800030E0382BC901330FAA0BBB0B9C01AD010F
:101C90002652324041095109A4E6B0E00E941D0FCE
:101CA000A70196010E94FE0E29013A0130935802C5
:101CB0002093570280EB91E00E94B7094AE050E080
:101CC000C301B2010E942E0A8EEA91E00E94B70978
:101CD0000E94250A60E088E00E94FC0A8091570279
:101CE0009091580289979CF40E94320710C00E947C
:101CF00069040E94E40580915D02823009F10E942E
:101D000069040E94E40580915D02803121F1809197
:101D1000000190910101A0910201B0910301A50180
:101D20009401281B390B4A0B5B0BCA01B901660FE2
:101D3000771F881F991F0E94670B0E945D0180CE4C
:101D40000E9469040E94E40580915B028631B9F625
:101D50008BED91E00AC00E9469040E94E405809125
:101D60005B028631A1F68BEB91E00E94B7090E94DD
:101D7000250A0E945807CBCFE8E6F2E013821282D0
:101D800088EE93E0A0E0B0E084839583A683B783D8
:101D900024E131E03183208325EC30E0358724874E
:101DA00024EC30E03787268720EC30E0318B208B25
:101DB00021EC30E0338B228B22EC30E0358B248B0E
:101DC00026EC30E0378B268B118E128E138E148EFC
:101DD000EEE0F3E01382128284839583A683B783B7
:101DE00086E291E09183808383E08093070384E01F
:101DF0008093060385E0809305030895052E97FBE5
:101E00001EF400940E94150F57FD07D00E94300F5A
:101E100007FC03D04EF40C94150F50954095309567
:101E200021953F4F4F4F5F4F089590958095709546
:101E300061957F4F8F4F9F4F08950E94520FA59F2E
:101E4000900DB49F900DA49F800D911D11240895B5
:101E5000B7FF0C941D0F0E941D0F821B930B08955A
:101E6000A1E21A2EAA1BBB1BFD010DC0AA1FBB1F9E
:101E7000EE1FFF1FA217B307E407F50720F0A21B10
:101E8000B30BE40BF50B661F771F881F991F1A947D
:101E900069F760957095809590959B01AC01BD01A7
:101EA000CF010895A29FB001B39FC001A39F700D01
:101EB000811D1124911DB29F700D811D1124911D52
:101EC0000895991B79E004C0991F961708F0961B96
:101ED000881F7A95C9F78095089597FB072E16F409
:101EE000009407D077FD09D00E94810F07FC05D030
:101EF0003EF4909581959F4F0895709561957F4F21
:101F00000895AA1BBB1B51E107C0AA1FBB1FA61740
:101F1000B70710F0A61BB70B881F991F5A95A9F792
:101F200080959095BC01CD010895EE0FFF1F05909F
:101F3000F491E02D099481E090E0F8940C94A00FC6
:041F4000F894FFCF43
:101F4400C8AF00001F1C1F1E1F1E1F1F1E1F1E1FA9
:101F5400000000008B0824084E08D80851015D08D1
:101F6400710800000000B601AB01760167016E0143
:101F74006B0168014453313330325254432052656B
:101F840061642054657374002D2D2D2D2D2D2D2D60
:101F94002D2D2D2D2D2D2D2D2D2D2D005254432045
:101FA4006D6F64756C6520616374697661746564D2
:101FB40000546865204453313330322069732073F0
:101FC400746F707065642E00546865204453313317
:101FD40030322069732077726974652070726F746F
:101FE40065637465642E2054686973206973206E78
:101FF4006F726D616C2E004453313330325254434E
:0E200400205465737420456E64000D0A0000C0
:00000001FF
